:1000000000800020BD010000755000002D50000050
:100010002D5000002D5000002D5000002D500000EC
:100020002D5000002D5000002D5000007550000094
:10003000755000002D5000003D680000416900002F
:10004000755000007550000075500000755000009C
:10005000755000007550000075500000755000008C
:10006000755000007550000075500000755000007C
:10007000755000007550000075500000755000006C
:10008000755000007550000075500000755000005C
:10009000755000007550000075500000755000004C
:1000A0008949000095490000755000007550000016
:1000B000755000007550000075500000755000002C
:1000C000755000007550000075500000755000001C
:1000D000755000007550000075500000755000000C
:1000E00075500000755000007550000075500000FC
:1000F000755000009D71000075500000C97200002D
:1001000075500000F5730000755000007550000038
:1001100075500000755000007550000075500000CB
:1001200075500000755000007550000075500000BB
:1001300075500000755000007550000075500000AB
:10014000755000007550000075500000755000009B
:10015000755000007550000075500000755000008B
:1001600075500000F15600007550000075500000F9
:10017000755000007550000075500000755000006B
:10018000755000007550000075500000755000005B
:10019000755000007550000075500000755000004B
:1001A000755000007550000075500000755000003B
:1001B0007550000075500000F9650000564B4CF278
:1001C000205210B51A804DF628121A8000BF00BFC9
:1001D00004F054FF514B4FF010621A60504A9A607D
:1001E000504ADA60504A136813F4807304D14F49BF
:1001F0000B604FF4A85313604D4B1A78110703D5C9
:100200001A7842F008021A704A4B4B492A221A7097
:100210004A4A4B4B8B4204D252F8040F43F8040B6A
:10022000F8E7484B484900228B4202D243F8042B9E
:10023000FAE74649464A002352F8230041F82300D2
:1002400001336F2BF8D1434B434A802103F8011B44
:100250009342FBD1414B3D4A1A60414B8A221A70AE
:10026000A3F5805324225A70A0221A709A7992071B
:10027000FCD59A79D406FCD43A4A937903F00C035E
:10028000082B384BF9D103221A7140225A719A79FE
:100290009006FCD5334A9179324B4906FBD5324A58
:1002A000324911600221516020221A709A7902F0BD
:1002B0000C020C2AFAD12E4B2E4A1A602E4B2F4AD2
:1002C0001A6000225A60072243F8042C2C4AC3F813
:1002D0000C2D62B605F0C2F8144B1B68DA0705D581
:1002E000284805F02DF8284B284A1A60284B1B781F
:1002F0005B0609D5244C254B22689A4204D121483B
:1003000005F01EF80023236009F0F0FA04F0BCFEAB
:1003100006F08CFEFEE700BF0E2005403080044052
:10032000823F04000100002B10D0034014D0034092
:1003300002D0074000E00740D098FF1FC8B500007A
:100340002087FF1FD098FF1F00A2FF1F0082FF1F02
:100350000000000000E400E05FE400E008ED00E0E1
:100360000050064000400640448004400000030165
:1003700004800440C010050014E000E0FF76010096
:1003800000002020FC6ABC621CE00340A5C3945A14
:1003900000F00740FFFFFFFFFFFFFFFFFFFFFFFF32
:1003A000FFFFFFFFFFFFFFFFFFFFFFFFFFFFFFFF5D
:1003B000FFFFFFFFFFFFFFFFFFFFFFFFFFFFFFFF4D
:1003C000FFFFFFFFFFFFFFFFFFFFFFFFFFFFFFFF3D
:1003D000FFFFFFFFFFFFFFFFFFFFFFFFFFFFFFFF2D
:1003E000FFFFFFFFFFFFFFFFFFFFFFFFFFFFFFFF1D
:1003F000FFFFFFFFFFFFFFFFFFFFFFFFFFFFFFFF0D
:10040000FFFFFFFFFFFFFFFFFFFFFFFFDEF9FFFF23
:1004100010B5054C237833B9044B13B10448AFF33E
:1004200000800123237010BDD098FF1F0000000042
:10043000C4B50000084B10B51BB108490848AFF31C
:1004400000800848036803B910BD074B002BFBD0A0
:10045000BDE81040184700BF00000000D498FF1FFF
:10046000C4B50000D098FF1F000000000369D3F856
:100470003801D3F83431C01A704700BF006903F067
:1004800029BF00BF04F056BF0F4B104A1988104B0C
:10049000B2F9002070B4C1EB201404FB04F4B3F9EA
:1004A00000600C4D2413490002FB04F2C1EBE00094
:1004B00006FB00F0921302EBE02303EB8300803095
:1004C0002B60001270BC7047FC98FF1F0099FF1F43
:1004D000FE98FF1FA499FF1F6C4A6D49DFF8C8C141
:1004E0002DE9F84F14686B4BB1F90060E517B4F5CE
:1004F000FA3445F1FF35A4FB048904FB05F209EB4E
:100500004209B3F90020F717D31702FB09FE06FBD7
:1005100005F104FB071108FB03EEA6FB0467A2FB31
:10052000082373440F444FEA122A4AEA036A4FEA47
:10053000232B32033B0312EB0A0243EA1653BCF8A7
:10054000006043EB0B03003243F50043A2FB06AB14
:1005500006FB03BB4FEA6B024FEAEB7352EA03015F
:1005600000F090804C4E4D49B6F90060B1F900A002
:1005700006FB05F5F717C0F5801E04FB0757484832
:10058000A6FB04454FEAEA7B0AFB09F13D4408FB60
:100590000B116604AAFB08896F04B0F900A070462D
:1005A00018EB060847EAD43789444FF000044FEAB5
:1005B000E07149EB07094FEACE7614EB08044FEAE5
:1005C000CA054FEAC17747EA5E0745EB0905341BC8
:1005D00067EB0505201945EB0501001969418F01FD
:1005E000860147EA9067801979418E00870046EAC4
:1005F0009076381946EB05018E00870046EA907622
:10060000381946EB050108F097FF264BDFF89CC030
:10061000B3F90020DFF898E04C13470B47EAC147D5
:1006200002FB04F5D31707FB0355A2FB072302FBCC
:1006300004F6BCF900402B4407FB036604FB01FCF5
:10064000A2FB0723E517334400FB05CC560EA4FBA1
:100650000045654446EAC3164FEAD4485F16801940
:1006600048EA453879414FEAE54910EB0800BEF900
:10067000004041EB0901030A43EA016320011844E9
:10068000BDE8F88F0020BDE8F88F00BFA499FF1FD8
:10069000C29BFF1FC49BFF1FEC98FF1FEE98FF1F1C
:1006A000C69BFF1FF498FF1FC09BFF1FF298FF1F00
:1006B000F098FF1F224B23491B68234AF0B5B1F97C
:1006C0000070224CB2F90010214AB4F90050B2F97E
:1006D00000C0204A204EB2F90020A3F5963E0EFB42
:1006E00007F70EFB01F4FF1207F50047A11201FB0B
:1006F00007F14FEA0C538912C3EB803001F500116A
:100700000EFB150302FB01F203F5804302F50052D4
:100710009213DB1302FB03F3D813B6F9002000FB9E
:1007200000F0C01102FB00F0A3EB201020EAE07003
:10073000B0F1C85FA8BF4FF0C8500013F0BD00BFB4
:10074000A499FF1FB099FF1FB699FF1FB499FF1F0F
:10075000B299FF1FAE99FF1FAC99FF1F70B50446F9
:1007600082B016461D4603F087FA236831461B689F
:100770002046984722682946136820469847002358
:10078000627B216900932046012303F073FD02B0D0
:1007900070BD00BF70B5044682B015460E4603F02A
:1007A0006BFA236829461B68002520469847627B20
:1007B000216900952B46204603F05CFD0123617BF7
:1007C000206900933246019503F06AFD2368074AC9
:1007D0005B69934205D1206903F07CFDC0B202B091
:1007E00070BD20469847C0B202B070BD7D040000C5
:1007F0002DE9F047044682B015469A468946DDF851
:1008000028801F4E03F038FA236829461B6800250C
:10081000204698470127627B216900952B46204698
:1008200003F028FD617B20690097019553464A46F5
:1008300003F036FD134F12E02369D3F83821D3F8C3
:100840003401101A5FFA85F998B123685B69BB42DD
:1008500012D1206903F03EFD08F809000135236834
:100860001B69B342E8D0204698475FFA85F9002813
:10087000EBD102B0BDE8F08720469847ECE700BF17
:100880006D0400007D04000000B585B003AB00934B
:10089000FA22032377210848FFF7AAFF9DF80D20CD
:1008A0009DF80C309DF80E00120242EA03431843F3
:1008B000000905B05DF804FBAC9EFF1F00B585B0D4
:1008C00003AB0093F722032377210848FFF790FF3B
:1008D0009DF80D209DF80C309DF80E00120242EAA2
:1008E00003431843000905B05DF804FBAC9EFF1FED
:1008F00000B585B003AB0093FD22022377210648A3
:10090000FFF776FF9DF80C009DF80D3043EA0020BC
:1009100000B205B05DF804FBAC9EFF1FF0B5634B61
:10092000634C1B788BB0204603F00703F22277213B
:10093000FFF714FF5F4A604B127860491B78097813
:10094000920042EA43130B432046DBB2F4227721A4
:10095000FFF704FF5A4B5B4A1B7812789B0043EA6F
:10096000421303AD204603F0FC03F5227721FFF785
:10097000F5FE204600951A2388227721FFF738FFDD
:100980009DF80DE09DF80C609DF80FC09DF811706A
:100990009DF812209DF80E009DF810309DF8131060
:1009A00046EA0E26DFF860E1AEF80060464E9DF89C
:1009B00019E040EA0C2043EA072342EA01219DF8AE
:1009C00015709DF81420308040489DF817C00380B2
:1009D00042EA07223E4F9DF816603E4B3A803E4A5F
:1009E000198046EA0C269DF818309DF81A109DF8DB
:1009F0001B001680394E9DF81DC0394F9DF81E20F2
:100A000043EA0E2341EA002033809DF81C10354B49
:100A10009DF81FE09DF82160188041EA0C219DF8A7
:100A2000203039803048314942EA0E2243EA062319
:100A300002800B809DF823109DF822302C4A2D4E09
:100A40000095204643EA01239DF825401380348019
:100A50000723E1227721FFF7CBFE9DF810309DF8A8
:100A60000F409DF81100244E9DF80D709DF80C105C
:100A7000224DDFF898E01A01D2B242EA04221211A4
:100A800003F0F003328043EA00231D4C1D489DF81B
:100A90000E609DF8122026801B1141EA07212B8051
:100AA000AEF8001002800BB0F0BD00BF0388FF1F3E
:100AB000AC9EFF1F0188FF1F0088FF1F0588FF1FD6
:100AC0000288FF1F0488FF1FFE98FF1F0099FF1F69
:100AD000C29BFF1FC09BFF1FC49BFF1FC69BFF1F26
:100AE000EE98FF1FEC98FF1FF098FF1FF298FF1F72
:100AF000F498FF1FAC99FF1FB299FF1FB499FF1F15
:100B0000B099FF1FB699FF1FFC98FF1FAE99FF1FFA
:100B10002DE9F0470026294D3746B046B146082456
:100B200055F82410DFF894A0484608F0ADFA631C8D
:100B3000814655F82310404608F0A6FAA31C8046CB
:100B400055F82310384608F09FFAE31C074655F87D
:100B50002310304608F098FA06347A2C0646DFD186
:100B6000DAF8D011164CDAF8D451484608F08CFA6D
:100B7000144908F045FC29462060404608F084FAF4
:100B80001049114CDAF8D891104DDAF8DC8108F0F0
:100B900037FC49462060384608F076FA09490C4C83
:100BA00008F02EFC41462860304608F06DFA0549F1
:100BB00008F026FC2060BDE8F08700BFB899FF1F51
:100BC000989BFF1F0000A0419499FF1FA899FF1F49
:100BD0003099FF1F08B50549054806F0C9F800B966
:100BE00008BD0348BDE8084006F0F4B85CAD00005D
:100BF000708EFF1F30B58DB00D4604460A22684640
:100C000006F05EF9092D0DDD6946124806F08AF9F5
:100C10001049204606F036F9684606F0DFF820460F
:100C20000DB030BD04A80C4906F018F9694604A8B7
:100C300006F0D4F9014608A806F024F908A90548E9
:100C400006F078F908A806F0C9F804A806F0C6F876
:100C5000DEE700BF8499FF1F60AD000070B584B06F
:100C600004F040F8304C314E314D01466846FFF7F4
:100C7000C1FF6946204605F081FE684606F0AEF8E1
:100C80000121304605F0B4FB04F03CF8014668460B
:100C9000FFF7B0FF6946204605F070FE684606F093
:100CA0009DF80121304605F0A3FB04F03BF8014616
:100CB0006846FFF79FFF6946204605F05FFE6846DD
:100CC00006F08CF80121284605F092FB04F03AF872
:100CD00001466846FFF78EFF6946204605F04EFE46
:100CE000684606F07BF80121284605F081FB04F0F8
:100CF00039F801466846FFF77DFF6946204605F052
:100D00003DFE684606F06AF80121284605F070FBB2
:100D100004F038F80146204605F0A6FE204605F00E
:100D200053FE04B070BD00BF708EFF1F70AD000099
:100D30002CB0000070B50B2182B005462D4805F09F
:100D400057FB2D4805F040FE0124002604E004284E
:100D500033D001347F2C25D0E1B2284602F08CFF3D
:100D600000236A7B296900932846012303F082FA55
:100D70000028ECD11E21214805F03AFB0F2C2CD97C
:100D80000023102221461C4805F02EFE03211C489A
:100D900005F02EFB0134184805F016FE01367F2CB5
:100DA000B6B2D9D11EB31748052105F021FB124870
:100DB00002B0BDE8704005F007BE1B21124805F0E7
:100DC00017FB0F2C0ED90023102221460A4805F0EC
:100DD0000BFE094805F0F8FDBBE701210B4805F0C3
:100DE00007FBCDE70121094805F002FBEBE71521E0
:100DF0000748DAE774AD0000708EFF1F80AD000079
:100E0000A0AD0000D8AD0000A4AD000060AD0000B2
:100E1000C0AD00002DE9F041C54EC64F717B306971
:100E2000C54D86B04FF0120E00244FF00108CDF8EA
:100E300008E04FF0130E23462246CDF804E0049755
:100E4000CDF814800394009402F014FE3369697B9A
:100E500028694FF01E0C4FF01D0E42F21076C3F8B9
:100E600078622246CDF808C0CDF804E02346CDF8DC
:100E7000148004970394009402F0FCFD2B69AF48A2
:100E8000C3F8786203F0BAFF642004F099FA03F023
:100E9000ADFF022814BFAA48AA481B2105F0A8FAF2
:100EA000A94805F091FD05F079FA002840F0C181CC
:100EB0000721A64800F080FE0E21A44800F0C4FEE1
:100EC0001721A34805F094FA0A21A24801F056F828
:100ED000002800F0A48114219F4805F089FA9A485F
:100EE00005F072FD4FF47A7004F06AFA9248FFF749
:100EF00021FF4FF4FA7004F063FAD02277218E4874
:100F0000FFF748FC07210446944805F071FA0521D3
:100F1000934805F06DFA2146002310228A4805F017
:100F200063FD0D218F4805F063FA00231022602134
:100F3000854805F059FD844805F046FD01218A48A1
:100F400005F056FA804805F03FFD4FF47A7004F042
:100F500037FAE022B62377217748FFF7FFFB6420BA
:100F600004F02EFAFFF7DAFC1F21804805F040FA62
:100F7000754805F029FD08217D4805F039FA7D4BBB
:100F80007148198805F070FD6F4805F01DFD0821B6
:100F9000794805F02DFA794B6B48B3F9001005F04C
:100FA00063FD694805F010FD0821754805F020FA39
:100FB000744B6548B3F9001005F056FD624805F022
:100FC00003FD0821704805F013FA704B5E4819883C
:100FD00005F04AFD5C4805F0F7FC08216C4805F077
:100FE00007FA6C4B5848B3F9001005F03DFD564820
:100FF00005F0EAFC0821684805F0FAF9674B524809
:10100000B3F9001005F030FD4F4805F0DDFC082174
:10101000634805F0EDF9634B4B48B3F9001005F058
:1010200023FD494805F0D0FC08215F4805F0E0F9B0
:101030005E4B4548B3F9001005F016FD424805F037
:10104000C3FC08215A4805F0D3F95A4B3E48B3F97E
:10105000001005F009FD3C4805F0B6FC0821564893
:1010600005F0C6F9554B3848B3F9001005F0FCFC03
:10107000354805F0A9FC0821514805F0B9F9514B54
:101080003148B3F9001005F0EFFC2F4805F09CFC47
:1010900008214D4805F0ACF94C4B2B48B3F9001032
:1010A00005F0E2FC284805F08FFC0821484805F0CF
:1010B0009FF9484B2448B3F9001005F0D5FC2248AD
:1010C00005F082FC0821444805F092F9434B1E4884
:1010D000B3F9001005F0C8FC1B4805F075FC0821A9
:1010E0003F4805F085F93F4B1748B3F9001005F06C
:1010F000BBFC154805F068FC08213B4805F078F971
:101100003A4B1148B3F9001005F0AEFC0E4805F05B
:101110005BFC0821364805F06BF9364B0A48B3F9F9
:10112000001005F0A1FC084805F04EFC082163E022
:10113000C09EFF1F801A0600AC9EFF1F85040000A2
:10114000E0AD0000FCAD0000708EFF1F0C88FF1F9B
:1011500018AE0000409CFF1F48AE000060AE0000CB
:1011600068AE000070AE00002CB0000080AE000041
:10117000A0AE0000FC98FF1FACAE0000FE98FF1F61
:10118000B8AE00000099FF1FC4AE0000C09BFF1F57
:10119000D0AE0000C29BFF1FDCAE0000C49BFF1F4F
:1011A000E8AE0000C69BFF1FF4AE0000EC98FF1FE6
:1011B00000AF0000EE98FF1F0CAF0000F098FF1F7B
:1011C00018AF0000F298FF1F24AF0000F498FF1F33
:1011D00030AF0000AC99FF1F3CAF0000AE99FF1F7D
:1011E00048AF0000B099FF1F54AF0000B299FF1F35
:1011F00060AF0000B499FF1F144805F0F9F8144BD4
:101200001448B3F9001005F02FFC124805F0DCFB80
:101210004FF4FA6006B0BDE8F04104F0D1B81621F1
:101220000D4805F0E5F80B4806B0BDE8F04105F0C3
:10123000CBBBFFF7CFFC044600283FF439AE04F0E7
:101240007FF8204603F0B0FD32E600BF6CAF00002F
:10125000B699FF1F708EFF1F30AE00002DE9F843D6
:10126000204F214C214D224EDFF89890DFF89880D6
:101270003846002105F0F2FD22462946384608F09E
:101280001FFB3046002105F0E9FD22462946304685
:1012900008F016FB48461749174F184E05F0DEFDBB
:1012A00022462946484608F00BFB4046002105F03F
:1012B000D5FD22462946404608F002FB104D38462F
:1012C00000F0A0FD22463146384608F0F9FA2846DB
:1012D00000F098FD224631462846BDE8F84308F064
:1012E000EFBA00BF3899FF1FFC87FF1FDD6D0000BC
:1012F000A09BFF1F60AD00001099FF1F211E000082
:101300005499FF1FB09BFF1F8499FF1FF0B50A215E
:101310008BB0704800F032FE642004F051F86E4942
:101320006C4800F03DFF002800F0C280002502A8B4
:101330001323694A674900F0BFFE0AAA6748049B65
:1013400012F8144D9DF80C1083600473017100F1C4
:101350000D031A3012F8011F03F8011B83425F4C82
:10136000F8D1099BE36102A800F05AFD204600F085
:1013700067FD1621002800F09380594805F038F8E1
:10138000584805F021FB002D40F09B800024564F6B
:101390002546022612E057F8240007F0FBFA0096D3
:1013A00002460B464D4805F067FB013401224F49C8
:1013B0004A48154400F0ACFC782C18D0052D47485D
:1013C000E9DD05F001FB57F8240007F0E3FA009689
:1013D00002460B46414805F04FFB013401224349C8
:1013E0003E4800F095FC782C4FF00105E6D13B48D3
:1013F00005F0EAFA01223D49384800F089FC012253
:101400003A49364800F084FC394B186807F0C2FAB4
:1014100002240B4602460094304805F02DFB0122C1
:1014200032492E4800F074FC324B186807F0B2FACB
:1014300000940B460246294805F01EFB01222B4969
:10144000264800F065FC2C4B186807F0A3FA0094BE
:101450000B460246214805F00FFB012223491F4895
:1014600000F056FC254B186807F094FA00940B46E0
:1014700002461A4805F000FB01221C49174800F0FB
:1014800047FC164805F0A0FA144800F0CBFC0521F3
:101490001B4804F0ADFF134805F096FA0BB0F0BD01
:1014A000184804F0A5FF0F4805F08EFA0BB0F0BD08
:1014B0001221154804F09CFF0A4805F085FA012521
:1014C00035E71B221149204600F022FC204605F09A
:1014D0007BFA5BE7409CFF1F78AF00005499FF1F29
:1014E00098AF0000708EFF1FB899FF1FCCAF0000AF
:1014F000989BFF1F9499FF1FA899FF1F3099FF1F0A
:10150000D0AF0000D8AF000084AF0000B0AF000043
:101510002DE9F04F93B003F031FFDFF84CA3BA4B45
:10152000DFF848B3B94DDFF84893B94FDFF844838B
:10153000B84E0446DAF800001C60201A07F054FE8A
:10154000B54907F05DFFCAF80040CBF80000FFF78F
:10155000B5F9B24B1860FEF7BFFF07F045FEB04982
:1015600007F04EFF07F016FAC5E90001FFF78CF906
:10157000AC4B1860FEF788FF07F03AFEAA4907F067
:101580003FFF07F007FAC9E90001FFF7B1F9A74BE0
:101590001860FFF78FF807F027FE4FF06A5107F049
:1015A0007BFE07F0F7F992A3D3E90023C7E9000116
:1015B000D5E9000107F06CFB8FA3D3E9002305F008
:1015C000CDFF02460B460020994907F083F88CA313
:1015D000D3E9002307F032FA07F000FD0721C8F82D
:1015E0000000944804F004FF934805F0EDF902244C
:1015F0001821924804F0FCFED9E900238E4800949B
:1016000005F03AFA21468E4804F0F2FE8A4805F0C9
:10161000DBF915218B4804F0EBFED5E90023864861
:10162000009405F029FA0521874804F0E1FE82487C
:1016300005F0CAF90B21854804F0DAFED8F800005D
:10164000834907F029FE07F0A5F94FF0030ECDF806
:1016500000E002460B46784805F00EFA21467D4828
:1016600004F0C6FE744805F0AFF94FF0010A1521E9
:10167000794804F0BDFED7E900236F48CDF800A0FB
:1016800005F0FAF90421754804F0B2FE6A4805F045
:101690009BF95146724804F0ABFE674805F094F997
:1016A000D6F800B0BBF1770F10DDFFF731FAFFF786
:1016B0002DFE6C4A002314603360FFF7CFFA4FF41D
:1016C000FA7003F07DFE13B0BDE8F08F03F03AFB33
:1016D000014606A8FFF78EFA06A90EA805F0D2FB70
:1016E00003F040FB01460AA8FFF784FA0AA90EA8F6
:1016F00005F074FC044603F045FB0146204605F066
:1017000075FC0068DFF870A108F0E0F807F070FDE4
:1017100003460AA84AF82B3005F060FB0EA805F036
:101720005DFB06A805F05AFB33685C1C03F0DAFA8F
:10173000014602A8FFF75EFA02A90AA805F0A2FB7B
:1017400003F0E0FA014606A8FFF754FA06A90AA832
:1017500005F044FC834603F0E5FA01460EA8FFF7C6
:1017600049FA0EA9584605F039FC006808F0AEF8B1
:1017700007F03EFD03460EA84AF8243005F02EFB84
:1017800006A805F02BFB0AA805F028FB02A805F027
:1017900025FBD9E9000107F021FC346804F1020BB4
:1017A00003464AF82B30D5E9000107F017FC04F195
:1017B000030903464AF82930D8F80000244907F005
:1017C0006BFD251D03464AF82530D7E9000107F0D7
:1017D00005FC651D06340346214617484AF82530A6
:1017E000346005F041F9144805F0EEF865E700BFF4
:1017F0000000000000AA8F40000000E0395BC83FF5
:10180000000000A0B3BE01413499FF1F7899FF1F6B
:101810000899FF1F5099FF1F00247449A099FF1FCA
:101820000000C8469899FF1F0000C8428099FF1F1A
:101830000000F03FF0AF0000708EFF1FF8AF000017
:1018400014B0000018B0000030B0000038B0000044
:10185000BF0E9C3E44B0000048B0000060B00000E5
:101860002CB000000888FF1FF898FF1F9C9BFF1FEB
:101870004899FF1F9C99FF1FB899FF1F10B5044698
:1018800004F060FF204610BD024A0349034808F0F7
:1018900017B800BFFC87FF1F7D180000C89BFF1F03
:1018A00038B5074D074C08482A46214608F008F885
:1018B0002A4621460548BDE8384008F001B800BF77
:1018C000FC87FF1F7D180000D09BFF1FD89BFF1FC8
:1018D000024A0349034807F0F3BF00BFFC87FF1F1C
:1018E0007D180000E09BFF1F024A0349034807F0F0
:1018F000E7BF00BFFC87FF1F7D180000E89BFF1FAC
:10190000024A0349034807F0DBBF00BFFC87FF1F03
:101910007D180000F09BFF1F024A0349034807F0AF
:10192000CFBF00BFFC87FF1F7D180000F89BFF1F83
:10193000024A0349034807F0C3BF00BFFC87FF1FEB
:101940007D180000009CFF1F024A0349034807F06E
:10195000B7BF00BFFC87FF1F7D180000089CFF1F5A
:10196000024A0349034807F0ABBF00BFFC87FF1FD3
:101970007D180000109CFF1F024A0349034807F02E
:101980009FBF00BFFC87FF1F7D180000189CFF1F32
:10199000024A0349034807F093BF00BFFC87FF1FBB
:1019A0007D180000209CFF1F024A0349034807F0EE
:1019B00087BF00BFFC87FF1F7D180000289CFF1F0A
:1019C000024A0349034807F07BBF00BFFC87FF1FA3
:1019D0007D180000309CFF1F024A0349034807F0AE
:1019E0006FBF00BFFC87FF1F7D180000389CFF1FE2
:1019F00010B4047F4160022CC26002D010BC04F01D
:101A0000BBBE836810BC1847F0B4464B464A186BFF
:101A1000DC6A01791170454922790A709A6A007965
:101A20000870002A46D05968C9688A423ED82168A1
:101A3000CC8B240402F1FF3065D4C0F30E00C883C0
:101A4000C88B80B2C882196B0968C88B000452D455
:101A5000C2F30E00C883C88B002480B212F1FF329B
:101A6000C88218BF01229C62D96A2E4809680D6895
:101A700000F12404A54236D00068C46814F0804FF9
:101A80000C680D6815BF248824780235013544F0B0
:101A900000440D604463196B254B09791970214985
:101AA00012B1CA6A12791A70F0BC7047521A9A625F
:101AB0000122D9E7586B196805681E4C0A63CC628D
:101AC000CC682D681C4E24F080440327B542CC60BE
:101AD00083F825701FD1037F4260022BC2601ED0A5
:101AE000F0BC04F049BE016890F82400CC6840F0D6
:101AF00000404863CFE7CC8BC2F3080004F47E4477
:101B00002043C883A7E7CC8BC0F3080004F47E44CD
:101B10002043C88394E72B461146F0BC18478368DE
:101B2000F0BC18470C88FF1F1F8000401C8000403D
:101B30001B80004000000FFFF119000090E80C002E
:101B4000F0B41C6859682568164F174E2943216068
:101B5000164D17491760D66015611160417A154A14
:101B60005C180A3194F8244053F8215002EBC40168
:101B700049680D60017A5C1803EB8101247ECD6910
:101B800002EBC40149680D60817A581803EB8103A8
:101B900090F83000596B02EBC002F0BC536819603A
:101BA000704700BF01401F0001100038011000788D
:101BB00000001F8070B20000204A43689A42F0B4CF
:101BC0000FD0427A1A4492F82420914207D093F819
:101BD00024408C4215D093F825408C422AD0F0BC8A
:101BE00070470B2907D00729EBD1154C227842F01A
:101BF00001022270E5E7124C227822F001022270E5
:101C0000DFE7002421461E685D6836682E420FD04B
:101C10000C4D05EBC202002756685A18376092F83F
:101C2000242005EBC2050A316A6853F8213013609D
:101C30004472D4E701242146E5E700BF68B0000004
:101C400024A0FF1F70B20000204A43689A42F0B4FB
:101C50000FD0827A1A4492F83020914207D093F83C
:101C600030408C4215D093F831408C422BD0F0BCE0
:101C700070470D2907D00E29EBD1154C227842F080
:101C800004022270E5E7124C227822F0040222704E
:101C9000DFE7002421461E685D6836682E4210D0BA
:101CA0000C4D05EBC202002756685A18376092F8AF
:101CB00030200C3105EBC20503EB81036A685B68D9
:101CC00013608472D3E701242146E4E768B0000082
:101CD00024A0FF1F70B2000000207047704700BFB3
:101CE00010B582B002AB026803F8011D54681946B2
:101CF0000122A04702B010BDC06938B18369C06835
:101D000047F6FF72181A904228BF1046704700BF6E
:101D1000C36910B504463BB100201871E06901F0B9
:101D20002BF9E3691B791BB101232371002010BD3E
:101D300010BD00BFC06978B100B583B001220DF1BC
:101D4000070100F0F7FE01280CBF9DF807004FF0D7
:101D5000FF3003B05DF804FB4FF0FF30704700BF69
:101D6000C369C3B110B582B00446012218460DF113
:101D7000070100F0DFFE012803D04FF0FF3002B072
:101D800010BDE0699DF80740C168013900F084FF8B
:101D9000204602B010BD1846704700BFC06908B1A8
:101DA00000F0ACBF704700BF2DE9F04105464FF48D
:101DB0007A731348AB60002328602B712B732420A7
:101DC0000C46904607F0D8FDE861B0B1064604F134
:101DD000200E20686168A268E36837460FC7103498
:101DE00074453E46F5D12068386041460C2205F125
:101DF0000D0008F0D3FC00236B762846BDE8F08187
:101E0000E8B000004FF47A72044982600022016059
:101E100002710273C2614273704700BFE8B00000F4
:101E2000704700BFC36953B110B50446184600F0AF
:101E300009FEE06907F0A8FD0023E36110BD7047CB
:101E4000C06918B18079003018BF0120704700BF09
:101E500030B58BB000240A460A4D8DF80840014683
:101E6000012301A88DF80A40019501F07BF8A042FA
:101E700018BF012402D001A800F0E4FD20460BB0F9
:101E800030BD00BF0CB10000F0B50E68835D2F2B94
:101E900008BF0136841902F1FF3E002523782F2B5D
:101EA000274604F1010408D03BB101350C2D06F1A1
:101EB00001060EF8013FF1D18719002353553B78F5
:101EC0002F2B04BF013687190E603878003018BFF9
:101ED0000120F0BD2DE9F04F99B08846264D0695BA
:101EE00000218DF81C1083469246994644468DF891
:101EF0001E108DF840108DF8421001910F9506AE1E
:101F000005E000F09FFDFDB1234634461E4602AABF
:101F100001A95846FFF7B8FF80F00102D2B24B4644
:101F200002A905462046D04721460746012302AABA
:101F300070B13046ADB101F015F844450546204674
:101F4000DFD10DB10FACDFE7002019B0BDE8F08F95
:101F50004445F9D0204600F075FD384619B0BDE87B
:101F6000F08F444506D0204600F06CFD012019B0EA
:101F7000BDE8F08F0120E8E70CB1000038B50A4653
:101F80000121044600F064FA08B9002038BD251D7F
:101F900028460122214601F0B1FA40B1294604F158
:101FA0002C0000F09FFD003018BF012038BD024614
:101FB0002146284601F0A2FA0028EFD1002038BDC2
:101FC0002DE9F04F99B04FF00008DFF8E8A08DF848
:101FD0001C808146043106A8934601938DF81E802B
:101FE0008DF840808DF84280CDF818A0CDF83CA047
:101FF00000F078FD06AE5D460FAF2F21284608F0B1
:102000008BFA441BE4B2294608B32B782F2B02A885
:102010001BD00C2C28BF0C24224608F0BFFB18ABA9
:102020002344384603F8588C00F00CFD012302AA23
:102030003146384600F096FF88B3304600F002FD86
:10204000334625443E461F46D7E70135D5E701987C
:1020500031797279B379B468377DCBEB05050560CA
:10206000F068356989F8041089F80520B16989F8A4
:102070000630F269336AC9F80C004846C9F800A076
:10208000C9F80840C9F8105089F81470C9F8181038
:10209000C9F81C20C9F8203019B0BDE8F08F89F8C4
:1020A000040089F806004846C9F800A019B0BDE848
:1020B000F08F00BF0CB10000F0B59DB005461F4683
:1020C00001A86B461446FFF77BFF009AA35C1444FB
:1020D000002B42D09DF80A202F4E0A9600238DF83F
:1020E0002C308DF82E30002A31D00AA83B462246EB
:1020F00001A900F037FF50B301A800F0A3FC17F0CE
:10210000060F43D19DF82C700C9B9DF82DE0139683
:1021100022469DF82E408DF850708DF85240159350
:102120000D990E989DF83C70109E119C129B8DF895
:1021300051E01691179013A928468DF860701996F2
:102140001A941B93FFF730FE28461DB0F0BD2846B9
:10215000FFF758FE28461DB0F0BD9DF808700E4EE2
:102160009DF809409DF80A30039A8DF85070139637
:102170008DF851408DF852301592049905989DF8CC
:102180001870079E089C099B044AD2E70AA8109978
:1021900000F082FDB6E700BF0CB1000064AD0000A6
:1021A00010B40C46002300F12C01024A204610BC5A
:1021B000FFF790BE511E0000064B074ADA6202216B
:1021C000002259609A7083F8242083F8302083F825
:1021D00032207047409CFF1F0CB10000052823D817
:1021E000DFE800F0030310161C0A124B12484FF0F0
:1021F00038421A60FFF7A2BC0E4B104A1A600E4814
:10220000FFF79CBC0B4B0E4A1A600B48FFF796BCBD
:10221000084B0C4A1A600848FFF790BC054B0A4A65
:102220001A600548FFF78ABC024B084A1A60024848
:10223000FFF784BC949CFF1F0C88FF1F032001380C
:102240000000013801100138032000380650003822
:1022500010B50121007803F085F80E4A137893B188
:102260000D49CB7A00241846147063B1DC0703D5FE
:102270000A4A8869106018469A0705D4430702D5B0
:10228000074B0A6A1A6010BD064BCA69C87A1A6001
:10229000F4E700BF989CFF1F0C88FF1F00E100E0DF
:1022A00008E100E004E100E01E4B1A781AB1007862
:1022B000002103F057B870B41B4A1C49D47A09684E
:1022C00001251D70ECB172B6D37ADE071C4606D527
:1022D000174DD4682E68344094612C601C469D07CD
:1022E00006D5144D13692E68D47A3340D3612B6020
:1022F000630705D5104C536925682B401362236092
:1023000062B61368DA688A4207D00C4C1C600C4A2B
:10231000D96041F080441C611A600078002170BCD3
:1023200003F020B8989CFF1F0C88FF1F949CFF1F90
:1023300080E100E084E100E088E100E001403F004E
:1023400000003F80F0B41248124A036882B016467B
:102350000093009F4FF00045FF24136843F480630F
:102360001360D5625463D36A002BFCDAB36BDBB223
:10237000FF2B09D003680193019BDB1B8B42ECD33D
:10238000002002B0F0BC7047012002B0F0BC7047E2
:10239000FC9EFF1F00C00240F8B50D464FF4967139
:1023A00016460446FFF7CEFF284B1A684FF0004050
:1023B00042F4806245F040011A60D8621A465963BF
:1023C000D36A002BFCDA214918204FF000470A6835
:1023D00026FA00F342F48062DBB20A60CF624B63FC
:1023E000CB6A002BFCDA083810F1080FEFD155B397
:1023F000082D0CBF8721FF21144B1A684FF00040B5
:1024000042F480621A60D8621A465963D36A002B7C
:10241000FCDA0E4A002716464FF00045FF211368EC
:1024200043F480631360D5625163D36A002BFCDAF6
:10243000B36BD8B21B06607000D4F8BD0137B7F596
:10244000807FECD1F8BD9521D6E700BF00C00240E7
:102450002DE9F0430023934E027085B083703368FA
:1024600001930546884610460121019F02F07AFF3C
:102470002878012102F07CFF2878012102F072FF08
:10248000894A136843F4805313600620FFF7A6FEC1
:10249000DFF840E2854B9EF80BC01A68BCF1000FD4
:1024A00020D072B69EF80B30DC07194608D580485C
:1024B000DEF80C1004682140CEF8181001601946AF
:1024C000980709D57B48DEF8103004689EF80B1099
:1024D0002340CEF81C300360490700F1A28062B6A9
:1024E0009EF80BC0DEF80030D968914207D07248E0
:1024F00018607249DA6042F0804018611960704AD1
:102500000A244FF00040FF21136843F480631360F6
:10251000D0625163D36A002BFCDA013C14F0FF0453
:10252000F2D1BCF1000F18D01CF0010F05D0654BA3
:10253000DEF818209EF80BC01A601CF0020F05D0C0
:10254000614BDEF81C209EF80BC01A601CF0040FD3
:1025500003D05E4BDEF820201A602846FFF7A4FE69
:1025600006E033680293029BDB1BB3F5FA6F51D888
:10257000002211462846FFF70FFF012881466870A8
:10258000EFD14FF4D57208212846FFF705FF430726
:1025900026D585F802904FF0000906E033680393D2
:1025A000039BDB1BB3F5FA6F34D800223721284692
:1025B000FFF7F2FE4A4629212846FFF7EDFE687034
:1025C0000028EBD1AB78022B39D02846FFF740FE2C
:1025D0004046FFF703FE0124204605B0BDE8F08326
:1025E000374A042194464FF0004EFF20136843F40D
:1025F00080631360C2F82CE05063D36A002BFCDACE
:10260000DCF838300139DBB211F0FF016B70EDD12D
:10261000AA2B0FD02846FFF71BFE204605B0BDE8C9
:10262000F0832B49DEF8143008680340CEF82030E0
:102630000B6054E70223AB704FF08049B5E70246C8
:102640003A212846FFF7A8FE0028E3D11C4B1A6860
:102650004FF0004442F48062FF201A601946DC62A9
:102660005863CB6A164A002BFBDA936B144A03F0CB
:10267000C003C02B04BF0323AB70032116464FF0E9
:102680000044FF20136843F480631360D4625063F6
:10269000D36A002BFCDA013911F0FF01B36BF1D1E1
:1026A00093E700BFFC9EFF1F3C800440949CFF1FEB
:1026B00080E100E084E100E001403F0000003F8055
:1026C00000C0024000E100E004E100E008E100E0B9
:1026D00088E100E00C88FF1FF0B41549154A0B682B
:1026E00082B016460093009F4FF00045FF24136808
:1026F00043F480631360D5625463D36A002BFCDA21
:10270000B36BDBB2FF2B43700AD10B680193019BC3
:10271000DB1BB3F5967FEAD9002002B0F0BC70470E
:10272000A3F1FE00B0FA80F0400902B0F0BC70479F
:10273000FC9EFF1F00C00240F8B58378032B0E46B5
:10274000044618BF4E021546FFF7AEFD3246112172
:102750002046FFF721FE18B92046FFF7BDFF20B93C
:102760002046FFF775FD0020F8BD204B2049214A87
:102770001A608E4659631A4659631E46596305F519
:10278000FD70A91C05F5FE77D36A13F0F00FFBD09E
:10279000C6F834E0B36B01F8013C1B1201F8023CAF
:1027A00002318F42F0D105F50075A8420DD20F4AD3
:1027B0001646D36A13F0F00FFBD0B36B191200F872
:1027C000021BA84200F8013CF3D3084B0949084A10
:1027D000196019465A63CB6A044A13F0F00FFAD015
:1027E0002046936BFFF734FD0120F8BD00C0024086
:1027F000FFFF009000041F80F0B4314E33684FF0AB
:10280000004743F4806333603D46F76234467163AA
:102810003346511C02F20127E26A002AFCDA1A68E8
:1028200011F8016C42F480621A60DD625E63E26A54
:10283000002AFCDA1A6811F8026B42F480628F42B7
:102840001A60DD625E63E7D11D49CA6A1C4B002A2B
:10285000FBDA1A684FF0004542F48062FF241A60E8
:102860001946DD625C63CB6A154A002BFBDA1368FC
:102870004FF0004543F48063FF2413601146D56296
:102880005463CB6A0E4A002BFBDA13684FF0004505
:1028900043F48063FF2413601146D5625463CB6A0E
:1028A000074A002BFBDA936BDBB203F01F02437085
:1028B000A2F10500B0FA80F04009F0BC704700BFFB
:1028C00000C0024070B5044671B18378032B0D46F9
:1028D00018BF4D021646FFF7E7FC2A46182120468E
:1028E000FFF75AFD054620B12046FFF7B1FC002056
:1028F00070BD3246FE212046FFF77EFF0028F3D050
:102900004FF416712046FFF71DFD0028ECD02A4633
:102910000D212046FFF740FD0028E5D10B4B1A683A
:102920004FF0004542F48062FF201A601946DD62D4
:102930005863CB6A054A002BFBDA936B13F0FF0F49
:10294000D2D12046FFF784FC012070BD00C00240B8
:10295000014B024A1A607047949CFF1F0110013816
:1029600038B590F90530002B03DBBDE8384000F0A6
:10297000FBBB04460121006900F020FCF8B1257D75
:10298000104B13EB45151AD0A3790F4A012B9CBFAE
:10299000A369EB61E36912686B831B0CAB8232B1F4
:1029A00005F1160105F1180090472B8B6B826379B6
:1029B00003F07F036371BDE8384000F0D5BB002011
:1029C00038BD00BFA89CFF1F9C9CFF1F10B500F1E5
:1029D000080204460121006A00F0DAFC50B1E36904
:1029E0003BB96379A268E26163F07F036371012000
:1029F00010BD012010BD00BF70B50646FFF7E6FF11
:102A000098B1326AB568117C53691479023D8D40E2
:102A1000013B74B11D4402E014F0FF0407D06019BB
:102A200000F032FC013C0028F6D1002070BD336A72
:102A3000197CB0694FF4007202FA01F30344B361E8
:102A4000012070BD82790AB90020704710B5044694
:102A5000FFF786FF18B10023A371012010BD0020ED
:102A600010BD00BF70B44B1E01F10A04202203F810
:102A7000012FA342FBD101380025072610F8014F92
:102A80002CB32E2C1ED0164A01E09C4217D012F80F
:102A9000013B002BF9D1AE421FD3A4F121025D2AE4
:102AA0001BD8A4F16102192A05F1010398BF203C4B
:102AB0000D44DBB298BFE4B22C701D46DEE7002067
:102AC00070BC70470A2EFAD008250A26D6E70B7884
:102AD000B3F1200018BF0120F2E71846F0E700BF6D
:102AE0001CB1000038B583793BB991F82020102A39
:102AF0000D46044603D0202A10D0002038BD022203
:102B000082714A8CC361530183610023012060718B
:102B100023752562A360E360236138BD03238371BD
:102B2000496AC16100F11802284600F001FC002842
:102B3000EBD1E2E7837913B94FF0FF3070472DE90D
:102B4000F04F8B464179C90783B0054658D5C16817
:102B50008469641A944228BF144626460194002CC6
:102B600064D01A46022ADFF8E890384FDFF8E48094
:102B70002A6AC1F3080A3FD01479013C04EA5124BF
:102B8000E4B2BAF1000F5ED1002C5CD1002951D122
:102B9000E969A960107C526902398140144408191E
:102BA000CAF500746A79B442A8BF344653062CD4DF
:102BB000B4F5007F29D0002100F000FB00B30AEB40
:102BC000090E0EEB040086450BD00BF1FF32734665
:102BD00013F8011B02F8011F9842F9D1CEEB000057
:102BE0008344E968361B2144E9601FD0AA79022A90
:102BF000C1F3080A2A6ABFD1506A00EB5120CFE71F
:102C00004FF0FF3003B0BDE8F08F3A689042D2D069
:102C100001465A46D8F80000FFF78EFD0028EFD095
:102C2000E968361B2144A344E960DFD1019803B071
:102C3000BDE8F08F1046A96805F1080200F040FBDE
:102C40000028DDD02A6AA968A4E700BF4488FF1FD6
:102C5000A89CFF1FA49CFF1F8379012B17D930B5B7
:102C6000C36883B001220DF107010446C3F3431585
:102C7000FFF760FF012802D0002003B030BDE368F9
:102C800004481F3300EB4510E36003B030BD002063
:102C9000704700BFA89CFF1FF8B5837913B1826904
:102CA0008A4201D20020F8BD022B0F4605461AD0F9
:102CB00007B32B6AE9681C7C4A1E04F109037C1ED9
:102CC000DA40DC40A24211D9EB69AB6005F108069D
:102CD00006E0A968286A00F0F3FA013C0028E1D078
:102CE0003246002CF5D1EF600120F8BD0029EBD071
:102CF000A41AEBE7AF60EF600120F8BD83790BB158
:102D0000FFF72EBE184670478379012B01D00020B3
:102D10007047F0B54579AC0783B002461CD585698C
:102D20008D420C4618D3D5B12546D6681446FFF718
:102D3000B3FF88B1B5B9E169206A00F0B1FB58B1C1
:102D4000E56122E000F0ACFB30B16FF07042A168A9
:102D5000206A00F095FBC0B9002003B0F0BD184612
:102D600003B0F0BD01AAA168206A00F0A9FA00280A
:102D7000F2D0206A0F4B90F8207001994FF6F8724C
:102D8000102F08BF13469942DCD36379A279A5615D
:102D900063F07F036371002ADED02046FFF7E0FD79
:102DA0000028D9D0B5422946204628BF3146FFF732
:102DB00073FFD2E7F8FFFF0F70B51D4B03EB411611
:102DC000F37A13F0110F02D012F0420F1ED1194BFB
:102DD00001751B680361738BB18A43EA0141C161CC
:102DE000F37A13F01803154604460DD1F369836195
:102DF0000123837105F00F03002163716B06A1604D
:102E0000E1600FD4012070BD102B01D0002070BDF7
:102E100000F11802006A00F08BFA0028F6D00423B3
:102E2000A371E7E72046BDE87040FFF76DBF00BF24
:102E3000A89CFF1F4488FF1F2DE9F04784B001AF15
:102E400006460C46104639469946FFF70BFE78B306
:102E50000022216A316213461546A260E260DFF863
:102E6000008108E0E52B1CD001460B22384607F014
:102E700061F888B3E368A2699A421DD92046C3F37A
:102E8000431AFFF7E9FE98B10378002BEAD15DB948
:102E9000D8F8003086F814A03361037823B10125F7
:102EA000E8E7002DFBD1F3E709F01203122B1DD048
:102EB000002004B0BDE8F08709F01203122BF7D10F
:102EC000A5B9A379022BF3D02046FFF795FD002882
:102ED000EED0214C357514E009F03003302BE7D0EB
:102EE0004A4651463046FFF767FFE2E70121306965
:102EF00000F064F90028DBD0347D174B13EB441449
:102F0000D6D020220021204607F0AAF897E8070033
:102F1000234603C3114923F8022B0D68120C1A70C3
:102F20009DB104F10E0104F11000A847238AE28943
:102F300063822383E28200F017F90028B8D04A4662
:102F4000317D3046FFF738FFB3E742F621034FF4F7
:102F500000622382E281EBE7A89CFF1F9C9CFF1F7D
:102F60004488FF1F10B4847914B1002010BC70474E
:102F700010BCFFF761BF00BF2DE9F04F8B46817990
:102F800085B001290746019205D001233B7100203D
:102F900005B0BDE8F08F42799107F6D5530708D503
:102FA000FC68B9698C4200F0A880FFF775FE002824
:102FB000EBD0019BFC68002B49D0DFF88C91DFF847
:102FC0008CA1DDF80480386A0679013E06EA5426B1
:102FD00016F0FF06C4F3080442D1002C40D1B968B2
:102FE00000296FD1FA69002A7ED0BA60C4F5007555
:102FF000ADB245453AD9057C4169023AAA400E4432
:1030000016441FFA88F51CB9F868BA6990424CD288
:103010003046012100F0D2F80028B6D04C4404EB31
:10302000050E74450DD00BF1FF31621E0EF1FF3617
:1030300011F8010F02F8010F9642F9D1C4EB0E040A
:10304000A344FC68B8EB05082C44FC60BBD1BB6909
:10305000A34257D27A79BC6142F080027A715AE079
:10306000C4F50075ADB24545BA68C4D8017C406965
:10307000023A8A400644B5F5007F1644C3D1DAF817
:103080000020964204BF4FF0FF32CAF800202A4ABF
:10309000314610685A46FFF715FC00283FF475AF1B
:1030A0000BF5007B4FF40075CBE700F05DF80028CE
:1030B0003FF46BAF2149CAF800600A7842F0010280
:1030C0000A70ABE703AA00F0FBF800283FF460AFFA
:1030D000386A1B4B90F82050039A4FF6F871102D68
:1030E00018BF19468A4280D33846FFF76FFC002884
:1030F0003FF44BAF386ABA6878E7019B002B7FF446
:103100005CAF08E00F4B7A791B6823B1019B13B1C8
:1031100042F080027A71120709D5BB79002B3FF487
:1031200034AF3846FFF71CFC00283FF42EAF01985F
:1031300005B0BDE8F08F00BFA49CFF1FA89EFF1F35
:10314000F8FFFF0F9C9CFF1FA89CFF1F4488FF1FD8
:1031500000B583B002AB012203F8011D1946FFF749
:103160000BFF03B05DF804FB70B50F4C23780BB96F
:10317000012070BD0D4B0E4D196828680D4AFFF7F0
:10318000A1FB70B10C4E316819B9002323700120E6
:1031900070BD2868074AFFF795FB10B10023336024
:1031A000F3E7002070BD00BFA89EFF1F4488FF1FEB
:1031B000A49CFF1FA89CFF1FA09CFF1F70B50D4D76
:1031C0002B6883420E460ED00446FFF7CDFF08B9A8
:1031D000002070BD084B094A18682146FFF7ACFA79
:1031E0000028F5D02C60064B197831431970012066
:1031F00070BD00BF4488FF1FA49CFF1FA89CFF1F39
:10320000A89EFF1FF8B590F82030C469102B1A4B08
:1032100005460E4617461B6816D004EBD1149C4297
:1032200016D106F07F06154A42F826701449287E0A
:103230000A78012842F001020A7018D9A968114AD7
:103240000B4413600120F8BD04EB11249C4208D00C
:1032500000212046FFF7B2FF50B195F82030102B27
:1032600007D1F6B2054A234622F81670DEE70120A0
:10327000F8BD2346D5E700BF4488FF1FA89CFF1F69
:10328000A89EFF1FA09CFF1F10B50446FFF76CFF10
:1032900078B1084B002103F5007203F8011F934237
:1032A000FBD1054A054913780C6043F00103137004
:1032B000012010BDA79CFF1FA89EFF1F4488FF1F71
:1032C000C36801338B4218D370B590F82030102BAF
:1032D000154B044616460D46C0691B680FD000EB1F
:1032E000D11098420FD105F07F01104B53F82130D7
:1032F00023F070433360012070BD0020704700EB65
:103300001120984207D00021FFF758FF50B194F8E0
:103310002030102BE7D1E9B2044B33F81130336081
:10332000012070BD002070BD4488FF1FA89CFF1FB6
:103330002DE9F04782B002ADDFF8508045F8041D5A
:10334000044691464FF0000A4FF400774FF6F876A6
:103350000CE094F82030227C0199102B14BF4346D6
:10336000334607FA02F29942924408D22A4620468E
:10337000FFF7A6FF0028ECD102B0BDE8F0870120DE
:10338000C9F800A002B0BDE8F08700BFF8FFFF0F4A
:103390002DE9F04F176883B06FB301374FF0000A83
:1033A000C36803F1010813B38B46064691463C46B9
:1033B000002505E01C461F46F3680135AB4216D9CF
:1033C000A04538BF0224214601AA304638BF27460F
:1033D000FFF776FF631CD91B48B1019A002AE9D197
:1033E0008B4510D01C46F3680135AB42E8D800206D
:1033F00003B0BDE8F08FA1F1010ABAFA8AFA0768B2
:103400004FEA5A1ACCE7012CF1D9F36801339C42F8
:10341000EDD86FF0704221463046FFF7F3FE0028EA
:10342000E5D0A74214D2013C012CE0D9F368013366
:103430009C42DCD8621C21463046FFF7E3FE0028A0
:10344000D5D0A74204F1FF3402D0012CEED1CEE753
:10345000D9F8001059B10129C9D9F368013399424B
:10346000C5D83A463046FFF7CDFE0028BFD0C9F890
:103470000070BAF1000F01D0013737600120B7E7C3
:1034800001290AD9C3680133994210B402D810BC8B
:10349000FFF7B8BE002010BC70470020704700BF87
:1034A000F0B5022383B00546134F03600C464FF678
:1034B000F8760FE0EB6801339C4216D8FFF7A2FEC6
:1034C00098B195F82030019C102B0CBF33463B4639
:1034D0009C420DD201AA21462846FFF7F1FE214663
:1034E000002210B1012C2846E4D8002003B0F0BD22
:1034F000012003B0F0BD00BFF8FFFF0FF8B53E4B51
:10350000054619601446DAB1042A01D90020F8BD35
:1035100000210846FFF752FE0028F7D0374B03EB97
:10352000041292F8AE215206F0D11B3403EB0414BE
:10353000D4F80A30632BE9D9D4F80640002CE5D042
:1035400000212046FFF73AFE0028DFD02B4AB2F8D0
:103550000B30B3F5007FD9D1117C0029D6D0D389A7
:10356000002BD3D0567B002ED0D0002329762E718D
:103570002B74012703E009290B462974C6D007FAEA
:1035800003F0B04203F10101F5D1D68A1B4906B917
:103590004E6AB2F80EE0AE60A644C5F81CE0B2F880
:1035A0001110177C6984480106FB07E600F2FF1042
:1035B00006EB60206E626861B2F813100F4E01B91D
:1035C000316A241A0C4424FA03F340F6F4718B4256
:1035D000EB600BD94FF6F4718B4285BFD36A6B62F7
:1035E0001023202385F820300120F8BD0C2385F816
:1035F00020300120F8BD00BFA49CFF1FA89CFF1F26
:103600000369D3F83411D3F8382191423DBFD3F880
:1036100034219B1893F830004FF0FF30704700BF03
:10362000704700BF0369D3F84422B2F5817F03D904
:103630000123037100207047D3F8442210B49C1872
:103640000132C3F8442284F83C11012010BC7047B9
:1036500038B503690A4A026093F84822022A0446F0
:1036600001D0204638BDD3F87452002DF9D0284639
:1036700003F068F82846082103F0E2FC204638BD34
:1036800034B1000038B503690546D3F84402B0F5FB
:10369000817F1AD81446D3F84422D3F84402C2F5E5
:1036A0008172013203F59E73A242184402D20123B3
:1036B00014462B71224601F0AFFB2A69D2F844323E
:1036C0002344C2F84432204638BD01232B71002028
:1036D00038BD00BF2DE9F0471E46044617469DF849
:1036E00020909DF824309DF828A00D4659B301295B
:1036F0000FD090F84A329A424FF0000800D14DB3F3
:10370000012D0ED094F84B329E4212D00020BDE81D
:10371000F0871D2F4FD01A2F77D094F84A324FF0F0
:1037200000081E2E1AD01F2E6DD094F84B329E42E8
:10373000ECD1BAF1000FE9D00025B8F1000FE5D0C7
:10374000002DE3D031E0102A35D0132A33D090F881
:103750004A328846A6F11103012BE6D8022594F8D7
:103760004B329E4257D0BAF1000F09D094F84C3238
:1037700094F84B02002B14BF0221002101F0F8FD48
:103780002B02B9F1000F13D143F06403264A02EB78
:10379000C60201215268136084F84B6284F84C928F
:1037A00084F89912B8F1000FB0D00120BDE8F0877D
:1037B00043F00303EAE74FF0020894F84A229742E5
:1037C00026D04BB194F84C3294F84A02002B14BF27
:1037D0000221002101F0CCFD4FEA0822B9F1000FCF
:1037E0000ED142F06402104B03EBC703596801236A
:1037F0000A6084F84A7284F84C9284F898327EE722
:1038000042F00302EFE70625A9E74FF00608D4E7E8
:10381000002BE1D073E7BAF1000FB1D0B8F1000F7F
:103820003FF474AF8CE700BF70B20000F8B5C36816
:103830001B789B0610D483680D4680211970C368DD
:103840001221197090F84932012B044606D08AB92A
:1038500080F848220120F8BD0020F8BD1A4675B94D
:10386000474B4FF080711960022A0FD0012084F875
:103870004802F8BD531E012BF1D90120F8BD012DDE
:10388000F2D13F4B4FF000711960EDE7D4F874624C
:10389000002E6AD03379102B30D0002D3CD1326805
:1038A0003849938B384F9BB243F0080393833279A6
:1038B000531102F110009B0041F8207003F16043A6
:1038C00003F56143012102F01F0201FA02F231689F
:1038D0001A608B8B9BB243F002038B83337903F125
:1038E000804303F5043396221D701A7000220223D0
:1038F00084F85E2284F848320120F8BD304602F098
:1039000021FF3046082103F09BFB00230120C4F86F
:10391000743284F84802F8BD012DE7D132681949A4
:10392000938B1A4F9BB243F0080393833279531160
:1039300002F110009B0041F8207003F1604303F591
:10394000614302F01F02954032681D60938B9BB269
:1039500043F002039383337903F1804303F5043387
:103960000021972219701A70C0E7082003F066FB47
:10397000314607463E4602F081FEC4F8747289E77C
:1039800000E100E00082FF1F894900009549000026
:10399000F0B5284EDFF8ACE0A6FB0143A6FB0242DF
:1039A0009E0937027546960914240023B7FBF6F6E4
:1039B00004E00133372B1BD055F8044F2202964206
:1039C000F7DA83BB14241C4A4568B1FBF4F4914236
:1039D0002B70C0F8504207D8184B8269A3FB013105
:1039E000C1F307511170F0BD836904221A70F0BD54
:1039F000002422464FF470274FF470654FF0360CC8
:103A0000B21AF71B002A87EAE776A6EBE776B8BF7B
:103A10005242964202DD0A4AD35CD4E7084B2C4658
:103A200013F80C30CFE703F1FF3C5EF82C502F0267
:103A3000E6E700BFD34D6210FF6BDC02819F5E168C
:103A40002CB2000050B10000F0B49DF814409DF875
:103A500010609DF818503CB135B1C7683F78BF067B
:103A600002D50020F0BC7047069505940496F0BC82
:103A7000FFF730BE2DE9F04184B0044694469DF82E
:103A800028609DF82C209DF830009DF834E09DF8CA
:103A90003C700D4600294BD1DFF8E080D8F80010CB
:103AA00041F04001C8F80010002184F849C284F8B0
:103AB0005512BCF1000F2AD163692021197012B987
:103AC00094F84A22D2B210B994F84B02C0B294F8DA
:103AD000981294F8996202960346CDF800E001919D
:103AE00020462946FFF7B0FF0E9A23492046FFF7EC
:103AF0004FFF3A4629462046FFF798FE94F8493290
:103B000063B3A368C0221A7004B0BDE8F081616994
:103B1000CEB14FF0280C81F800C09E42216823D915
:103B20005B00DBB20B707600E369F6B21E70C6E78D
:103B30000129B9D1DFF84480D8F8001041F08001A4
:103B4000C8F80010B0E74FF0200C81F800C02168E1
:103B50005B00DBB20B70E3691E70B0E7A3688022E4
:103B60001A7004B0BDE8F0817600F6B20E705E0007
:103B7000E369F6B21E70A2E7006CDC0234800440F8
:103B80002DE9F041154682B004460F46984601F0F3
:103B9000F5FB0DB9D4F8785201F0F0FBA3681A7860
:103BA0009206064609D5B4221A70304B1B78002BBA
:103BB00035D0012002B0BDE8F08155BBE3681B7829
:103BC00003F0200303F0FF02002BF6D1A36884F872
:103BD0004922B0221A70A3681B7803F0200303F077
:103BE000FF00002BE1D1062384F85532D4F890323F
:103BF000013304D0D4F890320133C4F89032D4F8B1
:103C00007032002BD6D001909847019802B0BDE8E1
:103C1000F08101F0B3FB801B8542CFD8DBE794F83D
:103C20004832013B012BC4D801F046FA8FB1012F75
:103C30000FD10F4B1B788342BBDB0F2812DD5FB126
:103C4000012F09D1A0F11003094ADBB238461370E5
:103C5000B0E7084B1B78EEE7A0F11003054ADBB292
:103C60001370A6E7012088F80000A3E7D49EFF1F89
:103C700019E400E018E400E00369490083F83C110E
:103C8000036900220121C3F84412027183F855220E
:103C9000704700BF2DE9F043054683B0D0F84402D9
:103CA00000248DF8074070B190461C460BB9D5F83A
:103CB0007842EB6812221A7028460DF1070322465B
:103CC000FFF75EFF10B903B0BDE8F08395F8483206
:103CD000BBB19DF80720A2B9591E0129F3D80821CC
:103CE000022B85F8551285F85482C5F8402200F061
:103CF000A180AB68F0221A702B6995F83C211A70EC
:103D0000E1E701F03BFB082385F85532D5F8447212
:103D100085F8548206465FB305F23B1800274FF042
:103D20000209002C44D12B6918F8012F1A70EA6897
:103D30001378980737D4002CFAD001F01FFB801BB2
:103D40008442F4D8EB6883F8009001F017FB801BE5
:103D500084420BD9EA681378DBB2D9063AD4DB0780
:103D60004AD4D5F844320137BB42DAD895F85482A8
:103D7000AB68B8F1010F0CBF8022B0221A70D5F8E1
:103D80004432BB421AD9012385F85532D5F8803226
:103D9000013304D0D5F880320133C5F88032D5F82C
:103DA00070329BB98FE782F80090002CD2D0CCE71C
:103DB00001F0E4FA801B8442B5D8D7E7D5F8603229
:103DC000002285F85522002B3FF47DAF984703B0C1
:103DD000BDE8F0831023042185F855121370AB68F9
:103DE00080221A70D5F88C320133D8D0D5F88C32B5
:103DF0000133C5F88C32D2E77FB9022385F85532FA
:103E0000D5F88432013304D0D5F884320133C5F8B3
:103E10008432AB6880221A70C1E7032385F85532DB
:103E2000D5F888320133F4D0D5F888320133C5F89B
:103E30008832EEE7D5F84432042B7FF65AAFD5F836
:103E4000741201200C6885F85E02D5F84432E271E4
:103E50000E68A08005F59F772760B0600C68033B73
:103E600098B2E08309685B42E360C882D5F87412B7
:103E700028690B68B0F1804F9A7118619A820B68BB
:103E800001D39A6812B901229A600B6800229A61E4
:103E90002FE700BF2DE9F04182B000258DF80750D3
:103EA0009DF82070099E2BB1B3F5827F05D30523C1
:103EB00080F8553202B0BDE8F081C0F83451C0F846
:103EC0005832C0F838510EB9D0F87862C3689046BD
:103ED00012221A700DF1070332460446FFF750FE16
:103EE0000028E7D094F848321BB19DF80720002A3B
:103EF00051D001F043FA4FEA480343F0010322692D
:103F000084F85472DBB2092184F855120546137007
:103F1000E26813789B071ED4002EFAD001F02EFA27
:103F2000401B8642F4D8E36802221A7001F026FA98
:103F3000401B864213D8A26801238021117084F8A7
:103F40005532D4F8803201331FD0D4F88032013397
:103F5000C4F8803219E002231370002EE6D1E26823
:103F60001378DBB2D9062CD4DF073CD5A368022135
:103F7000802284F855121A70D4F88432013304D0A8
:103F8000D4F884320133C4F88432D4F87032002B70
:103F900090D098478EE7591E01298BD80921022B12
:103FA00084F8547284F8551200F0E080A268F02181
:103FB00011704FEA480343F001032269DBB213702A
:103FC00078E71023042184F855121370A368802227
:103FD0001A70D4F88C320133D7D0D4F88C32013334
:103FE000C4F88C32D1E7D4F858320A22012BA368E6
:103FF00084F855220CBFA822A0221A7023691B78CE
:104000004FF00008B027D4F85832D4F838219A423B
:10401000BFF450AF94F855320A2B7FF44BAFE268EF
:10402000137898073CD4002EFAD001F0A7F9401B72
:104030008642F4D8E36802221A7001F09FF9D4F89E
:104040003821D4F85832401B911C86428CBF002284
:104050000122994206D086422FD894F85D22002A88
:104060004CD10122A368A8211970D4F83811D4F8D2
:1040700058320131994226D2002A5AD094F85D3242
:10408000002B3DD1D4F838312269591CC4F83811BD
:104090002344127883F83020012384F85D32B2E79C
:1040A00002231370002EC8D1D4F83821D4F8583226
:1040B00002329A4201D13246D4E7D4F83821013293
:1040C000934236D80022A36884F85D821F7023696A
:1040D0001878D4F83831E1180133C4F8383181F850
:1040E000300094F85432012B1CD06ABBD4F86432EF
:1040F00084F85522002B86D0984784E7D4F83821DD
:10410000A36884F85D821F7023691978D4F8383168
:10411000E2180133C4F8383182F8301094F8542290
:10412000012A11D12023013BFDD1A3688021197000
:10413000DBE7D4F838212169501CC4F83801224447
:10414000097882F8301060E7012384F85532D4F8FA
:104150008032013304D0D4F880320133C4F8803285
:10416000D4F87032002B97D0984795E7D4F858329E
:10417000042B7FF61BAFD4F874322069196801252F
:1041800084F85E52B0F1804FCA718A8008601A6864
:1041900001D3916811B9012191601A68D4F87412A1
:1041A000D4F8583208680025D56085710E6804F18E
:1041B0003002012502618582B5600868013B9AB230
:1041C000C28309685B428361CA82EFE6036993F8A0
:1041D0005532013B052B0CD8DFE803F00307090338
:1041E0000503042070470120704702207047032018
:1041F00070470079003018BF0120704770B5154630
:10420000044601F0BBF80DB9D4F8785201F0B6F8C5
:10421000064694F85532072B1AD9002DF9D001F033
:10422000ADF8801B8542F4D801F0A8F8801B8542C8
:1042300010D894F84832022B0CD194F85E324BB16E
:1042400094F85532072BFBD8012384F8553201E04E
:10425000002DE9D194F85532072B02D9012384F8B7
:1042600055328023013BFDD194F85502B0FA80F01D
:10427000400970BDF8B5069E0C46154607461A461D
:10428000294620463346FFF705FD3246294620469B
:10429000FFF7B4FF3846BDE8F840FFF797BF00BF0F
:1042A000F0B583B09DF8206013B9002003B0F0BDD5
:1042B000099F04460D468DE8C000FFF7EBFD099A03
:1042C00029462046FFF79AFF0028EED0D4F838019F
:1042D00003B0F0BDD0F83421D0F838319A4208D27A
:1042E000D0F834315A1C0344C0F8342193F830001C
:1042F00070474FF0FF3070472DE9F041C04E3378E2
:1043000004460133DBB2C068A768337005783B7898
:10431000DBB203F0200282B0EDB23AB313F0100F1B
:1043200094F85E327AD0022B00F0D88094F85E3296
:10433000032B00F0D38094F85532082B00F029822B
:1043400094F85532092B00F0648294F85532012B11
:1043500000F0D38180233B70E36802221A70337827
:10436000013BDBB2337002B0BDE8F08102F0FF0820
:10437000EA0624D405F0400202F0FF0E1ABB03F057
:10438000100303F0FF02002B00F0838015F00105FD
:1043900040F0A881D4F84022D4F844329A4207D29F
:1043A000D4F840325A1C2344C4F8402293F83C51BC
:1043B00023691D70A368D0221A70E0686EE0102394
:1043C00003706806C8D594F855320C2B00F00981AB
:1043D00005F0040505F0FF07002D64D0A368002157
:1043E000D0220B2084F85502C4F844121A702269B6
:1043F000D4F86C1213785B0884F8563209B18847F8
:104400002269D4F84432002B00F0748194F83C8186
:1044100082F800800123C4F840329DE7022B00F0AF
:10442000A68094F85E32032B00F0A180D4F83831D6
:10443000D4F858220233934200F04F8194F8553259
:10444000012B00F04581D4F838310133934280F0DC
:10445000198194F85532012B00F00F81D4F83831CE
:104460002269591CC4F838112344127883F830208B
:10447000E36802221A7094F85532DBB2012B7FF404
:104480006EAF94F85D22002A7FF469AF84F85D3244
:1044900065E794F855320C2B00F09C8102230370E1
:1044A00002B0BDE8F081574B574A94F84B0284F8AC
:1044B0005C72002914BF11461946032200F07AFEEF
:1044C000A3680C21C02284F85512C4F838711A7000
:1044D00023691B785B0884F856323DE7D4F87422D0
:1044E00013689B8B190604D594F85E32022B00F0FA
:1044F000B88094F85E32032B00F08E80434B127923
:104500001968012393400B423FF429AF4049414BC6
:104510000A70D4F87412097919700022072384F8FC
:104520005E2284F85532D4F89432013304D0D4F8A2
:1045300094320133C4F89432EA0611D5042384F886
:104540005532D4F88C32013304D0D4F88C32013394
:10455000C4F88C32E268102100231170C4F8403294
:10456000A36880221A70E36802221A7032E0D4F83D
:1045700074321A68928B120603D594F85E22022ACE
:1045800063D094F85E22032A00F0DA801F491A797A
:104590000968012393400B423FF4E1AE1C491D4BD7
:1045A0000A70D4F8742212791A70A368802200204D
:1045B000072184F85E0284F855121A70E36802221B
:1045C0001A70D4F89432013304D0D4F89432013301
:1045D000C4F89432D4F87032002B3FF4C0AE984740
:1045E000BDE6D4F86832002B3FF4F2AE0022C4F8E6
:1045F0003421D4F83801019198470199E8E600BFC9
:10460000D49EFF1FF9490000054A00002C8000409D
:104610001E8000401F80004003781906FCD5C14B66
:1046200012791A70002384F85E32D4F8443221697A
:10463000013BC4F84032D4F840322344022293F8BC
:104640003C310B70E3681A7089E6B7491B790B702F
:10465000A368E8211970E368032184F85E121A70D8
:104660007DE6B14912790A70A268F0211170E26802
:10467000032184F85E12137071E694F85D32002B0A
:104680003FF4ECAEA3680021B02284F85D121A70EA
:10469000D4F838312269591CC4F8381123441278EF
:1046A00083F8302094F85432012B00F0C480E36882
:1046B00002221A7094F85532012B33D0D4F86432A8
:1046C000002284F85522002B3FF4D5AE9847D2E65D
:1046D00094F85D32002B7FF4B6AEE8233B70D4F83B
:1046E0005822B0E6C0233B702369E0681B7884F849
:1046F00055E2D3E684F83C318AE694F85432012B33
:104700000CBF8023B0233B70E36802221A70D4F8F8
:10471000803201333FF45EAFD4F880320133C4F805
:10472000803257E7D4F88032013304D0D4F8803295
:104730000133C4F88032D4F87032002BC6D19AE627
:10474000784A1B791370A3680021B02284F85E12A6
:104750001A70D4F858322269013BC4F83831D4F8C1
:104760003831591CC4F838112344127883F83020AA
:1047700094F85432012B00F0C180E36802221A70D1
:10478000D4F86432002284F85522002B7FF427AF3E
:10479000E5E505F0100303F0FF02002B52D00023E3
:1047A0000421102284F85E3284F855120270A26847
:1047B00080211170E268C4F8403202231370D4F8EB
:1047C0008C3201333FF406AFD4F88C320133C4F895
:1047D0008C32FFE6554B564D84F85C22002914BFFD
:1047E00029461946032294F84B0200F0E3FC2369A2
:1047F0001B78D4F83821B2F5817FDBB207D8D4F822
:104800003821A1180132C4F8382181F83030E0682D
:1048100044E6EB062ED50422102384F855220370BB
:10482000A36880221A70E36802221A70D4F88C32CE
:104830000133C9D1CEE62023013BFDD1A3688022FC
:104840001A7034E715F0010528D084F85E22D4F8F8
:104850004032002B59D1022384F85532D4F88432E7
:10486000013304D0D4F884320133C4F88432802375
:104870003B7078E6E9072CD50223802284F8553274
:104880003A70E2681370D4F8843201333FF4A2AE78
:10489000D4F884320133C4F884329BE6D4F8403231
:1048A0000133C4F84032D4F84422934242D394F8FE
:1048B000543284F85552012B0CBF8023B0233B7037
:1048C000E36802221A70D4F86032002B7FF487AEBE
:1048D00045E594F85E32012B34D0D4F85832012BE0
:1048E0004FF00A020CBFE823E02384F855223B7006
:1048F0002269E368127802221A7030E52023013B16
:10490000FDD1A36880221A7037E7032384F855325B
:10491000D4F888320133AAD0D4F888320133C4F8ED
:104920008832A4E71C8000401F800040F949000045
:10493000054A000094F85E32012B12D0D4F84032C0
:1049400021697AE60223E12284F85E323A70D4F8D3
:1049500074120C4A097911702169E26809781370A0
:10496000FDE40223F12284F85E323A70D4F8741226
:10497000044A09791170226994F83D111170E268B6
:104980001370ECE41B80004000210148FFF7B4BC29
:104990004888FF1F01210148FFF7AEBCE48AFF1FD2
:1049A000C3681B7803F020035BB190F85C320133DD
:1049B000DBB2012B80F85C3217D990F84B0200F083
:1049C00075BC70B503F0FF05044680F8555290F8A9
:1049D0004B0200F06BFCD4F868325BB1C4F8345180
:1049E000D4F83801BDE87040184790F84932012BDF
:1049F000E3D1704770BD00BF00210148FFF7D0BF71
:104A00004888FF1F01210148FFF7CABFE48AFF1F42
:104A10002DE9F843134BDFF85C90DFF85C80124E11
:104A2000124D1E6000244FF47A774A4641461C71AD
:104A30001C739F6018465C731D6104F041FF0C4BB2
:104A40004FF0010E05F527751C711C7383F80DE0FE
:104A50004A46414618461D619F601E60BDE8F84306
:104A600004F02EBFC09EFF1F34B100004888FF1F16
:104A7000AC9EFF1FFC87FF1F51360000644A654B48
:104A80002DE9F04F644EDFF8A0A1644CDFF890915F
:104A9000A2FB00524FEA124C0CF10407A3FB0025C5
:104AA000A6FB0062A7FB0AAB6D09D20AA3FB056354
:104AB000A4FB0264CBEB07060BEB56065B09B608BA
:104AC0002409C6EBC606C3EB031304EB4404A5EBB1
:104AD0008303BE1BC5EB0515A2EBC402A0EB85004A
:104AE000013600248A7008704B70CE70224640F266
:104AF0006D1B4FF064084FF4C87A0EE0C6EBE51565
:104B00000AFB153570BB002D14BF58464FF4B77023
:104B10000244944504F1010413D3E7B207F2B273DF
:104B200089FB0305DE17C6EB651013F0030E08FBC7
:104B30001030E3D040F26D100244944504F10104BA
:104B4000EBD28F71BEF1000F0FD13548DE1780FB1D
:104B50000340C6EB6014642505FB1434BCB34FF46A
:104B6000B77405E04FF4B770D2E740F26D14DE176A
:104B70002B482C4D80FB0370C6EB6018121BC6EB54
:104B8000E01664244FF4C87000FB163604FB183896
:104B9000C2EB0C020120002302E00130C0B201335D
:104BA000012BDFB220D05C5D944209D80C28A2EB27
:104BB0000402F2D10D2701320A714F71BDE8F08F66
:104BC0000137FFB201320A714F71BDE8F08F4FF427
:104BD000C874C6EBE01004FB1030002840F26D14DE
:104BE00008BF4FF4B774C3E7BEF1000F0AD1B8F1A4
:104BF000000F0BD1002E14BF1C241D24A24203D38E
:104C0000121BCAE71C24F9E70227D4E71D24F5E7A5
:104C100007452EC289888888C5B3A291ABAAAAAAE3
:104C20001F85EB5164B200002549922410B5034959
:104C30000446FFF723FF024B1C6010BDDC9EFF1FE4
:104C4000D89EFF1FF0B5204C204E23683268204DBF
:104C500083B028680093009B9B1AB3F57A7F0FD32B
:104C6000013000E0084623680093009B02F57A7249
:104C70009B1AB3F57A7F00F10101F3D2286032600C
:104C8000144F3B6898420FD3134B1B6863B198478E
:104C9000124B58B912491A680B782868003302443D
:104CA00018BF01233A600B7003B0F0BD2268019277
:104CB0001B680B4A019C28600344022134603B605E
:104CC000117003B0F0BD00BFFC9EFF1FF09EFF1FE0
:104CD000E49EFF1FF49EFF1FEC9EFF1F808DFF1FB1
:104CE000E89EFF1F08B5FFF7ADFF044B1B68984215
:104CF00001D0FFF79BFF024B987808BDD89EFF1F9D
:104D0000DC9EFF1F08B5FFF79DFF044B1B68984210
:104D100001D0FFF78BFF024B587808BDD89EFF1FCC
:104D2000DC9EFF1F08B5FFF78DFF044B1B68984200
:104D300001D0FFF77BFF024B187808BDD89EFF1FFC
:104D4000DC9EFF1F08B5FFF77DFF044B1B689842F0
:104D500001D0FFF76BFF024B187908BDD89EFF1FEB
:104D6000DC9EFF1F08B5FFF76DFF044B1B689842E0
:104D700001D0FFF75BFF024B587908BDD89EFF1F9B
:104D8000DC9EFF1F08B5FFF75DFF054B1B689842CF
:104D900001D0FFF74BFF034B987900F2B27008BDCA
:104DA000D89EFF1FDC9EFF1F70B40A4B0A4A1B6887
:104DB00012680A4E0A4D0B49306083B010440193CB
:104DC000019C094B286002220C601A7003B070BC71
:104DD000704700BFFC9EFF1F808DFF1FE49EFF1FDA
:104DE000F49EFF1FF09EFF1FE89EFF1F08B5FFF710
:104DF00029FF014B187808BDE89EFF1F0349044AAC
:104E0000044B096811601860FFF71CBFE49EFF1F88
:104E1000F49EFF1FEC9EFF1F844641EA000313F03F
:104E200003036DD1403A41D351F8043B40F8043BB1
:104E300051F8043B40F8043B51F8043B40F8043B74
:104E400051F8043B40F8043B51F8043B40F8043B64
:104E500051F8043B40F8043B51F8043B40F8043B54
:104E600051F8043B40F8043B51F8043B40F8043B44
:104E700051F8043B40F8043B51F8043B40F8043B34
:104E800051F8043B40F8043B51F8043B40F8043B24
:104E900051F8043B40F8043B51F8043B40F8043B14
:104EA00051F8043B40F8043B403ABDD2303211D3B4
:104EB00051F8043B40F8043B51F8043B40F8043BF4
:104EC00051F8043B40F8043B51F8043B40F8043BE4
:104ED000103AEDD20C3205D351F8043B40F8043BB4
:104EE000043AF9D2043208D0D2071CBF11F8013BB2
:104EF00000F8013B01D30B8803806046704700BF78
:104F0000082A13D38B078DD010F003038AD0C3F186
:104F10000403D21ADB071CBF11F8013B00F8013B68
:104F200080D331F8023B20F8023B7BE7043AD9D327
:104F3000013A11F8013B00F8013BF9D20B780370FC
:104F40004B7843708B7883706046704730B4294843
:104F5000294A2A4B2A4D6024E121047011701B78E4
:104F6000284C082B30D00A2B2748284937D00C2B47
:104F70000CBF35223D2212232A60236002600B60A1
:104F8000234B24491B78244ABBB101230B601360D7
:104F9000224B23491B78234A012B26D9042B0FD9F6
:104FA000082B1ED9102B94BF862387230B60136018
:104FB0001D4B01221A7030BC70470B601360E7E78D
:104FC00084230B601360F3E700F58E200F4908304F
:104FD000012213232A60236002600B60D0E739228C
:104FE000F7E785230B601360E2E780230B60136013
:104FF000DEE700BF0040074001400740848DFF1FEF
:1050000008B003400CB0034008B00B400CB00B409C
:10501000F99EFF1F20B0034020B00B40858DFF1F7D
:1050200024B0034024B00B40F89EFF1F08B5104C7D
:1050300008E0236859050DD423681A050FD42368A6
:10504000DB0411D423685803F3D500F051FB236827
:105050005905F1D502F0A2F823681A05EFD502F040
:1050600033F92368DB04EDD502F0C4F9EAE700BFA9
:105070003480044008B5FFF7D9FF00BF014B102270
:105080001A80704700200540704700BF094908B5E5
:105090000B6830B16A461844A2F58052904202D2A1
:1050A0000860184608BD04F01BFC0C2303604FF099
:1050B000FF3008BD888DFF1FEFF3138070B9EFF349
:1050C00010836BB9EFF305825AB94FF48070EFF398
:1050D00011832BB1984228BF184670474FF0FF301C
:1050E00070470F2A01D81846F1E7014BD05CEEE774
:1050F000F0E300E0704700BF10B40F4B53F83020CE
:1051000092F880422CB1012369B182F8803010BC42
:10511000704703EBC0035B681A6841B922F00202D2
:105120001A6010BC704782F8003110BC704742F022
:1051300003021A6010BC704770B200001C4A02EBF8
:10514000C00301295B6811D004291BD052F830003C
:10515000002280F8802229B1022920D0032922D000
:105160001A6070474FF480721A60704752F830002E
:105170004FF4A27280F880121A601A6822F020029E
:105180001A60704752F830104FF4A272012081F873
:1051900080021A601A6842F020021A60704740F2DA
:1051A00003121A6070474FF481721A60704700BF93
:1051B00070B20000212848D8F8B5042A44D8DFE8A6
:1051C00002F0484B4E0345004FF410262B4B03EBE7
:1051D000C0030D465C68216811F4E06148D0284B9B
:1051E000284A2949C3F89C2104F140422748C3F8C2
:1051F000A411A2F59221264FC3F8A0017C292548CD
:10520000C3F8A871C3F8AC012CD9A2F594237C2B68
:105210002AD9A2F596237C2B28D9A2F598237C2B9A
:1052200029D9A2F59A227C2A27D81B4872B623686E
:1052300023F4702343F08072C4F384011643236087
:1052400040F82150266062B6F8BD70474FF4302612
:10525000BCE74FF40026B9E74FF44026B6E74FF419
:105260002026B3E70D48E1E70D48DFE70D48DDE70D
:10527000FFF764FFB3E70C48D8E7F8BD70B2000051
:105280000082FF1FD187FF1F7987FF1FA587FF1FA0
:105290004D87FF1F2187FF1F648EFF1F8C8DFF1F0F
:1052A000C48DFF1F148EFF1F448EFF1F1A4B03EB8C
:1052B000C00010B4426802F14043A3F592217C295A
:1052C00023D9A3F594217C290DD9A3F596217C2916
:1052D0001FD9A3F598217C2919D9A3F59A237C2BF2
:1052E00011D80E4C00E00E4C72B613680D4823F036
:1052F0008773C2F3840123F4803343F08073136017
:1053000044F8210062B610BC7047074CECE7074C2C
:10531000EAE7074CE8E700BF70B20000648EFF1FA9
:10532000C48DFF1FF55000008C8DFF1F448EFF1FA2
:10533000148EFF1F014B1868704700BF00D0034058
:1053400030B4054B054D064C002210211A602A602E
:105350002060196030BC704714D0034004D0034073
:1053600000D00340212801D8FFF7C6BE704700BF18
:10537000212801D8FFF7E2BE704700BF72B60C4982
:105380000C4B0D4A1B680868126862B6520102D5C0
:10539000322B88BF01300949C3F5BB334FF47A7211
:1053A000FF33A1FB031302FB00F000EB93107047E7
:1053B000FC9EFF1F18E000E004ED00E0ABAAAAAAE3
:1053C0002DE9F843054672B6204F214B214A1B6850
:1053D0003C68126862B6520102D5322B88BF013494
:1053E00095B3C3F5BB331C4EDFF86490DFF86480DF
:1053F000FF334FF47A72A6FB031302FB04F404EBB1
:10540000931472B6D9F800103A68D8F800E062B682
:10541000C1F5BB33FF33A6FB03031EF0806FC4EB63
:1054200093134FF47A7002D0322988BF013200FB07
:105430000233B3F57A7F04D3013D05D004F57A74C5
:10544000DFE701F015FEDCE7BDE8F883FC9EFF1FF7
:1054500018E000E004ED00E0ABAAAAAAF8B52D4BD5
:105460002D49DFF8D0E0DFF8D0C02C4E2C4D2D4C6C
:105470002D4A2E4F4FF4000018604FF080701860D6
:105480004FF0007018604FF0806018604FF00060BF
:1054900018600020086028234BF6FF71CCF800103C
:1054A000CEF80030336013602B6023603B60B36242
:1054B0009362092245F8242CC4F8D80F05F57F65BE
:1054C000C7F8D41F07F5FF2707F5FA67C6F8F83FB6
:1054D0002B6006F5FF26C4F8D42F05F5FD2504F54D
:1054E000FF24386006F2F4761148316005F5FF6557
:1054F00004F5FD642B6023600260FFF727FD19208F
:10550000FFF75EFF00F05CFE40F21310BDE8F840CC
:10551000FFF756BF08E100E0048003401480034019
:10552000248003402C8003401C80034034800340CF
:1055300000800B400C80034008800340431E032B77
:1055400014D872B60A4951F8230068B170B4094CF6
:10555000058834F81320466841F82360521B24F86C
:10556000132062B670BC704762B670470020704767
:10557000589FFF1FE8A1FF1F013803280BD872B600
:10558000074B53F8203043B100205B680130002BFB
:10559000FBD162B67047002070471846F9E700BF9C
:1055A000AC9FFF1F30B472B62B4A13781D0706D587
:1055B0002A4B196A002936D0996A002941D05378BC
:1055C0001C0706D5254B196C00293ED0996C002983
:1055D00039D09378190705D5204B196E002936D09C
:1055E000996E89B1D3781B0707D51C4BD3F880205F
:1055F0007AB3D3F8882011213AB162B6184B002251
:105600001A7030BC00F068BE0D21154C154D227883
:1056100043F8315003EBC1030830013A586022705F
:1056200062B630BC704704220D4C0F4D217843F810
:10563000325003EBC20308304A1E5860227062B633
:10564000EFE70521E1E70921DFE70822ECE70C227B
:10565000EAE71022E8E700BFB8B300000080FF1FB0
:10566000D59FFF1FC800400088004000431E032B49
:105670001DD81B4A400140F0100030B4104472B6EF
:10568000184CE25C032A1BD8DFE802F0021215175F
:1056900003220D88E25410F0080F14BFC82388239A
:1056A00043EA054308310360416062B630BC70478D
:1056B00008300222EDE70522EBE708300422E8E794
:1056C000094A52F8230038B1084A52F823004160D1
:1056D00042F8231062B6E9E742F82310034AF7E7DD
:1056E0000080FF1FE49FFF1FAC9FFF1FBC9FFF1F99
:1056F0002DE9F04FDFF80CB3DFF80CA387B044E0DE
:10570000AB4F4FEA930807EBC809013ED9F80420D4
:1057100003F00803F6B2A2F1080003F0FF04002B27
:1057200040F0028157F838301B0C99B222F8081C5F
:10573000002B00F0F0809F4B22F8064C42F8044CFE
:1057400053F82620002A00F0C5829B4D55F82630DC
:1057500058609A4C45F8260034F81630194424F85D
:10576000161000F099FD002800F0AD82944A954B88
:1057700019F0080F00F1080018BF1346C9F804001B
:1057800047F8383008238BF800309BF80040E4B22B
:1057900061071AD58C4B1B78A3B18C490A7802F0AB
:1057A000FF0322B1013BDBB20B7003B900BE884995
:1057B0000A7802F0FF032AB1013BDBB20B70002B29
:1057C00000F0578204238BF8003004F0080303F044
:1057D000FF02002B00F0CC809AF80030DBB21E09EB
:1057E0008ED19C08DFF8C89159F8342009EBC40128
:1057F000C2F38302013A49680C2A00F28880DFE88C
:1058000002F07C7C868686868686478686860700AA
:105810000868704D4A68704F704E286081B240F23F
:105820008160674B6A604FF0010E0022814249F8A7
:1058300034303A60C9F81020C9F8182086F800E022
:105840005B4C00F2E380B1F5D06F80F04683B1F598
:10585000817F00F0FC8200F28D82802900F0778346
:10586000822940F0FA82A98801F07F01042900F220
:10587000F4825B485B4C89000844227062700278B5
:10588000930740F1588484F800E04FF0020E42E3A1
:10589000514F3A6832B3544B504E544918883478BB
:1058A0000D784028864645F0020828BF4FF0400E8C
:1058B000002C84F001043470CEEB00000CBF88246F
:1058C000C82409EBC80680B285F0010544EA0E44FD
:1058D0007260188049F8384072440D70002800F05A
:1058E00045813A603B4B1A88B2F5A06F0FD1002179
:1058F0009A7859703E4B1A7009E0364A108842F285
:105900002102904200F037812D4A49F83420394A6B
:105910000123137036E72A4A2A4B19F0080F18BFE3
:10592000134647F838302DE700F0D6FC324A3349A9
:1059300052F82630002B00F0D18158688C5D42F877
:10594000260003F10802C9F80420032C05D8DFE87B
:1059500004F02C02292602228A551A8819F0080F11
:105960000CBF8823C82343EA024347F8383009E7CD
:10597000E00700F18181210600F1F281A20706D53E
:105980001F4A204913780220DBB213700870E30627
:1059900002D51C4B10221A7007B0BDE8F08F04220C
:1059A0008A55DAE705228A55D7E703228A55D4E7D4
:1059B0000080FF1F589FFF1F049FFF1FE8A1FF1FCC
:1059C000C800400088004000E09FFF1F699FFF1F44
:1059D000E89FFF1FCC9FFF1F009FFF1F689FFF1FB7
:1059E000C0200740D89FFF1F149FFF1FD49FFF1F99
:1059F0009820074094200740AC9FFF1FE49FFF1FA3
:105A000088200740802007409020074042F2210074
:105A1000814200F02A8100F2D880B1F5086F00F0D1
:105A20007682B1F5106F40F01882226AB349A878E7
:105A30000870120600F13A83D9F82820B0491306FD
:105A400000F10C83D9F83020AD49150600F101832F
:105A5000D9F83820AA49140600F1F682D9F8402076
:105A6000A749100600F14A83D9F84820A449120634
:105A700000F13F83D9F85020A149130600F1348387
:105A8000D9F858209E49150600F12983D9F86020DD
:105A90009B49140600F11E83D9F868209849100626
:105AA00000F11383D9F870209549120600F108839C
:105AB000D9F878209249130600F1FD82D9F88020A8
:105AC0008F49150600F13183D9F888208C491406D6
:105AD00000F12583D9F890208949100600F1198337
