:1000000000800020BD010000D939000091390000B6
:1000100091390000913900009139000091390000B8
:10002000913900009139000091390000D939000060
:10003000D9390000913900001D4F00002150000007
:10004000D9390000D9390000D9390000D939000068
:10005000D9390000D9390000D9390000D939000058
:10006000D9390000D9390000D9390000D939000048
:10007000D9390000D9390000D9390000D939000038
:10008000D9390000D9390000D9390000D939000028
:10009000D9390000D9390000D9390000D939000018
:1000A000D9390000D9390000D9390000D939000008
:1000B000D9390000D9390000D9390000D9390000F8
:1000C000D9390000D9390000D9390000D9390000E8
:1000D000D9390000D9390000D9390000D9390000D8
:1000E000D9390000D9390000D9390000D9390000C8
:1000F000D939000071590000D93900009D5A00001B
:10010000D9390000C95B0000D9390000D939000095
:10011000D9390000D9390000D9390000D939000097
:10012000D9390000D9390000D9390000D939000087
:10013000D9390000D9390000D9390000D939000077
:10014000D9390000D9390000D9390000D939000067
:1001500035500000495000005D5000007150000013
:10016000D9390000513F0000D9390000D9390000C9
:10017000D9390000D9390000D9390000D939000037
:10018000D9390000D9390000D9390000D939000027
:10019000D9390000D9390000D9390000D939000017
:1001A000D9390000D9390000D9390000D939000007
:1001B000D9390000D9390000D9390000564B4CF22A
:1001C000205210B51A804DF628121A8000BF00BFC9
:1001D00003F006FC514B4FF010621A60504A9A60CF
:1001E000504ADA60504A136813F4807304D14F49BF
:1001F0000B604FF4A85313604D4B1A78110703D5C9
:100200001A7842F008021A704A4B4B492A221A7097
:100210004A4A4B4B8B4204D252F8040F43F8040B6A
:10022000F8E7484B484900228B4202D243F8042B9E
:10023000FAE74649464A002352F8230041F82300D2
:1002400001336F2BF8D1434B434A802103F8011B44
:100250009342FBD1414B3D4A1A60414B8A221A70AE
:10026000A3F5805324225A70A0221A709A7992071B
:10027000FCD59A79D406FCD43A4A937903F00C035E
:10028000082B384BF9D103221A7140225A719A79FE
:100290009006FCD5334A9179324B4906FBD5324A58
:1002A000324911600221516020221A709A7902F0BD
:1002B0000C020C2AFAD12E4B2E4A1A602E4B2F4AD2
:1002C0001A6000225A60072243F8042C2C4AC3F813
:1002D0000C2D62B603F0F2FC144B1B68DA0705D54F
:1002E000284803F07FFC284B284A1A60284B1B78CB
:1002F0005B0609D5244C254B22689A4204D121483B
:1003000003F070FC0023236006F01CFB03F06EFB7F
:1003100005F01CFAFEE700BF0E20054030800440C7
:10032000823F04000100002B10D0034014D0034092
:1003300002D0074000E007402C92FF1F48830000D6
:100340002087FF1F2C92FF1F4899FF1F0082FF1F6D
:100350000000000000E400E05FE400E008ED00E0E1
:100360000050064000400640448004400000030165
:1003700004800440C010050014E000E0FF76010096
:100380000000202068B998621CE00340A5C3945A7D
:1003900000F00740FFFFFFFFFFFFFFFFFFFFFFFF32
:1003A000FFFFFFFFFFFFFFFFFFFFFFFFFFFFFFFF5D
:1003B000FFFFFFFFFFFFFFFFFFFFFFFFFFFFFFFF4D
:1003C000FFFFFFFFFFFFFFFFFFFFFFFFFFFFFFFF3D
:1003D000FFFFFFFFFFFFFFFFFFFFFFFFFFFFFFFF2D
:1003E000FFFFFFFFFFFFFFFFFFFFFFFFFFFFFFFF1D
:1003F000FFFFFFFFFFFFFFFFFFFFFFFFFFFFFFFF0D
:10040000FFFFFFFFFFFFFFFFFFFFFFFFDEF9FFFF23
:1004100010B5054C237833B9044B13B10448AFF33E
:1004200000800123237010BD2C92FF1F00000000EC
:100430004C830000084B10B51BB108490848AFF3C6
:1004400000800848036803B910BD074B002BFBD0A0
:10045000BDE81040184700BF000000003092FF1FA9
:100460004C8300002C92FF1F0000000003F0B4BB7F
:10047000BAB1F8B517460E460546002401212846B4
:1004800003F0C2FB304603F0CBFB013400212846C9
:1004900003F0BAFBE4B2304603F0C2FBA742EDD151
:1004A000F8BD704708B50549054804F0FDFF00B9DF
:1004B00008BD0348BDE8084005F028B81C7C0000D2
:1004C0003889FF1F30B58DB00D4604460A226846B4
:1004D00005F092F8092D0DDD6946124805F0BEF8C9
:1004E0001049204605F06AF8684605F013F82046E2
:1004F0000DB030BD04A80C4905F04CF8694604A8BD
:1005000005F0F4F8014608A805F058F808A90548D0
:1005100005F0ACF808A804F0FDFF04A804F0FAFF09
:10052000DEE700BF9893FF1F207C000030B59DB030
:10053000044600F0D1FB01466846FFF7C3FF00F018
:10054000DBFB014604A8FFF7BDFF00F0E5FB014619
:1005500008A8FFF7B7FF00F0FFFB01460CA8FFF764
:10056000B1FF00F0E9FB014610A8FFF7ABFF00F078
:1005700003FC0A22014614A805F03EF810A918A8A9
:1005800005F01CF80CA918A805F0B0F814A905F09E
:10059000ADF81649164D05F0B1F8694605F0A6F814
:1005A00004A905F0A3F808A905F0A0F8014628461B
:1005B00005F054F818A804F0ADFF2946204604F0D1
:1005C000FDFF14A804F0A6FF10A804F0A3FF0CA8D8
:1005D00004F0A0FF08A804F09DFF04A804F09AFF0F
:1005E000684604F097FF20461DB030BD247C000013
:1005F0008893FF1FF8B5134D134B144C144F154837
:10060000154E1B22142102F0E7FE2846002104F0BB
:10061000C1FF22463946284606F082F90F4D304682
:10062000002104F0B7FF22463946304606F078F93B
:10063000284600F081FC224628460949BDE8F840DA
:1006400006F06EB98893FF1F3496FF1FFC87FF1FCB
:10065000155500004892FF1F9893FF1F6893FF1FD6
:10066000550F0000FFFFFFFF10B55D4882B000F09E
:10067000BFFB642003F0D4FA00F0B2FB022814BFE1
:10068000584859481B2104F0E3FA584804F036FD55
:1006900004F0B4FA00287CD10C21554802F0EAF9A4
:1006A0000721534802F09EF90E21514802F026FA24
:1006B0001721504804F0CCFA0A214F4800F0F8FC0A
:1006C00000285CD014214D4804F0C2FA474804F0D9
:1006D00015FD642003F0A4FA0721454802F082F9D1
:1006E0000821434802F0C6F90E21414802F006FAFB
:1006F000642003F095FA0121182003F08BFA012100
:10070000142003F087FA0121182003F07DFA0A2053
:1007100003F086FA0021182003F076FA0A2003F08D
:100720007FFA0121182003F06FFA0A2003F078FA0B
:100730001321334804F08CFA2C4804F0DFFC3148D4
:1007400002F0A8FF38B916212F4804F081FA274893
:1007500004F0D4FCFEE712212C4804F079FA234877
:1007600004F0CCFC2A49274802F034FFE8B91321F1
:10077000284804F06DFA1D4804F0C0FCFEE716217D
:10078000254804F065FA194802B0BDE8104004F0AD
:10079000B5BCFFF787FE044600283FF47DAF03F0A9
:1007A00021FA204600F0FAFA76E70D211B4804F002
:1007B0004FFA022300930D4807A3D3E9002304F066
:1007C000F7FC0A4804F09AFC0E4800220E2102B001
:1007D000BDE8104002F022BF0000000000988C40ED
:1007E0006D040000287C0000447C00003889FF1F55
:1007F0000888FF1F607C0000C893FF1F907C0000EA
:10080000A87C00004892FF1FBC7C0000D47C000044
:1008100000C06444E87C0000787C0000FC7C0000A0
:1008200070B50C2188B00546464802F023F907212F
:10083000444802F0D7F80E21424802F05FF90A213D
:10084000414800F035FC642003F0EAF93F493E4896
:1008500000F040FD002863D00026684613233B4A81
:10086000394900F0C3FC08AA3948029B12F8144D1C
:100870009DF8041083600473017100F10D031A30B8
:1008800012F8011F03F8011B8342314CF8D1079B7A
:10089000E361684600F05EFB204600F06BFB1E2122
:1008A000002835D02B4804F0D3F92B4804F026FC5F
:1008B000002E3ED16846FFF739FE6946244804F011
:1008C000F7FB684604F026FE03222449204800F086
:1008D000B9FA29461E4804F0EBFB03221F491C48C5
:1008E00000F0B0FA1E4802F0DDF90146184804F0A5
:1008F00055FC174804F002FC154800F02DFB0521BB
:10090000184804F0A5F9144804F0F8FB08B070BDCD
:10091000154804F09DF9104804F0F0FB08B070BDD4
:100920001221124804F094F90B4804F0E7FB012669
:1009300093E738220E49204600F084FA204604F05E
:10094000DDFBB7E70888FF1FC893FF1F0C7D000081
:100950006893FF1F2C7D00003889FF1F247C000056
:100960004892FF1F887D0000907D0000187D0000E8
:100970004C7D000010B53748C8B002F0B5FC08B98E
:1009800048B010BDFB230DF1030209A931488DF8D1
:10099000033002F0E5FD002853D09DF80330002B12
:1009A000EED048AA1A4400240A212B4802F8FC4C35
:1009B00004F04EF923460A229DF80310274804F05C
:1009C000ADFB0321264804F043F909A806F098FE80
:1009D000014609A804F03CF9204804F08FFB0621E9
:1009E000204804F035F91B4802F05CF901461B4829
:1009F00004F0D4FB194804F081FB09A901A804F014
:100A0000C9FD01A905A804F0D9FD05A8FFF708FF55
:100A100005A804F07FFD032228210D20FFF728FD03
:100A20000721114801F0DEFF08210F4802F022F8EB
:100A30000E210D4802F062F801A804F06BFD48B0E9
:100A400010BD0E21094804F003F9044804F056FBD8
:100A500048B010BD4892FF1FB07D00003889FF1FCD
:100A6000BC7D0000C07D00000888FF1FC87D00001D
:100A7000644A654B2DE9F04F644EDFF8A0A1644C49
:100A8000DFF89091A2FB00524FEA124C0CF10407E0
:100A9000A3FB0025A6FB0062A7FB0AAB6D09D20AE7
:100AA000A3FB0563A4FB0264CBEB07060BEB560626
:100AB0005B09B6082409C6EBC606C3EB031304EBB7
:100AC0004404A5EB8303BE1BC5EB0515A2EBC402D2
:100AD000A0EB8500013600248A7008704B70CE7040
:100AE000224640F26D1B4FF064084FF4C87A0EE0C6
:100AF000C6EBE5150AFB153570BB002D14BF584633
:100B00004FF4B7700244944504F1010413D3E7B2E3
:100B100007F2B27389FB0305DE17C6EB651013F00D
:100B2000030E08FB1030E3D040F26D1002449445F0
:100B300004F10104EBD28F71BEF1000F0FD13548E3
:100B4000DE1780FB0340C6EB6014642505FB1434FC
:100B5000BCB34FF4B77405E04FF4B770D2E740F27E
:100B60006D14DE172B482C4D80FB0370C6EB60180C
:100B7000121BC6EBE01664244FF4C87000FB163657
:100B800004FB1838C2EB0C020120002302E0013004
:100B9000C0B20133012BDFB220D05C5D944209D892
:100BA0000C28A2EB0402F2D10D2701320A714F7119
:100BB000BDE8F08F0137FFB201320A714F71BDE815
:100BC000F08F4FF4C874C6EBE01004FB103000281F
:100BD00040F26D1408BF4FF4B774C3E7BEF1000FC5
:100BE0000AD1B8F1000F0BD1002E14BF1C241D2414
:100BF000A24203D3121BCAE71C24F9E70227D4E759
:100C00001D24F5E707452EC289888888C5B3A291BF
:100C1000ABAAAAAA1F85EB51D87D000025499224D2
:100C200010B503490446FFF723FF024B1C6010BDBB
:100C3000AC93FF1FA893FF1FF0B5204C204E2368F4
:100C40003268204D83B028680093009B9B1AB3F54F
:100C50007A7F0FD3013000E0084623680093009BA1
:100C600002F57A729B1AB3F57A7F00F10101F3D293
:100C700028603260144F3B6898420FD3134B1B68B7
:100C800063B19847124B58B912491A680B78286813
:100C90000033024418BF01233A600B7003B0F0BD6B
:100CA000226801921B680B4A019C286003440221C0
:100CB00034603B60117003B0F0BD00BF5096FF1F61
:100CC000C093FF1FB493FF1FC493FF1FBC93FF1F6C
:100CD0000088FF1FB893FF1F08B5FFF7ADFF044B57
:100CE0001B68984201D0FFF79BFF024B987808BD24
:100CF000A893FF1FAC93FF1F08B5FFF79DFF044BA0
:100D00001B68984201D0FFF78BFF024B587808BD53
:100D1000A893FF1FAC93FF1F08B5FFF78DFF044B8F
:100D20001B68984201D0FFF77BFF024B187808BD83
:100D3000A893FF1FAC93FF1F08B5FFF77DFF044B7F
:100D40001B68984201D0FFF76BFF024B187908BD72
:100D5000A893FF1FAC93FF1F08B5FFF76DFF044B6F
:100D60001B68984201D0FFF75BFF024B587908BD22
:100D7000A893FF1FAC93FF1F08B5FFF75DFF054B5E
:100D80001B68984201D0FFF74BFF034B987900F2A4
:100D9000B27008BDA893FF1FAC93FF1F70B40A4B3D
:100DA0000A4A1B6812680A4E0A4D0B49306083B02C
:100DB00010440193019C094B286002220C601A70B8
:100DC00003B070BC704700BF5096FF1F0088FF1F24
:100DD000B493FF1FC493FF1FC093FF1FB893FF1F5F
:100DE00008B5FFF729FF014B187808BDB893FF1F1E
:100DF0000349044A044B096811601860FFF71CBFDF
:100E0000B493FF1FC493FF1FBC93FF1F00207047C4
:100E1000704700BF10B582B002AB026803F8011D35
:100E2000546819460122A04702B010BDC06938B10C
:100E30008369C06847F6FF72181A904228BF1046AF
:100E4000704700BFC36910B504463BB1002018715C
:100E5000E06901F02BF9E3691B791BB101232371D0
:100E6000002010BD10BD00BFC06978B100B583B0CF
:100E700001220DF1070100F0F7FE01280CBF9DF8DB
:100E800007004FF0FF3003B05DF804FB4FF0FF3078
:100E9000704700BFC369C3B110B582B004460122D8
:100EA00018460DF1070100F0DFFE012803D04FF0D6
:100EB000FF3002B010BDE0699DF80740C1680139FC
:100EC00000F084FF204602B010BD1846704700BFF6
:100ED000C06908B100F0ACBF704700BF2DE9F04118
:100EE00005464FF47A731348AB60002328602B71DA
:100EF0002B7324200C46904605F066FDE861B0B1E6
:100F0000064604F1200E20686168A268E36837464F
:100F10000FC7103474453E46F5D12068386041460D
:100F20000C2205F10D0006F059FC00236B762846D3
:100F3000BDE8F081EC7D00004FF47A7204498260D4
:100F40000022016002710273C2614273704700BFE8
:100F5000EC7D0000704700BFC36953B110B5044673
:100F6000184600F009FEE06905F036FD0023E36154
:100F700010BD7047C06918B18079003018BF0120DA
:100F8000704700BF30B58BB000240A460A4D8DF87B
:100F900008400146012301A88DF80A40019501F09F
:100FA0007BF8A04218BF012402D001A800F0E4FDA4
:100FB00020460BB030BD00BF147E0000F0B50E68B7
:100FC000835D2F2B08BF0136841902F1FF3E0025F7
:100FD00023782F2B274604F1010408D03BB10135BB
:100FE0000C2D06F101060EF8013FF1D187190023FF
:100FF00053553B782F2B04BF013687190E60387884
:10100000003018BF0120F0BD2DE9F04F99B088469F
:10101000264D069500218DF81C1083469246994670
:1010200044468DF81E108DF840108DF84210019145
:101030000F9506AE05E000F09FFDFDB12346344656
:101040001E4602AA01A95846FFF7B8FF80F0010228
:10105000D2B24B4602A905462046D0472146074654
:10106000012302AA70B13046ADB101F015F8444534
:1010700005462046DFD10DB10FACDFE7002019B0E7
:10108000BDE8F08F4445F9D0204600F075FD3846A4
:1010900019B0BDE8F08F444506D0204600F06CFD45
:1010A000012019B0BDE8F08F0120E8E7147E0000B0
:1010B00038B50A460121044600F064FA08B9002058
:1010C00038BD251D28460122214601F0B1FA40B164
:1010D000294604F12C0000F09FFD003018BF0120CC
:1010E00038BD02462146284601F0A2FA0028EFD179
:1010F000002038BD2DE9F04F99B04FF00008DFF81F
:10110000E8A08DF81C808146043106A8934601931F
:101110008DF81E808DF840808DF84280CDF818A0A3
:10112000CDF83CA000F078FD06AE5D460FAF2F2154
:10113000284606F003FA441BE4B2294608B32B788C
:101140002F2B02A81BD00C2C28BF0C24224606F003
:1011500045FB18AB2344384603F8588C00F00CFDCF
:10116000012302AA3146384600F096FF88B3304684
:1011700000F002FD334625443E461F46D7E70135C1
:10118000D5E7019831797279B379B468377DCBEBC3
:1011900005050560F068356989F8041089F80520AF
:1011A000B16989F80630F269336AC9F80C0048461B
:1011B000C9F800A0C9F80840C9F8105089F814709F
:1011C000C9F81810C9F81C20C9F8203019B0BDE8BA
:1011D000F08F89F8040089F806004846C9F800A095
:1011E00019B0BDE8F08F00BF147E0000F0B59DB0CF
:1011F00005461F4601A86B461446FFF77BFF009A81
:10120000A35C1444002B42D09DF80A202F4E0A966E
:1012100000238DF82C308DF82E30002A31D00AA80A
:101220003B46224601A900F037FF50B301A800F069
:10123000A3FC17F0060F43D19DF82C700C9B9DF872
:101240002DE0139622469DF82E408DF850708DF8B3
:10125000524015930D990E989DF83C70109E119C6C
:10126000129B8DF851E01691179013A928468DF81E
:10127000607019961A941B93FFF730FE28461DB034
:10128000F0BD2846FFF758FE28461DB0F0BD9DF87A
:1012900008700E4E9DF809409DF80A30039A8DF8AB
:1012A000507013968DF851408DF852301592049974
:1012B00005989DF81870079E089C099B044AD2E780
:1012C0000AA8109900F082FDB6E700BF147E000066
:1012D000087E000010B40C46002300F12C01024AE5
:1012E000204610BCFFF790BE850F0000064B074A52
:1012F000DA620221002259609A7083F8242083F870
:10130000302083F832207047C893FF1F147E0000FE
:10131000052823D8DFE800F0030310161C0A124B3F
:1013200012484FF038421A6001F0AABA0E4B104A28
:101330001A600E4801F0A4BA0B4B0E4A1A600B4813
:1013400001F09EBA084B0C4A1A60084801F098BA9E
:10135000054B0A4A1A60054801F092BA024B084A46
:101360001A60024801F08CBA1C94FF1F0888FF1F06
:101370000320013800000138011001380320003833
:101380000650003810B50121007802F03DFC0E4AED
:10139000137893B10D49CB7A00241846147063B1C9
:1013A000DC0703D50A4A8869106018469A0705D4F5
:1013B000430702D5074B0A6A1A6010BD064BCA697B
:1013C000C87A1A60F4E700BF2094FF1F0888FF1F47
:1013D00000E100E008E100E004E100E01E4B1A78C3
:1013E0001AB10078002102F00FBC70B41B4A1C49EE
:1013F000D47A096801251D70ECB172B6D37ADE0784
:101400001C4606D5174DD4682E68344094612C6074
:101410001C469D0706D5144D13692E68D47A3340B7
:10142000D3612B60630705D5104C536925682B40A9
:101430001362236062B61368DA688A4207D00C4CE4
:101440001C600C4AD96041F080441C611A6000782D
:10145000002170BC02F0D8BB2094FF1F0888FF1F3A
:101460001C94FF1F80E100E084E100E088E100E0DF
:1014700001403F0000003F80F0B41248124A036868
:1014800082B016460093009F4FF00045FF2413687A
:1014900043F480631360D5625463D36A002BFCDA93
:1014A000B36BDBB2FF2B09D003680193019BDB1BFD
:1014B0008B42ECD3002002B0F0BC7047012002B098
:1014C000F0BC70475096FF1F00C00240F8B50D46B3
:1014D0004FF4967116460446FFF7CEFF284B1A6864
:1014E0004FF0004042F4806245F040011A60D8623B
:1014F0001A465963D36A002BFCDA214918204FF0B1
:1015000000470A6826FA00F342F48062DBB20A6000
:10151000CF624B63CB6A002BFCDA083810F1080F5E
:10152000EFD155B3082D0CBF8721FF21144B1A684A
:101530004FF0004042F480621A60D8621A46596344
:10154000D36A002BFCDA0E4A002716464FF00045FE
:10155000FF21136843F480631360D5625163D36A3B
:10156000002BFCDAB36BD8B21B06607000D4F8BD58
:101570000137B7F5807FECD1F8BD9521D6E700BFE4
:1015800000C002402DE9F0430023934E027085B065
:101590008370336801930546884610460121019FF8
:1015A00002F032FB2878012102F034FB2878012177
:1015B00002F02AFB894A136843F480531360062023
:1015C000FFF7A6FEDFF840E2854B9EF80BC01A68D5
:1015D000BCF1000F20D072B69EF80B30DC07194624
:1015E00008D58048DEF80C1004682140CEF81810A9
:1015F00001601946980709D57B48DEF81030046869
:101600009EF80B102340CEF81C300360490700F110
:10161000A28062B69EF80BC0DEF80030D968914215
:1016200007D0724818607249DA6042F08040186151
:101630001960704A0A244FF00040FF21136843F4F8
:1016400080631360D0625163D36A002BFCDA013CE3
:1016500014F0FF04F2D1BCF1000F18D01CF0010F00
:1016600005D0654BDEF818209EF80BC01A601CF000
:10167000020F05D0614BDEF81C209EF80BC01A60EB
:101680001CF0040F03D05E4BDEF820201A602846C1
:10169000FFF7A4FE06E033680293029BDB1BB3F561
:1016A000FA6F51D8002211462846FFF70FFF012894
:1016B00081466870EFD14FF4D57208212846FFF7B4
:1016C00005FF430726D585F802904FF0000906E094
:1016D00033680393039BDB1BB3F5FA6F34D8002206
:1016E00037212846FFF7F2FE4A4629212846FFF710
:1016F000EDFE68700028EBD1AB78022B39D028467C
:10170000FFF740FE4046FFF703FE0124204605B0E8
:10171000BDE8F083374A042194464FF0004EFF2085
:10172000136843F480631360C2F82CE05063D36AFB
:10173000002BFCDADCF838300139DBB211F0FF01A4
:101740006B70EDD1AA2B0FD02846FFF71BFE204669
:1017500005B0BDE8F0832B49DEF81430086803407B
:10176000CEF820300B6054E70223AB704FF0804975
:10177000B5E702463A212846FFF7A8FE0028E3D144
:101780001C4B1A684FF0004442F48062FF201A603C
:101790001946DC625863CB6A164A002BFBDA936B5E
:1017A000144A03F0C003C02B04BF0323AB70032112
:1017B00016464FF00044FF20136843F48063136023
:1017C000D4625063D36A002BFCDA013911F0FF01B7
:1017D000B36BF1D193E700BF5096FF1F3C800440EC
:1017E0001C94FF1F80E100E084E100E001403F0025
:1017F00000003F8000C0024000E100E004E100E0A2
:1018000008E100E088E100E00888FF1FF0B4154916
:10181000154A0B6882B016460093009F4FF00045B2
:10182000FF24136843F480631360D5625463D36A62
:10183000002BFCDAB36BDBB2FF2B43700AD10B68D1
:101840000193019BDB1BB3F5967FEAD9002002B020
:10185000F0BC7047A3F1FE00B0FA80F0400902B07E
:10186000F0BC70475096FF1F00C00240F8B5837867
:10187000032B0E46044618BF4E021546FFF7AEFD79
:10188000324611212046FFF721FE18B92046FFF706
:10189000BDFF20B92046FFF775FD0020F8BD204BA5
:1018A0002049214A1A608E4659631A4659631E46DA
:1018B000596305F5FD70A91C05F5FE77D36A13F091
:1018C000F00FFBD0C6F834E0B36B01F8013C1B12FB
:1018D00001F8023C02318F42F0D105F50075A842B3
:1018E0000DD20F4A1646D36A13F0F00FFBD0B36B3C
:1018F000191200F8021BA84200F8013CF3D3084B70
:101900000949084A196019465A63CB6A044A13F018
:10191000F00FFAD02046936BFFF734FD0120F8BD9D
:1019200000C00240FFFF009000041F80F0B4314E61
:1019300033684FF0004743F4806333603D46F762FD
:10194000344671633346511C02F20127E26A002AD1
:10195000FCDA1A6811F8016C42F480621A60DD62E8
:101960005E63E26A002AFCDA1A6811F8026B42F43C
:1019700080628F421A60DD625E63E7D11D49CA6AE8
:101980001C4B002AFBDA1A684FF0004542F48062D3
:10199000FF241A601946DD625C63CB6A154A002B8E
:1019A000FBDA13684FF0004543F48063FF241360B3
:1019B0001146D5625463CB6A0E4A002BFBDA1368DA
:1019C0004FF0004543F48063FF2413601146D56255
:1019D0005463CB6A074A002BFBDA936BDBB203F04C
:1019E0001F024370A2F10500B0FA80F04009F0BC7C
:1019F000704700BF00C0024070B5044671B18378E3
:101A0000032B0D4618BF4D021646FFF7E7FC2A468A
:101A100018212046FFF75AFD054620B12046FFF762
:101A2000B1FC002070BD3246FE212046FFF77EFF4C
:101A30000028F3D04FF416712046FFF71DFD002853
:101A4000ECD02A460D212046FFF740FD0028E5D1C5
:101A50000B4B1A684FF0004542F48062FF201A6079
:101A60001946DD625863CB6A054A002BFBDA936B9B
:101A700013F0FF0FD2D12046FFF784FC012070BD88
:101A800000C00240014B024A1A6070471C94FF1FBD
:101A90000110013838B590F90530002B03DBBDE8A3
:101AA000384000F0FBBB04460121006900F020FC37
:101AB000F8B1257D104B13EB45151AD0A3790F4AC9
:101AC000012B9CBFA369EB61E36912686B831B0C5C
:101AD000AB8232B105F1160105F1180090472B8B4E
:101AE0006B82637903F07F036371BDE8384000F0D7
:101AF000D5BB002038BD00BF3094FF1F2494FF1FCA
:101B000010B500F1080204460121006A00F0DAFC79
:101B100050B1E3693BB96379A268E26163F07F0386
:101B20006371012010BD012010BD00BF70B50646D5
:101B3000FFF7E6FF98B1326AB568117C53691479F2
:101B4000023D8D40013B74B11D4402E014F0FF04DE
:101B500007D0601900F032FC013C0028F6D10020CB
:101B600070BD336A197CB0694FF4007202FA01F358
:101B70000344B361012070BD82790AB90020704727
:101B800010B50446FFF786FF18B10023A3710120AA
:101B900010BD002010BD00BF70B44B1E01F10A043F
:101BA000202203F8012FA342FBD10138002507268C
:101BB00010F8014F2CB32E2C1ED0164A01E09C4287
:101BC00017D012F8013B002BF9D1AE421FD3A4F17C
:101BD00021025D2A1BD8A4F16102192A05F1010333
:101BE00098BF203C0D44DBB298BFE4B22C701D4678
:101BF000DEE7002070BC70470A2EFAD008250A26BE
:101C0000D6E70B78B3F1200018BF0120F2E71846A1
:101C1000F0E700BF247E000038B583793BB991F826
:101C20002020102A0D46044603D0202A10D0002080
:101C300038BD022282714A8CC36153018361002343
:101C40000120607123752562A360E360236138BDC4
:101C500003238371496AC16100F11802284600F02C
:101C600001FC0028EBD1E2E7837913B94FF0FF3094
:101C700070472DE9F04F8B464179C90783B005467F
:101C800058D5C1688469641A944228BF1446264610
:101C90000194002C64D01A46022ADFF8E890384FED
:101CA000DFF8E4802A6AC1F3080A3FD01479013CC6
:101CB00004EA5124E4B2BAF1000F5ED1002C5CD1E9
:101CC000002951D1E969A960107C5269023981402B
:101CD00014440819CAF500746A79B442A8BF34469E
:101CE00053062CD4B4F5007F29D0002100F000FB6E
:101CF00000B30AEB090E0EEB040086450BD00BF186
:101D0000FF32734613F8011B02F8011F9842F9D104
:101D1000CEEB00008344E968361B2144E9601FD004
:101D2000AA79022AC1F3080A2A6ABFD1506A00EBD5
:101D30005120CFE74FF0FF3003B0BDE8F08F3A6895
:101D40009042D2D001465A46D8F80000FFF78EFDE7
:101D50000028EFD0E968361B2144A344E960DFD1B5
:101D6000019803B0BDE8F08F1046A96805F108029C
:101D700000F040FB0028DDD02A6AA968A4E700BF74
:101D80000488FF1F3094FF1F2C94FF1F8379012BC1
:101D900017D930B5C36883B001220DF1070104469D
:101DA000C3F34315FFF760FF012802D0002003B002
:101DB00030BDE36804481F3300EB4510E36003B017
:101DC00030BD0020704700BF3094FF1FF8B5837905
:101DD00013B182698A4201D20020F8BD022B0F465E
:101DE00005461AD007B32B6AE9681C7C4A1E04F129
:101DF00009037C1EDA40DC40A24211D9EB69AB60DA
:101E000005F1080606E0A968286A00F0F3FA013C2B
:101E10000028E1D03246002CF5D1EF600120F8BD5A
:101E20000029EBD0A41AEBE7AF60EF600120F8BD0A
:101E300083790BB1FFF72EBE184670478379012BCB
:101E400001D000207047F0B54579AC0783B0024659
:101E50001CD585698D420C4618D3D5B12546D66868
:101E60001446FFF7B3FF88B1B5B9E169206A00F005
:101E7000B1FB58B1E56122E000F0ACFB30B16FF08E
:101E80007042A168206A00F095FBC0B9002003B041
:101E9000F0BD184603B0F0BD01AAA168206A00F0A9
:101EA000A9FA0028F2D0206A0F4B90F8207001990F
:101EB0004FF6F872102F08BF13469942DCD36379AE
:101EC000A279A56163F07F036371002ADED020460A
:101ED000FFF7E0FD0028D9D0B5422946204628BFAB
:101EE0003146FFF773FFD2E7F8FFFF0F70B51D4BC8
:101EF00003EB4116F37A13F0110F02D012F0420FE8
:101F00001ED1194B01751B680361738BB18A43EABB
:101F10000141C161F37A13F01803154604460DD14F
:101F2000F36983610123837105F00F03002163715D
:101F30006B06A160E1600FD4012070BD102B01D0B1
:101F4000002070BD00F11802006A00F08BFA002832
:101F5000F6D00423A371E7E72046BDE87040FFF701
:101F60006DBF00BF3094FF1F0488FF1F2DE9F047AD
:101F700084B001AF06460C46104639469946FFF735
:101F80000BFE78B30022216A316213461546A26027
:101F9000E260DFF8008108E0E52B1CD001460B224F
:101FA000384604F0D9FF88B3E368A2699A421DD984
:101FB0002046C3F3431AFFF7E9FE98B10378002BDC
:101FC000EAD15DB9D8F8003086F814A033610378FF
:101FD00023B10125E8E7002DFBD1F3E709F0120357
:101FE000122B1DD0002004B0BDE8F08709F01203C9
:101FF000122BF7D1A5B9A379022BF3D02046FFF716
:1020000095FD0028EED0214C357514E009F0300321
:10201000302BE7D04A4651463046FFF767FFE2E7EC
:102020000121306900F064F90028DBD0347D174BC2
:1020300013EB4414D6D020220021204605F022F8CC
:1020400097E80700234603C3114923F8022B0D68C4
:10205000120C1A709DB104F10E0104F11000A84792
:10206000238AE28963822383E28200F017F9002841
:10207000B8D04A46317D3046FFF738FFB3E742F625
:1020800021034FF400622382E281EBE73094FF1FCB
:102090002494FF1F0488FF1F10B4847914B100201A
:1020A00010BC704710BCFFF761BF00BF2DE9F04FB7
:1020B0008B46817985B001290746019205D001231D
:1020C0003B71002005B0BDE8F08F42799107F6D54D
:1020D000530708D5FC68B9698C4200F0A880FFF767
:1020E00075FE0028EBD0019BFC68002B49D0DFF87F
:1020F0008C91DFF88CA1DDF80480386A0679013E06
:1021000006EA542616F0FF06C4F3080442D1002C58
:1021100040D1B96800296FD1FA69002A7ED0BA602F
:10212000C4F50075ADB245453AD9057C4169023A1E
:10213000AA400E4416441FFA88F51CB9F868BA691B
:1021400090424CD23046012100F0D2F80028B6D09F
:102150004C4404EB050E74450DD00BF1FF31621EAB
:102160000EF1FF3611F8010F02F8010F9642F9D176
:10217000C4EB0E04A344FC68B8EB05082C44FC60D7
:10218000BBD1BB69A34257D27A79BC6142F08002CD
:102190007A715AE0C4F50075ADB24545BA68C4D845
:1021A000017C4069023A8A400644B5F5007F164436
:1021B000C3D1DAF80020964204BF4FF0FF32CAF8CC
:1021C00000202A4A314610685A46FFF715FC0028BD
:1021D0003FF475AF0BF5007B4FF40075CBE700F0D3
:1021E0005DF800283FF46BAF2149CAF800600A7817
:1021F00042F001020A70ABE703AA00F0FBF80028E6
:102200003FF460AF386A1B4B90F82050039A4FF6AA
:10221000F871102D18BF19468A4280D33846FFF74F
:102220006FFC00283FF44BAF386ABA6878E7019B2F
:10223000002B7FF45CAF08E00F4B7A791B6823B169
:10224000019B13B142F080027A71120709D5BB7964
:10225000002B3FF434AF3846FFF71CFC00283FF456
:102260002EAF019805B0BDE8F08F00BF2C94FF1F82
:102270003096FF1FF8FFFF0F2494FF1F3094FF1FBD
:102280000488FF1F00B583B002AB012203F8011DD3
:102290001946FFF70BFF03B05DF804FB70B50F4C58
:1022A00023780BB9012070BD0D4B0E4D19682868BD
:1022B0000D4AFFF7A1FB70B10C4E316819B900232C
:1022C0002370012070BD2868074AFFF795FB10B105
:1022D00000233360F3E7002070BD00BF3096FF1F7E
:1022E0000488FF1F2C94FF1F3094FF1F2894FF1FAA
:1022F00070B50D4D2B6883420E460ED00446FFF795
:10230000CDFF08B9002070BD084B094A1868214666
:10231000FFF7ACFA0028F5D02C60064B1978314352
:102320001970012070BD00BF0488FF1F2C94FF1F8F
:102330003094FF1F3096FF1FF8B590F82030C46925
:10234000102B1A4B05460E4617461B6816D004EB99
:10235000D1149C4216D106F07F06154A42F8267029
:102360001449287E0A78012842F001020A7018D91F
:10237000A968114A0B4413600120F8BD04EB112435
:102380009C4208D000212046FFF7B2FF50B195F8DB
:102390002030102B07D1F6B2054A234622F81670DA
:1023A000DEE70120F8BD2346D5E700BF0488FF1F04
:1023B0003094FF1F3096FF1F2894FF1F10B504466E
:1023C000FFF76CFF78B1084B002103F5007203F8AA
:1023D000011F9342FBD1054A054913780C6043F075
:1023E00001031370012010BD2F94FF1F3096FF1FB3
:1023F0000488FF1FC36801338B4218D370B590F86F
:102400002030102B154B044616460D46C0691B683C
:102410000FD000EBD11098420FD105F07F01104B87
:1024200053F8213023F070433360012070BD002049
:10243000704700EB1120984207D00021FFF758FFAA
:1024400050B194F82030102BE7D1E9B2044B33F8A7
:1024500011303360012070BD002070BD0488FF1F63
:102460003094FF1F2DE9F04782B002ADDFF85080B5
:1024700045F8041D044691464FF0000A4FF40077DA
:102480004FF6F8760CE094F82030227C0199102B5E
:1024900014BF4346334607FA02F29942924408D2E7
:1024A0002A462046FFF7A6FF0028ECD102B0BDE87F
:1024B000F0870120C9F800A002B0BDE8F08700BF96
:1024C000F8FFFF0F2DE9F04F176883B06FB30137A6
:1024D0004FF0000AC36803F1010813B38B460646A8
:1024E00091463C46002505E01C461F46F368013531
:1024F000AB4216D9A04538BF0224214601AA304676
:1025000038BF2746FFF776FF631CD91B48B1019AF5
:10251000002AE9D18B4510D01C46F3680135AB4247
:10252000E8D8002003B0BDE8F08FA1F1010ABAFAA3
:102530008AFA07684FEA5A1ACCE7012CF1D9F368F6
:1025400001339C42EDD86FF0704221463046FFF7D0
:10255000F3FE0028E5D0A74214D2013C012CE0D9BB
:10256000F36801339C42DCD8621C21463046FFF7F9
:10257000E3FE0028D5D0A74204F1FF3402D0012C9D
:10258000EED1CEE7D9F8001059B10129C9D9F368C5
:1025900001339942C5D83A463046FFF7CDFE0028B0
:1025A000BFD0C9F80070BAF1000F01D00137376011
:1025B0000120B7E701290AD9C3680133994210B451
:1025C00002D810BCFFF7B8BE002010BC7047002036
:1025D000704700BFF0B5022383B00546134F036078
:1025E0000C464FF6F8760FE0EB6801339C4216D8A4
:1025F000FFF7A2FE98B195F82030019C102B0CBF7C
:1026000033463B469C420DD201AA21462846FFF79D
:10261000F1FE2146002210B1012C2846E4D800200A
:1026200003B0F0BD012003B0F0BD00BFF8FFFF0F05
:10263000F8B53E4B054619601446DAB1042A01D9B3
:102640000020F8BD00210846FFF752FE0028F7D011
:10265000374B03EB041292F8AE215206F0D11B3433
:1026600003EB0414D4F80A30632BE9D9D4F80640FC
:10267000002CE5D000212046FFF73AFE0028DFD0ED
:102680002B4AB2F80B30B3F5007FD9D1117C002969
:10269000D6D0D389002BD3D0567B002ED0D00023A8
:1026A00029762E712B74012703E009290B46297422
:1026B000C6D007FA03F0B04203F10101F5D1D68A82
:1026C0001B4906B94E6AB2F80EE0AE60A644C5F8E2
:1026D0001CE0B2F81110177C6984480106FB07E67C
:1026E00000F2FF1006EB60206E626861B2F8131012
:1026F0000F4E01B9316A241A0C4424FA03F340F650
:10270000F4718B42EB600BD94FF6F4718B4285BFAD
:10271000D36A6B621023202385F820300120F8BD96
:102720000C2385F820300120F8BD00BF2C94FF1F3A
:102730003094FF1F10B4047F4160022CC26002D0AD
:1027400010BC02F089BB836810BC1847F0B4464B3C
:10275000464A186BDC6A01791170454922790A7082
:102760009A6A00790870002A46D05968C9688A4276
:102770003ED82168CC8B240402F1FF3065D4C0F32D
:102780000E00C883C88B80B2C882196B0968C88BD9
:10279000000452D4C2F30E00C883C88B002480B258
:1027A00012F1FF32C88218BF01229C62D96A2E48FA
:1027B00009680D6800F12404A54236D00068C46899
:1027C00014F0804F0C680D6815BF248824780235FA
:1027D000013544F000440D604463196B254B0979C1
:1027E0001970214912B1CA6A12791A70F0BC704787
:1027F000521A9A620122D9E7586B196805681E4C73
:102800000A63CC62CC682D681C4E24F080440327F8
:10281000B542CC6083F825701FD1037F4260022B44
:10282000C2601ED0F0BC02F017BB016890F8240013
:10283000CC6840F000404863CFE7CC8BC2F308007F
:1028400004F47E442043C883A7E7CC8BC0F3080080
:1028500004F47E442043C88394E72B461146F0BC21
:1028600018478368F0BC18470888FF1F1F80004086
:102870001C8000401B80004000000FFF3527000037
:1028800090E80C00F0B41C6859682568164F174E84
:1028900029432160164D17491760D66015611160F4
:1028A000417A154A5C180A3194F8244053F82150B3
:1028B00002EBC40149680D60017A5C1803EB8101E9
:1028C000247ECD6902EBC40149680D60817A5818F5
:1028D00003EB810390F83000596B02EBC002F0BCAF
:1028E00053681960704700BF01401F000110003895
:1028F0000110007800001F805881000070B4417AF8
:1029000044680E4B05680E4E2144002291F82410B5
:1029100003EBC10149680A60017A2144097E03EB97
:10292000C10149680A60817A214491F8301003EBB3
:10293000C1035B681A602E6070BC7047588100004C
:1029400001401F004268036805CA10B404682243AE
:102950000260DA6881B942F08072D9688A4209D08F
:10296000196848040BD40948186042F08040DA60C6
:102970001861196010BC704722F08072EDE742F0D8
:102980008041DA6010BC1961704700BF01401F0030
:102990004268036805CA10B4046822430260D8681C
:1029A000840100F0E06205D5080900F4706021F4AC
:1029B00070410143D8681143814209D01A6850041C
:1029C00008D40748186041F08040D96018611A6047
:1029D00010BC704741F08042D96010BC1A6170474A
:1029E00001401F00204A43689A42F0B40FD0427A57
:1029F0001A4492F82420914207D093F824408C4244
:102A000015D093F825408C422AD0F0BC70470B2992
:102A100007D00729EBD1154C227842F00102227031
:102A2000E5E7124C227822F001022270DFE7002451
:102A300021461E685D6836682E420FD00C4D05EBAE
:102A4000C202002756685A18376092F8242005EB16
:102A5000C2050A316A6853F8213013604472D4E722
:102A600001242146E5E700BFC07E00006C97FF1FF0
:102A7000588100001E4A43689A42F0B40CD0027A92
:102A80001A44127E914205D01C7E8C4214D05C7E8A
:102A90008C422AD0F0BC70470C2907D00829EED10F
:102AA000144C227842F002022270E8E7114C22789E
:102AB00022F002022270E2E7002421461E685D68CF
:102AC00036682E420FD00C4D05EBC2020027566827
:102AD0005A183760127E063105EBC20503EB8103FD
:102AE0006A685B6813600472D4E701242146E5E755
:102AF000C07E00006C97FF1F58810000204A436889
:102B00009A42F0B40FD0827A1A4492F8302091425F
:102B100007D093F830408C4215D093F831408C4266
:102B20002BD0F0BC70470D2907D00E29EBD1154CE6
:102B3000227842F004022270E5E7124C227822F05B
:102B400004022270DFE7002421461E685D683668B3
:102B50002E4210D00C4D05EBC202002756685A18C1
:102B6000376092F830200C3105EBC20503EB81038E
:102B70006A685B6813608472D3E701242146E4E746
:102B8000C07E00006C97FF1F588100000120704735
:102B90008171704741717047C1727047017370470E
:102BA00041737047837B23EA0202114381737047AC
:102BB000C0797047007A7047407A7047807A7047D2
:102BC0000020704710B5044601E002F0DDFD2368E7
:102BD00020465B6898470028F7D010BDF0B5104D2F
:102BE00083B02B680093009F2B680193019BDB1B34
:102BF0008B4212D20E46044607E002F0C5FD2B6858
:102C00000193019BDB1BB34207D2236820465B681C
:102C100098470028F1D003B0F0BD002003B0F0BD0C
:102C20005096FF1F0379032B08D110B5044602F01C
:102C3000ABFD2379032BFAD0012010BD0120704792
:102C4000F0B50F4E83B033680093009F3368019353
:102C5000019BDB1B8B4210D205460C4607E002F0BD
:102C600093FD33680193019BDB1BA34205D22B79B3
:102C7000032BF4D0012003B0F0BD002003B0F0BD61
:102C80005096FF1F064A0260FF2100220271427324
:102C900002828273428241718282C17201737047E3
:102CA000407F0000C07B40B2704700BF704700BF4C
:102CB000704700BF704700BF704700BF4171704749
:102CC000817170470171704730B4034D0560017127
:102CD0004271837130BC7047987F0000054B1A68C1
:102CE0004FF00043D3625163D36A002BFCDA906B40
:102CF000C0B270470888FF1F704700BF30B4184B40
:102D00008268D97AB9B172B6D97ACD07084606D5A4
:102D1000144CD868256828409861206008468C07C4
:102D200006D5114C19692568D87A2940D9612160E6
:102D300041070ED462B61B68D968914207D00B4890
:102D400018600B49DA6042F080401861196030BCAD
:102D50007047084859690468214019620160E9E731
:102D60000888FF1F80E100E084E100E001403F00AF
:102D700000003F8088E100E00148FFF7BFBD00BFD1
:102D80000888FF1F0A4AD37A194683B1D80703D5AA
:102D90000849906908601946980703D5064BD06921
:102DA000D17A18604B0702D5044B126A1A6070473B
:102DB0000888FF1F00E100E004E100E008E100E016
:102DC00082792DE9F04104464AB1012A00F096804B
:102DD000022A00F0A680032A00F093800022154604
:102DE000734974480B6843F480530B60C3689901BE
:102DF00067D423F080636F49C868834203D00868B2
:102E0000470466D5CB602379042B6CD0032B6FD09D
:102E1000022B70D068496948012B14BF8E46864644
:102E200094F805C06649DFF8C081BCF1010F0CBF02
:102E30004FF064564FF06056002702E0172808D084
:102E4000074631F8023F98FBF3F39E4507F1010076
:102E5000F4D30DB146F080665A4B53F827303AB19F
:102E60001A0902F4706223F4704346F000761343AB
:102E700033431CF1FF31A36018BF01215248FFF713
:102E800061FD2379013BDBB2032B76D84F4AD35C3B
:102E9000042B56D0002B37D0052B61D0012B6CD0E2
:102EA000062B77D0022B3FD049494748FFF770FDEA
:102EB0004548FFF7E5FC46494348BDE8F041FFF7C8
:102EC00067BD23F0C06323F47F43190389B20B432A
:102ED00091E740F4804646F001060E60CB6023790E
:102EE0000860042B92D194F805C0DFF800E199E75F
:102EF000DFF8FCE094E7DFF8FCE091E7042200252E
:102F00006EE7042208256BE732492F48FFF740FDA2
:102F10002D48FFF7B5FC2F492B48BDE8F041FFF7DE
:102F200037BD002208255BE72B492748FFF730FD16
:102F30002548FFF7A5FC28492348BDE8F041FFF7E5
:102F400027BD4FF060512048FFF722FD1E48FFF7D4
:102F500097FC4FF060511C48BDE8F041FFF718BDE9
:102F60001E491948FFF714FD1748FFF789FC1B4954
:102F70001548BDE8F041FFF70BBD19491248FFF7AE
:102F800007FD1148FFF77CFC15490F48BDE8F041EB
:102F9000FFF7FEBC13490C48FFF7FAFC0A48FFF79D
:102FA0006FFC10490848BDE8F041FFF7F1BC00BFD5
:102FB0003C80044000C0024040420F0080841E005C
:102FC000327E0000647E00000888FF1FF07F000052
:102FD000076001380110013806500138032001381C
:102FE0000320033805400138006CDC020024F400A3
:102FF00000127A0000093D0010B5064C00231A4665
:1030000019462046FFF760FE034A044B2260A36086
:1030100010BD00BF3496FF1FC87F000001100138AB
:1030200010B5044680690368DB689847207F01215A
:1030300000F0F0FD207F012100F0E6FD642000F0AB
:10304000EFFD012010BD00BF70B504460D461646C9
:10305000FFF718FE024B2577A6612360204670BD5E
:10306000FC7F000070B504460E46EFF3108572B683
:10307000BFF35F8FBFF34F8FBFF36F8F806903681C
:103080001B6A9847207F002100F0BEFDA0690368FD
:1030900006F07F011B689847A069036800211B6840
:1030A000984701210646207F00F0AEFDA069036825
:1030B0005B6A984785F31088BFF35F8FBFF34F8F2C
:1030C000BFF36F8FBFF35F8FBFF34F8FBFF36F8F70
:1030D000304670BDF8B504460E461746EFF310852E
:1030E00072B6BFF35F8FBFF34F8FBFF36F8F8069EF
:1030F00003681B6A9847207F002100F085FDA069C6
:10310000036846F080011B6898470646A06903687B
:1031100039461B689847207F012100F075FDA069A2
:1031200003685B6A984785F31088BFF35F8FBFF32E
:103130004F8FBFF36F8FBFF35F8FBFF34F8FBFF31F
:103140006F8F3046F8BD00BF2DE9F84305460E46A7
:1031500014469946EFF3108772B6BFF35F8FBFF343
:103160004F8FBFF36F8F806903681B6A9847287F72
:10317000002100F049FDA869036806F07F011B6883
:1031800098478046B9F1000F0DD009F1FF36F6B22D
:103190002644013CA869036800211B68984704F88D
:1031A000010FB442F6D10121287F00F02DFDA8695E
:1031B00003685B6A984787F31088BFF35F8FBFF39C
:1031C0004F8FBFF36F8FBFF35F8FBFF34F8FBFF38F
:1031D0006F8F4046BDE8F8832DE9F84305460E465B
:1031E00014469946EFF3108772B6BFF35F8FBFF3B3
:1031F0004F8FBFF36F8F806903681B6A9847287FE2
:10320000002100F001FDA869036846F080011B68F9
:1032100098478046B9F1000F0CD009F1FF36F6B29D
:103220002644013CA86914F8011F03681B689847ED
:10323000B442F7D10121287F00F0E6FCA8690368B9
:103240005B6A984787F31088BFF35F8FBFF34F8F98
:10325000BFF36F8FBFF35F8FBFF34F8FBFF36F8FDE
:103260004046BDE8F88300BFFB207047172938B5FA
:1032700005460FDC0429D8BF802418DC04224D2128
:103280002846FFF727FF224628460921BDE8384097
:10329000FFF720BF8F2407224D212846FFF71AFF92
:1032A000224628460921BDE83840FFF713BF1429FC
:1032B00005DDCCB2083C64F07F04E4B2EBE74C1FC0
:1032C00064F07F04E4B2D9E710B504230446052274
:1032D00001210371FFF7FEFE204600224021BDE8D8
:1032E0001040FFF7F7BE00BF0279032A0AD0037926
:1032F000042B10B5044601D0FFF7E6FF94F81F0138
:10330000C0B210BD0020704710B503220271012128
:103310000446FFF7DFFE402220461146BDE810407C
:10332000FFF7D8BE10B5012204461146FFF7D2FEC2
:103330000223237110BD00BFFB2A01D90020704772
:10334000036870B504469B690E4615469847237975
:10335000022B02D02046FFF7E5FF00220D21204678
:10336000FFF7B8FEE27A00212046FFF7B3FE227B8A
:1033700000212046FFF7AEFE627B00212046FFF7CA
:10338000A9FEA27B00212046FFF7A4FE2B46324671
:1033900000212046FFF720FF2A1DD2B2222120461D
:1033A000FFF798FE2379032B04D02046FFF7ACFFEC
:1033B000012070BD012070BD0279012A09D010B52D
:1033C000002204460121FFF785FE0123237101201D
:1033D00010BD0120704700BF38B5044615461A4697
:1033E000FFF732FEFF23044965770022A3772160AF
:1033F00084F81F21204638BD08810000C37F032BBD
:1034000016D9837990F8221090F8232030B490F8E0
:10341000205090F82140C57104724172827243B10C
:10342000438A01339BB20122438280F81F2130BCC2
:103430007047C37942799A42F2D0C379FF2BF6D113
:10344000EEE700BF38B504461221FFF70BFE2379E3
:10345000042B0CD02379042B1ED02379032B0ED000
:103460002046FF221221BDE83840FFF733BE10F09E
:10347000A00FEFD0238A01339BB22382F0E703072A
:10348000EED5A38A01339BB2A3822379022BE7D026
:103490002046FFF747FFE3E74206DED5132120462B
:1034A000FFF7E0FD102105462046FFF7DBFD0D216B
:1034B00002462046FFF70EFE2B4604F120020021B3
:1034C0002046FFF741FEFF221221E5772046FFF755
:1034D00001FE1A212046FFF7C5FD773040B2E073A8
:1034E0002046FFF78BFF94F81F31002BB8D02379CB
:1034F000022BCDD1B4E700BF024B186808B1FFF72B
:10350000A1BF70474096FF1F024B586808B1FFF7F4
:1035100099BF70474096FF1F024B986808B1FFF7AC
:1035200091BF70474096FF1FEFF3108372B6BFF351
:103530005F8FBFF34F8FBFF36F8F002280F81F2183
:10354000C27783F31088BFF35F8FBFF34F8FBFF352
:103550006F8FBFF35F8FBFF34F8FBFF36F8F7047D6
:1035600003682DE9F0415B68044688461746984792
:10357000064658B3B8F1000F25D027B3EFF31085F6
:1035800072B6BFF35F8FBFF34F8FBFF36F8FE37FD1
:103590003A78033B934203DCE37F043BDAB23A70B0
:1035A000404604F1240100F059F985F31088BFF377
:1035B0005F8FBFF34F8FBFF36F8FBFF35F8FBFF38B
:1035C0004F8FBFF36F8F2046FFF7AEFF3046BDE849
:1035D000F08100BF38B50B4604460E49184603F08B
:1035E0002FF80D4903F0E0F803F07AF906210546BB
:1035F000C0F307422046FFF76DFDC5F307222046C2
:103600000721FFF767FDEAB220460821FFF762FDB8
:10361000012038BD00247449002474424AB10E29A7
:1036200010B4044607DD7F222046092110BCFFF7B5
:1036300051BDFFF71BBE4A1C05DA20467022092146
:1036400010BCFFF747BD4A1C42F07002D2B2EBE754
:1036500038B50C4605460A781D21FFF73BFD627818
:1036600028461E21FFF736FDA27828462621BDE810
:103670003840FFF72FBD00BF38B50A0A0C46054693
:103680002021FFF727FDE2B228462121BDE838407E
:10369000FFF720BDF0B583B00546FFF7C1FC18B9B0
:1036A0000024204603B0F0BD1B2104465B4801F016
:1036B000CFFA5B4801F022FD6E7F212EF0D81A214F
:1036C000584801F0C5FA564801F018FD8022012142
:1036D0002846FFF7FFFC0A2000F0A2FA0121284645
:1036E000FFF7C0FC802810D028460121FFF7BAFC64
:1036F0000023014610224A4801F010FD484801F01D
:10370000FDFC0024204603B0F0BD0E21464801F028
:103710009FFA434801F0F2FC0021687F00F07AFA3A
:10372000AB7FFF2B4DD00921404801F091FA3C4876
:1037300001F0E4FCAB7F3E4A42F82350002B59D005
:10374000012B65D0022B08D021213A4801F080FAE4
:10375000334801F0D3FC0024A3E730460322364966
:1037600000F0BEF90E21354801F072FA2C4801F044
:10377000C5FC00220E212846FFF7ACFC00220F21D9
:103780002846FFF7A7FC2B79022B02D02846FFF72B
:10379000C9FD2B4B1B68ADF8043001A91B0C284652
:1037A0008DF80630FFF754FF28460821FFF764FF25
:1037B00024492846FFF70EFF28460D21FFF756FD46
:1037C0006FE709212048214F01F042FA144801F027
:1037D00095FC3B78032B13D8581CC0B2AB7701463D
:1037E000387000230A220E4801F098FC0C4801F0C2
:1037F00085FC98E730460322154900F071F9B1E7DE
:103800001021144801F024FA054801F077FC47E73D
:1038100030460322104900F063F9A3E75880000006
:103820003889FF1F7480000090800000C080000075
:103830004096FF1FCC80000019350000F08000008A
:103840004C80000000005944A08000004C96FF1FEF
:10385000F9340000AC80000009350000844641EADC
:10386000000313F003036DD1403A41D351F8043BF8
:1038700040F8043B51F8043B40F8043B51F8043B4A
:1038800040F8043B51F8043B40F8043B51F8043B3A
:1038900040F8043B51F8043B40F8043B51F8043B2A
:1038A00040F8043B51F8043B40F8043B51F8043B1A
:1038B00040F8043B51F8043B40F8043B51F8043B0A
:1038C00040F8043B51F8043B40F8043B51F8043BFA
:1038D00040F8043B51F8043B40F8043B51F8043BEA
:1038E00040F8043B51F8043B40F8043B403ABDD259
:1038F000303211D351F8043B40F8043B51F8043BFB
:1039000040F8043B51F8043B40F8043B51F8043BB9
:1039100040F8043B103AEDD20C3205D351F8043B89
:1039200040F8043B043AF9D2043208D0D2071CBF55
:1039300011F8013B00F8013B01D30B88038060467E
:10394000704700BF082A13D38B078DD010F00303F4
:103950008AD0C3F10403D21ADB071CBF11F8013B64
:1039600000F8013B80D331F8023B20F8023B7BE7B3
:10397000043AD9D3013A11F8013B00F8013BF9D2DE
:103980000B7803704B7843708B7883706046704778
:1039900008B5104C08E0236859050DD423681A05B2
:1039A0000FD42368DB0411D423685803F3D500F047
:1039B000CFFA23685905F1D501F0DAFF23681A051B
:1039C000EFD502F06BF82368DB04EDD502F0FCF8CC
:1039D000EAE700BF3480044008B5FFF7D9FF00BF15
:1039E000014B10221A80704700200540704700BF2D
:1039F000094908B50B6830B16A461844A2F58052EF
:103A0000904202D20860184608BD02F095FF0C23D0
:103A100003604FF0FF3008BD4088FF1FFEE700BF86
:103A2000704700BF10B40F4B53F8302092F880421B
:103A30002CB1012369B182F8803010BC704703EBD0
:103A4000C0035B681A6841B922F002021A6010BC18
:103A5000704782F8003110BC704742F003021A60D0
:103A600010BC7047588100001C4A02EBC0030129BA
:103A70005B6811D004291BD052F83000002280F876
:103A8000802229B1022920D0032922D01A60704750
:103A90004FF480721A60704752F830004FF4A272EF
:103AA00080F880121A601A6822F020021A607047AB
:103AB00052F830104FF4A272012081F880021A608F
:103AC0001A6842F020021A60704740F203121A602E
:103AD00070474FF481721A60704700BF5881000030
:103AE000212848D8F8B5042A44D8DFE802F0484B2A
:103AF0004E0345004FF410262B4B03EBC0030D463D
:103B00005C68216811F4E06148D0284B284A2949B3
:103B1000C3F89C2104F140422748C3F8A411A2F540
:103B20009221264FC3F8A0017C292548C3F8A8712B
:103B3000C3F8AC012CD9A2F594237C2B2AD9A2F589
:103B400096237C2B28D9A2F598237C2B29D9A2F582
:103B50009A227C2A27D81B4872B6236823F4702344
:103B600043F08072C4F384011643236040F821506F
:103B7000266062B6F8BD70474FF43026BCE74FF4BC
:103B80000026B9E74FF44026B6E74FF42026B3E706
:103B90000D48E1E70D48DFE70D48DDE7FFF764FF7B
:103BA000B3E70C48D8E7F8BD588100000082FF1F3A
:103BB000D187FF1F7987FF1FA587FF1F4D87FF1F35
:103BC0002187FF1F1C89FF1F4488FF1F7C88FF1F60
:103BD000CC88FF1FFC88FF1F014B1868704700BF8F
:103BE00000D0034030B4054B054D064C0022102197
:103BF0001A602A602060196030BC704714D00340FE
:103C000004D0034000D00340212801D8FFF70ABFA9
:103C1000704700BF212801D8FFF726BF704700BFBB
:103C20002DE9F843054672B6204F214B214A1B6807
:103C30003C68126862B6520102D5322B88BF01344B
:103C400095B3C3F5BB331C4EDFF86490DFF8648096
:103C5000FF334FF47A72A6FB031302FB04F404EB68
:103C6000931472B6D9F800103A68D8F800E062B63A
:103C7000C1F5BB33FF33A6FB03031EF0806FC4EB1B
:103C800093134FF47A7002D0322988BF013200FBBF
:103C90000233B3F57A7F04D3013D05D004F57A747D
:103CA000DFE701F071FDDCE7BDE8F8835096FF1F08
:103CB00018E000E004ED00E0ABAAAAAAF8B52D4B8D
:103CC0002D49DFF8D0E0DFF8D0C02C4E2C4D2D4C24
:103CD0002D4A2E4F4FF4000018604FF0807018608E
:103CE0004FF0007018604FF0806018604FF0006077
:103CF00018600020086028234BF6FF71CCF80010F4
:103D0000CEF80030336013602B6023603B60B362F9
:103D10009362092245F8242CC4F8D80F05F57F6575
:103D2000C7F8D41F07F5FF2707F5FA67C6F8F83F6D
:103D30002B6006F5FF26C4F8D42F05F5FD2504F504
:103D4000FF24386006F2F4761148316005F5FF650E
:103D500004F5FD642B602360026001F063FD19200F
:103D6000FFF75EFF00F05CFE40F21310BDE8F84084
:103D7000FFF756BF08E100E00480034014800340D1
:103D8000248003402C8003401C8003403480034087
:103D900000800B400C80034008800340431E032B2F
:103DA00014D872B60A4951F8230068B170B4094CAE
:103DB000058834F81320466841F82360521B24F824
:103DC000132062B670BC704762B67047002070471F
:103DD000AC96FF1F3099FF1F013803280BD872B62D
:103DE000074B53F8203043B100205B680130002BB3
:103DF000FBD162B67047002070471846F9E700BF54
:103E00000097FF1F30B472B62B4A13781D0706D5F2
:103E10002A4B196A002936D0996A002941D0537873
:103E20001C0706D5254B196C00293ED0996C00293A
:103E300039D09378190705D5204B196E002936D053
:103E4000996E89B1D3781B0707D51C4BD3F8802016
:103E50007AB3D3F8882011213AB162B6184B002208
:103E60001A7030BC00F068BE0D21154C154D22783B
:103E700043F8315003EBC1030830013A5860227017
:103E800062B630BC704704220D4C0F4D217843F8C8
:103E9000325003EBC20308304A1E5860227062B6EB
:103EA000EFE70521E1E70921DFE70822ECE70C2233
:103EB000EAE71022E8E700BFA08200000080FF1FB1
:103EC0002997FF1FC800400088004000431E032BB5
:103ED0001DD81B4A400140F0100030B4104472B6A7
:103EE000184CE25C032A1BD8DFE802F00212151717
:103EF00003220D88E25410F0080F14BFC823882352
:103F000043EA054308310360416062B630BC704744
:103F100008300222EDE70522EBE708300422E8E74B
:103F2000094A52F8230038B1084A52F82300416088
:103F300042F8231062B6E9E742F82310034AF7E794
:103F40000080FF1F3897FF1F0097FF1F1097FF1F6C
:103F50002DE9F04FDFF80CB3DFF80CA387B044E095
:103F6000AB4F4FEA930807EBC809013ED9F804208C
:103F700003F00803F6B2A2F1080003F0FF04002BDF
:103F800040F0028157F838301B0C99B222F8081C17
:103F9000002B00F0F0809F4B22F8064C42F8044CB6
:103FA00053F82620002A00F0C5829B4D55F8263094
:103FB00058609A4C45F8260034F81630194424F815
:103FC000161000F099FD002800F0AD82944A954B40
:103FD00019F0080F00F1080018BF1346C9F80400D3
:103FE00047F8383008238BF800309BF80040E4B2E3
:103FF00061071AD58C4B1B78A3B18C490A7802F063
:10400000FF0322B1013BDBB20B7003B900BE88494C
:104010000A7802F0FF032AB1013BDBB20B70002BE0
:1040200000F0578204238BF8003004F0080303F0FB
:10403000FF02002B00F0CC809AF80030DBB21E09A2
:104040008ED19C08DFF8C89159F8342009EBC401DF
:10405000C2F38302013A49680C2A00F28880DFE843
:1040600002F07C7C86868686868647868686070062
:104070000868704D4A68704F704E286081B240F2F7
:104080008160674B6A604FF0010E0022814249F85F
:1040900034303A60C9F81020C9F8182086F800E0DA
:1040A0005B4C00F2E380B1F5D06F80F04683B1F550
:1040B000817F00F0FC8200F28D82802900F07783FE
:1040C000822940F0FA82A98801F07F01042900F2D8
:1040D000F4825B485B4C890008442270627002786D
:1040E000930740F1588484F800E04FF0020E42E359
:1040F000514F3A6832B3544B504E54491888347873
:104100000D784028864645F0020828BF4FF0400E43
:10411000002C84F001043470CEEB00000CBF882426
:10412000C82409EBC80680B285F0010544EA0E44B4
:104130007260188049F8384072440D70002800F011
:1041400045813A603B4B1A88B2F5A06F0FD1002130
:104150009A7859703E4B1A7009E0364A108842F23C
:104160002102904200F037812D4A49F83420394A23
:104170000123137036E72A4A2A4B19F0080F18BF9B
:10418000134647F838302DE700F0D6FC324A334961
:1041900052F82630002B00F0D18158688C5D42F82F
:1041A000260003F10802C9F80420032C05D8DFE833
:1041B00004F02C02292602228A551A8819F0080FC9
:1041C0000CBF8823C82343EA024347F8383009E785
:1041D000E00700F18181210600F1F281A20706D5F6
:1041E0001F4A204913780220DBB213700870E306DF
:1041F00002D51C4B10221A7007B0BDE8F08F0422C4
:104200008A55DAE705228A55D7E703228A55D4E78B
:104210000080FF1FAC96FF1F5896FF1F3099FF1FAD
:10422000C8004000880040003497FF1FBD96FF1F64
:104230003C97FF1F2097FF1F5496FF1FBC96FF1F40
:10424000C02007402C97FF1F6896FF1F2897FF1F6D
:1042500098200740942007400097FF1F3897FF1FC2
:1042600088200740802007409020074042F221002C
:10427000814200F02A8100F2D880B1F5086F00F089
:104280007682B1F5106F40F01882226AB349A8789F
:104290000870120600F13A83D9F82820B0491306B5
:1042A00000F10C83D9F83020AD49150600F10183E7
:1042B000D9F83820AA49140600F1F682D9F840202E
:1042C000A749100600F14A83D9F84820A4491206EC
:1042D00000F13F83D9F85020A149130600F134833F
:1042E000D9F858209E49150600F12983D9F8602095
:1042F0009B49140600F11E83D9F8682098491006DE
:1043000000F11383D9F870209549120600F1088353
:10431000D9F878209249130600F1FD82D9F880205F
:104320008F49150600F13183D9F888208C4914068D
:1043300000F12583D9F890208949100600F11983EE
:10434000D9F898208649120600F10D838548864ADF
:10435000864901908648874D874C0497002305962F
:10436000029580460F4616461D460394306828B1D4
:10437000446800F0E1FB2046002CF9D100233360B3
:10438000029B38681A46002342F8253028B1446859
:1043900000F0D2FB2046002CF9D100223A60019AAD
:1043A00098F800301146002241F8042B039A01913D
:1043B000023B4FF0000122F81510032B00F22B8175
:1043C000DFE813F07001250170012501BEF1400FF7
:1043D00018BF0022B5E6694A0D784878157050700C
:1043E0008D78C8789570D07010680D791571862811
:1043F0004D7989795571917100F09B816049614EC9
:104400000A78307882F00105002842F002020D702F
:104410000CBF8821C82149F8321009EBC20280F094
:1044200001000021307051609EE642F2212081425D
:1044300040F0CB81544B554C5549A8781D682560F8
:10444000CDF804E0087000200290804684460446BF
:104450004B490D7845F0020E09EBCE030393019B07
:10446000002B039B5C600CBF8824C82444EA08032B
:1044700085F0010449F83E3032700C70DFF8E0E05E
:10448000404BDFF8FC80002840F01E81BCF1400F5B
:104490001BD144F0020C09EBCC03029CDFF8C0E016
:1044A0005C60002A40F02681020442F088029DF8F8
:1044B00004304EF83C20044433700D7023464028ED
:1044C00003D10020334A3B601080334A012313702C
:1044D0004DE600F09DFCA5E5214B2F4828491A61C7
:1044E0004FF0020E80F800E02C4F0A702C49196042
:1044F00099602C4E2C4D2D4C9A610D213970FF2165
:104500003170DFF8B8E029702270294D294A8EF801
:1045100000109F27012406F8047C5D600470DA60B7
:1045200007B0BDE8F08F244A47F83800137801330C
:10453000137057E543F826000E4D3AE58B5D032BCB
:1045400000F2F08001A252F823F000BFE53F000026
:10455000E53F000009460000034600003497FF1FB6
:104560000080FF1F1097FF1FAC96FF1F0097FF1FD3
:104570003897FF1F5896FF1F3099FF1F3899FF1F6C
:104580002897FF1FBC96FF1F5096FF1F4099FF1FE3
:104590004C97FF1F6896FF1F94200740C0200740DC
:1045A000880040008820074080200740982007406E
:1045B0006C96FF1FC096FF1F2997FF1F8C20074096
:1045C000C149C24B80220D2008701A70A2077FF5E6
:1045D0000EAE05E640F20232914240F0EE80A9882C
:1045E00001F07F01042968D86A88002A65D1B6489D
:1045F000CDF804E089000844017841F0020101701F
:1046000021E701238B55EDE400238B55EAE44FF0BD
:10461000010388F800300135042D06F1040607F186
:10462000040708F101087FF4A1AEA94CA94B227838
:10463000A94D049F059E002129701A70130700F1EF
:1046400005816278A549DFF8A0820A7010074FF053
:104650000001C9F83010C9F8381000F1E080A04915
:10466000A2780A700021C9F85010C9F85810110733
:10467000DFF8748200F10181E2789A499A4C0A705D
:1046800000211207C9F87010C9F8781000F1B08045
:1046900033780193002183F00102C9F89010C9F822
:1046A0009810D0E64FF0000388F80030B3E7A988EF
:1046B00001F07F01042940F28D80834A0F2313709B
:1046C0008A4A0123137052E540287FF6E2AE44F097
:1046D00002040EEBC401029E4E60BAB19DF80410B4
:1046E000834A19703346403888F8005040334EF8FA
:1046F0003420E7E69DF8043033700204029B0D700D
:1047000042F0C80203444EF83C20D8E69DF804105D
:104710001970029B774A88F80050403840334EF8B1
:104720003420CFE619F0080F0CBF022303238B556A
:1047300058E4714A0F21117060E6704A5468002CE9
:10474000BBD06888B5F804E003E00C325468002C54
:10475000B3D013888342F8D153887345F5D1000A4A
:1047600003280CBF94F800E0B2F808E003E0644AC4
:10477000644C12782270E888704580F03F8162496D
:104780000D784028844645F0020E28BF4FF0400CBB
:1047900004EB0C0309EBCE02029301235460CCEB33
:1047A00000004FEA0C4800220193C8245EE6554CF5
:1047B0004FF0020E22706270DDE7B1F5A06F7FF45A
:1047C0007CAF0123002201933DE642F22132914267
:1047D000F7D072E76A88002A7FF46FAF3A48CDF8C5
:1047E00004E089000844017821F0020101702AE602
:1047F00000F082F9002800F0EF8008303D4AC4F84C
:104800008400C4F8802000F077F9002800F0DE80F2
:104810000830374AC9F88C00C9F8882038E700F01A
:104820006BF9002800F0C0800830324AC8F8440014
:10483000C8F8402000F060F9002800F0AF80083090
:104840002B4AC9F84C00C9F8482008E700F054F991
:10485000002800F0CD800830264AC9F82400C9F8A5
:10486000202000F049F9002800F0BC800830204AE0
:10487000C9F82C00C9F82820E3E600F03DF900282B
:1048800000F09E8008301B4AC8F86400C8F8602019
:1048900000F032F9002800F08D800830144AC9F881
:1048A0006C00C9F86820E7E6C86B083800F044F9E6
:1048B00004E5486B083800F03FF9F9E4C86A0838A5
:1048C00000F03AF9EEE400BFC02007408020074026
:1048D000A0820000C42007402997FF1FC82007407E
:1048E000CC200740D02007400080FF1F94200740C5
:1048F000C800400088004000BD96FF1FA482000051
:104900003497FF1F2C97FF1F2897FF1F606A0838F6
:1049100000F012F9C0E4C86F083800F00DF9FDE4AA
:10492000486F083800F008F9F2E4C86E083800F063
:1049300003F9E7E4486E083800F0FEF8DCE4C86DDF
:10494000083800F0F9F8D1E4486D083800F0F4F8C0
:10495000C6E4C86C083800F0EFF8BBE4486C0838CF
:1049600000F0EAF8B0E4D1F89C00083800F0E4F870
:10497000ECE4D1F89400083800F0DEF8E0E4D1F877
:104980008C00083800F0D8F8D4E4D1F88400083856
:1049900000F0D2F8C8E44FF0020EECE62A78C9F82D
:1049A000480001322A705AE62A78C8F840000132DD
:1049B0002A703FE72A78C9F8680001322A705BE65E
:1049C0002A78C8F8600001322A7061E72A78C9F8AD
:1049D000880001322A705BE62A78C4F88000013230
:1049E0002A7010E72A78C9F8280001322A7028E6D0
:1049F0002A78C9F8200001322A7032E7BEF1400F50
:104A0000F44628BF4FF0400C04EB0C030293012343
:104A1000CCEB0E004FEA0C480022019318E500BFD2
:104A2000F8B501F03DF9294B29482A4C2A4F2B4D66
:104A3000DFF8BCC0DFF8BCE0294E00221A605A60E3
:104A40009A60DA601A615A619A61DA611A625A628E
:104A50009A62DA621A635A639A63DA631A645A646E
:104A60009A64DA641A655A659A65DA651A665A664E
:104A70009A66DA661A675A679A67DA67C3F8802017
:104A80000168C3F8842041F480210160C3F3072149
:104A90002170C3F30740134938701B0E2B70FF239E
:104AA0008CF80030104D8EF8003010480B70012348
:104AB000337084F8642070264FF40074102207F8D5
:104AC0002C3C2E70046081F8F820F8BD0080FF1F98
:104AD000348004409C200740B0200740B4200740A9
:104AE000942007401020074049E400E008E100E07E
:104AF000802007408820074072B60D480268B2FA4D
:104B000082F30B2B10DC4FF00041D94022EA010266
:104B1000026062B6074803EBC303DB00C218002142
:104B2000C15010465160704762B60020704700BF08
:104B30002489FF1FBC83FF1F0D4B0E4AC31AA2FB23
:104B400003231B090B2B0CD80B4A127852B972B6EF
:104B50000A484FF00041026821FA03F31A43026049
:104B600062B67047064A1278002AF0D0FFF74AB9B9
:104B7000BC83FF1F398EE3382997FF1F2489FF1F4D
:104B80003497FF1F38B50F4D286878B143880288E5
:104B9000C118013393420C7A02D24380204638BDBB
:104BA000FFF7CAFF002320462B6038BD064B1B7859
:104BB0002BB10320FFF7F2F828600028E6D14FF070
:104BC000FF3038BD4897FF1F3497FF1F10B5094CC1
:104BD000206818B143881844007A10BD064B1B7832
:104BE0002BB10320FFF7DAF820600028F2D14FF054
:104BF000FF3010BD4897FF1F3497FF1F044B054A35
:104C00001B6890881BB11A885B88D31A18447047B8
:104C10004897FF1F3099FF1F0B4B1B789BB110B5B6
:104C20000A4C206848B1FFF787FF00230320236068
:104C3000FFF7B4F830B1FFF77FFF0320FFF7AEF8BE
:104C40000028F8D110BD70473497FF1F4897FF1F09
:104C50002DE9F04FDFF8F89083B0012289F80020A9
:104C6000019169B3DFF8EC80364F019E8346D8F896
:104C70000000B0B3344D4488C4F14001B14228BFB4
:104C8000314604EB010E00221FFA8EFE2A70761ABE
:104C9000A0F802E000F1080251B1013C224459445D
:104CA0001BF8014B02F8014F8B45F9D1B0F802E037
:104CB000BEF13F0F0BD8254A05211170002ED6D129
:104CC0000198002389F8003003B0BDE8F08F40223E
:104CD000028001460420FFF7F9F80022C8F80020FE
:104CE000E9E73A782AB3184D4AF2F9244FF0010A5D
:104CF00007E0013C16D02A78A2B900F045FD3A78C9
:104D0000BAB10420FFF768F80728F2D889F800A0A4
:104D1000FFF7F2FEC8F800000028ACD10C4B013CB4
:104D20001870E8D101234FF0FF302B7003B0BDE8BD
:104D3000F08F00234FF0FF3089F8003003B0BDE85A
:104D4000F08F00BF3497FF1F4497FF1F3C97FF1F52
:104D50003D97FF1F4097FF1F00B583B002AB0121B5
:104D600003F8010D1846FFF773FF03B05DF804FB6D
:104D700038B50E4D0E4C28680123237028B14088A9
:104D800000232370C0F1400038BD0A4B1B7813B9D3
:104D90000020207038BD0420FFF71EF80728F7D840
:104DA000FFF7AAFE28600028E9D1F1E74097FF1F2E
:104DB0003D97FF1F3497FF1FF8B5114B1B788BB140
:104DC000104E114D346801272F7064B10F4A63886B
:104DD00000271770214623800420FFF777F83760FB
:104DE00000232B70F8BDFFF787FE084B28B1014662
:104DF00004201C70FFF76AF8F2E71F70F0E700BFAD
:104E00003497FF1F4097FF1F3D97FF1F3C97FF1FE1
:104E100038B50E4B1B7873B90D4C216861B103F0A6
:104E2000FF054B880B800420FFF750F8256038BD44
:104E3000084B01221A7038BDFFF75EFE0028F7D03C
:104E40000146BDE838400420FFF740B83D97FF1FFA
:104E50004097FF1F3C97FF1F10B4EFF3108272B60C
:104E6000437F33B9017F012907D003290FD00123E4
:104E7000437702B962B610BC7047124C2168A1B1E9
:104E8000114943610B68836108605861EFE70F4C7B
:104E9000216881B10E4943610B68836108605861E4
:104EA0000C4B4FF080511960E1E7074B4161816184
:104EB00020601860DBE7064B41618161206018606B
:104EC000EEE700BF6097FF1F5C97FF1F5097FF1F23
:104ED0005497FF1F04ED00E070B5EFF3108272B637
:104EE0000C4C206880B10C4E00254369236073B1DF
:104EF0009D6102B962B6457783689847EFF31082E7
:104F000072B620680028F0D102B962B670BD336075
:104F1000EFE700BF5097FF1F5497FF1FFFF7DCBF5D
:104F2000184A30B41468002C27D0036821688B42DB
:104F30000ED2CB1A00218460C1602360E060106053
:104F40000223037530BC704711688B42144608D3A6
:104F5000A2685B1A0360002AF6D18260C460A06078
:104F6000EEE7D268C2608460E060C568CB1A0222B6
:104F7000A8602360027530BC70478460C460106014
:104F8000DEE700BF5897FF1FF8B5224E34682CB3F8
:104F90002368002B3AD1204F1D4604E03468ECB161
:104FA0002368002B32D1A36803B1DD602069336030
:104FB000036825751B68BB4221D1037F4560022B26
:104FC000C46020D0FFF748FF6368002BE6D0236061
:104FD0002046FFF7A5FF3468002CE1D1EFF31083E2
:104FE00072B60E4A00211068116003B962B628B18A
:104FF0008468FFF795FF20460028F9D1F8BD2246C6
:1050000000219847E0E783689847DDE7013B23608C
:10501000E4E700BF5897FF1F352700006897FF1F80
:10502000024A136801331360FFF7AEBF5096FF1FAB
:10503000704700BF024A034B012111601B681847EB
:105040000C7103402889FF1F024A034B01211160A4
:105050005B6818471C7103402889FF1F024A034BF5
:10506000012111609B6818472C7103402889FF1F9C
:10507000024A034B01211160DB6818473C71034071
:105080002889FF1FF8B50E4671B17AB1074614465C
:1050900000253B6816F8011B1B6838469847013C01
:1050A0000544F6D12846F8BD0846F8BD1046F8BDBF
:1050B0002DE9F0438C688BB0ECB10025064689469B
:1050C0002F462B46212201A9484600F025FB3268D5
:1050D000202C234628BF2023D2F8048001A91A4699
:1050E00030461D44E41AC0470744002CE9D1384635
:1050F0000BB0BDE8F0832746F9E700BF00B5064ACC
:10510000036812885B6883B001A9ADF8042002220D
:10511000984703B05DF804FB68820000F0B50746CD
:105120008BB0002A33D0012A08BF0A2251B32124B0
:1051300000E0F4B2B1FBF2F502FB1511C8B2092987
:1051400000F1300198BFC8B20AA988BF37302144A6
:1051500088BFC0B201F8240C661E2946002DE8D194
:1051600033B1013CE4B20AAB23442D2203F8242CD2
:105170003B6801AA11195B683846C4F122029847BE
:105180000BB0F0BD30228DF825202124E8E703681C
:10519000C9B21B6898470BB0F0BD00BF0029BABF69
:1051A00049422D2300230A22FFF7B8BFFFFFFFFF6C
:1051B0002DE9F04385B080461946104616461F4635
:1051C0009DF8305001F006FA002840F0B18027F039
:1051D0000044304621464FF0FF32594B01F0FAF9B6
:1051E00098B9304621464FF0FF32554B01F0D4F9C3
:1051F00058B9D8F8003053495B68404603229847B5
:105200008146484605B0BDE8F083304639464FF048
:1052100060424D4B01F0D4F9002870D13046394638
:105220004FF06042494B01F0ADF9002867D130469C
:1052300039460022002301F0A5F9002863D18146F8
:10524000002D65D0424B00240022104619463AA397
:10525000D3E9002300F024FF01340B46E1B28D4274
:105260000246F2D83046394600F068FD0F46064641
:1052700001F0C6F9044600F09DFE02460B4630469A
:10528000394600F059FD4B4606460F460A22214694
:105290004046FFF743FF0F2D28BF0F2501352E2372
:1052A0008146EDB28DF8003001240022294B3046B2
:1052B000394600F0F5FE0F46064601F0A1F904ABB1
:1052C0002344C0B200F1300203F8102C00F082FE3B
:1052D00002460B463046394600F02EFD0134E4B25A
:1052E000AC4206460F46E0D1D8F8003022465B6853
:1052F000404669469847484605B0BDE8F083D8F86F
:105300000030154978E707F100474FF0010997E7AA
:1053100000220F4B3046394600F010FD01F070F9C5
:105320004B4601460A224046FFF7F8FE814668E7F1
:10533000D8F8003009495FE7000000A09999B93F0B
:10534000FFFFEF7F74820000FFFFEF41FFFFEFC11F
:105350000000E03F00002440708200006C820000EA
:1053600070B50E4D82B02B680093009E044608E095
:1053700000F00AFA2B680193019BA2689B1B9342E1
:1053800007D2236820465B6998470028F0DB02B00B
:1053900070BD4FF0FF3002B070BD00BF5096FF1FD0
:1053A0002DE9F047089E0025074688469246AB4205
:1053B00008BF2E4699462C463846FFF7D1FF0028F5
:1053C00010DD18F8043098420FD000241EB119F8EF
:1053D000053098420FD03846FFF7C2FF00284FF043
:1053E0000005EEDC0020BDE8F08701345445EDD324
:1053F0000120BDE8F0870135B542DDD3F2E700BFFB
:1054000070B50E4D82B02B680093009E044608E0F4
:1054100000F0BAF92B680193019BA2689B1B934291
:1054200007D2236820469B6998470028F0DB02B02A
:1054300070BD4FF0FF3002B070BD00BF5096FF1F2F
:1054400010B5044606E02D2B0CD0092A0AD9236892
:105450005B6998472046FFF7D3FF031EA3F1300294
:105460002046F0DA184610BDE1B1F0B50C4683B025
:1054700015460646A2B1104602F042F907462046FC
:1054800002F03EF9237813B9012003B0F0BD0246C3
:1054900000972B4621463046FFF782FF03B0F0BD50
:1054A0001746ECE7012070470022FFF7DDBF00BF81
:1054B000F8B50D460446FFF7C3FF002823DB00269E
:1054C0003746A842A0F1300209D02D2817D006EBAC
:1054D0008603092A00EB430001D8A0F130062368B7
:1054E00020465B6998472046FFF78AFFA0F130030A
:1054F000092BE6D9A842E4D01FB17042F8BD0127BC
:10550000EDE73046F8BD0020F8BD00BF0121FFF7F0
:10551000CFBF00BF10B50446006801F05DFA204619
:1055200010BD00BF38B543688B4201D3012038BDA0
:105530000D4604460131006801F0F6FD0028F6D062
:10554000A36884E82100002BF0D10370EEE700BFD0
:10555000F8B50446154632B9036803B11A70002342
:10556000A3602046F8BD0E461146FFF7DBFF074655
:1055700048B9206810B101F02FFA2760002363605A
:10558000A3602046F8BDA5603146206802F03EF8D1
:10559000E7E700BF38B5002304460360436083603B
:1055A000037341B108460D4602F0AAF829460246A7
:1055B0002046FFF7CDFF204638BD00BF00238842BC
:1055C00010B50446036043608360037303D08A68A8
:1055D0000968FFF7BDFF204610BD00BF38B505467E
:1055E00008460C4602F08CF8214602462846BDE8E3
:1055F0003840FFF7ADBF00BF10B50446002386B0AA
:1056000023606360A3602373084601A901F0DAF9FF
:1056100001A92046FFF7E2FF204606B010BD00BFFB
:1056200038B5054600680C4628B16A688B689A420E
:105630000CD201F0D1F923686168A2682B600023C5
:105640006960AA6023606360A36038BD096801F0E7
:10565000DDFFA368AB600023A36038BD814203D0A7
:105660008A680968FFF774BF704700BF884210B5A9
:10567000044601D0FFF7D4FF204610BD2DE9F843C2
:1056800003680F46BB420446816815460AD85A187B
:10569000974207D2C3EB07094FF0010835B92046FE
:1056A000BDE8F8834FF00008002DF8D04E193146C0
:1056B0002046FFF737FF0028F1D0B8F1000F0ED0D9
:1056C0002368A0682A4603EB09011844FEF7C6F8D0
:1056D000236800229A55A6602046BDE8F88320681A
:1056E000A3683946184401F091FFF4E710B58A68C1
:1056F00009680446FFF7C2FF204610BD38B50546CD
:1057000041B108460C4601F0FBFF214602462846FF
:10571000FFF7B4FF284638BDB2B1A9B138B58468E7
:105720009C420ED9E41A013A0D469442016828BF02
:10573000144619442246284602F050F800232B55FF
:1057400038BD00230B7038BD704700BF08B5FAF7AD
:105750008BFFFBF70FF900F017F8FAE7FFF75CBAD9
:10576000FFF734BAFFF70EBAFFF748BAFFF724BBCA
:10577000FFF7FEBA08461146FFF76ABA0846FFF778
:10578000EBBA00BF704700BF38B5224C237803B195
:1057900038BD01232370FFF731FA70BB00F0D8F851
:1057A00040BB00F06BF910BB00F0FEF9E0B900233C
:1057B0002370EFF30583002BEAD1EFF3108172B66B
:1057C000154B1868E0B1154C2278CAB945691D60BF
:1057D00001232370C5B1AA6101B962B600254577DE
:1057E000836898472570D3E700F0A0FADFE700F060
:1057F0009BFAD9E700F096FAD3E7FFF7C3FFCDE7AE
:105800000029C5D162B638BD054B1D600029E5D120
:10581000E3E700BF6D97FF1F6097FF1F6497FF1FAF
:105820005C97FF1F30B42948294A2A4B2A4D60242F
:10583000E121047011701B78284C082B30D00A2B02
:105840002748284937D00C2B0CBF35223D22122384
:105850002A60236002600B60234B24491B78244A92
:10586000BBB101230B601360224B23491B78234AF1
:10587000012B26D9042B0FD9082B1ED9102B94BF2E
:10588000862387230B6013601D4B01221A7030BCE6
:1058900070470B601360E7E784230B601360F3E746
:1058A00000F58E200F490830012213232A6023605F
:1058B00002600B60D0E73922F7E785230B601360A5
:1058C000E2E780230B601360DEE700BF0040074083
:1058D000014007404889FF1F08B003400CB0034057
:1058E00008B00B400CB00B406F97FF1F20B0034077
:1058F00020B00B404989FF1F24B0034024B00B4067
:105900006E97FF1FF0B44D1E2E46002400E00134B8
:10591000B0FBF2F302FB1300092800F130078ABF45
:105920003730F8B2C0B206F8010F1846002BEED19E
:105930000A1953704CB1107815F8016F28700133B3
:10594000E01A834202F80169F5DB0846F0BC7047B3
:10595000054A064B10781B78C0B2DBB2984238BFBC
:105960004030C01A704700BF7497FF1F7597FF1F24
:10597000F0B4384B1A7912F0300F2CD072B6997DF2
:1059800001F0FF0200293DD062B6334F3349387829
:105990000D78334E1C46C0B2EDB2431C402BE1796A
:1059A00028BF0023AB4202F1FF32C9B21CBFF15441
:1059B000184612F0FF02F0D12A4B1B68C2B23A70AF
:1059C0004BB1A84236BFC5F14005401B40192728FE
:1059D000C4BF01221A701F49CA78D2B2150616D464
:1059E00052060DD51B4B1B795B0609D51E4B1F4973
:1059F0001B6800220A7003B11A70164B3C22DA7041
:105A0000F0BC70474022D9795A7462B6E3E70B794B
:105A10001C06E5D5164B174E1C783378E4B2DBB282
:105A20009C420ED0144D01E0A3420AD00133402B1A
:105A300028BF00230879E85CC0B2C871087D072838
:105A4000F2D9DBB2034933700B79180644BF7C23CB
:105A5000CB70C5E700A006407497FF1F7597FF1F26
:105A6000B897FF1F7097FF1FFC97FF1FF897FF1F46
:105A70000098FF1FF997FF1F7897FF1F054A064BF5
:105A800010781B78C0B2DBB2984238BF4030C01AE1
:105A9000704700BF7498FF1F0998FF1FF0B4384B80
:105AA0001A7912F0300F2CD072B6997D01F0FF02F6
:105AB00000293DD062B6334F334938780D78334EE4
:105AC0001C46C0B2EDB2431C402BE17928BF002335
:105AD000AB4202F1FF32C9B21CBFF154184612F0BA
