:1000000000800020BD01000025530000DD520000EB
:10001000DD520000DD520000DD520000DD52000024
:10002000DD520000DD520000DD52000025530000CB
:1000300025530000DD520000896F00008D70000024
:1000400025530000255300002553000025530000D0
:1000500025530000255300002553000025530000C0
:1000600025530000255300002553000025530000B0
:1000700025530000255300002553000025530000A0
:100080002553000025530000255300002553000090
:100090002553000025530000255300002553000080
:1000A000994A0000A54A000025530000255300008E
:1000B0002553000025530000255300002553000060
:1000C0002553000025530000255300002553000050
:1000D0002553000025530000255300002553000040
:1000E0002553000025530000255300002553000030
:1000F00025530000F1780000255300001D7A000010
:1001000025530000497B00002553000025530000C3
:1001100025530000255300002553000025530000FF
:1001200025530000255300002553000025530000EF
:1001300025530000255300002553000025530000DF
:1001400025530000255300002553000025530000CF
:1001500025530000255300002553000025530000BF
:10016000255300003D5B000025530000255300008F
:10017000255300002553000025530000255300009F
:10018000255300002553000025530000255300008F
:10019000255300002553000025530000255300007F
:1001A000255300002553000025530000255300006F
:1001B0002553000025530000456D0000564B4CF2BE
:1001C000205210B51A804DF628121A8000BF00BFC9
:1001D00005F0ACF8514B4FF010621A60504A9A602B
:1001E000504ADA60504A136813F4807304D14F49BF
:1001F0000B604FF4A85313604D4B1A78110703D5C9
:100200001A7842F008021A704A4B4B492A221A7097
:100210004A4A4B4B8B4204D252F8040F43F8040B6A
:10022000F8E7484B484900228B4202D243F8042B9E
:10023000FAE74649464A002352F8230041F82300D2
:1002400001336F2BF8D1434B434A802103F8011B44
:100250009342FBD1414B3D4A1A60414B8A221A70AE
:10026000A3F5805324225A70A0221A709A7992071B
:10027000FCD59A79D406FCD43A4A937903F00C035E
:10028000082B384BF9D103221A7140225A719A79FE
:100290009006FCD5334A9179324B4906FBD5324A58
:1002A000324911600221516020221A709A7902F0BD
:1002B0000C020C2AFAD12E4B2E4A1A602E4B2F4AD2
:1002C0001A6000225A60072243F8042C2C4AC3F813
:1002D0000C2D62B605F0E8FA144B1B68DA0705D559
:1002E000284805F069F9284B284A1A60284B1B78E2
:1002F0005B0609D5244C254B22689A4204D121483B
:1003000005F05AF90023236008F060FC05F014F8AA
:1003100007F04CFAFEE700BF0E2005403080044095
:10032000823F04000100002B10D0034014D0034092
:1003300002D0074000E0074014D3FF1F74A700005D
:1003400020C7FF1F18D3FF1F38F8FF1F00C2FF1F71
:100350000000000000E400E05FE400E008ED00E0E1
:100360000050064000400640448004400000030165
:1003700004800440C010050014E000E0FF76010096
:1003800000002020594ABC621CE00340A5C3945AD7
:1003900000F00740FFFFFFFFFFFFFFFFFFFFFFFF32
:1003A000FFFFFFFFFFFFFFFFFFFFFFFFFFFFFFFF5D
:1003B000FFFFFFFFFFFFFFFFFFFFFFFFFFFFFFFF4D
:1003C000FFFFFFFFFFFFFFFFFFFFFFFFFFFFFFFF3D
:1003D000FFFFFFFFFFFFFFFFFFFFFFFFFFFFFFFF2D
:1003E000FFFFFFFFFFFFFFFFFFFFFFFFFFFFFFFF1D
:1003F000FFFFFFFFFFFFFFFFFFFFFFFFFFFFFFFF0D
:10040000FFFFFFFFFFFFFFFFFFFFFFFFDEF9FFFF23
:1004100010B5054C237833B9044B13B10448AFF33E
:1004200000800123237010BD18D3FF1F00000000BF
:1004300078A70000084B10B51BB108490848AFF376
:1004400000800848036803B910BD074B002BFBD0A0
:10045000BDE81040184700BF000000001CD3FF1F7C
:1004600078A7000014D3FF1F0000000010B5044B54
:10047000044640F8183B02F0A5FB204610BD00BF23
:10048000E0A3000005F092B810B5044606F004FCA5
:10049000204610BD002310B4104C4172026104606C
:1004A0000372C36041B1194600E0026942F82310AB
:1004B000427A01339A42F8DC094B1A680AB90BE018
:1004C0001A465369002BFBD150610023436183809E
:1004D000C380837210BC70471860F6E764A1000007
:1004E0000CF6FF1F10B50E4C2368022B14DCFF2105
:1004F000282005F073F84FF4FA7005F087F9002111
:10050000282005F06BF84FF4FA7005F07FF92368A6
:100510000133022B2360EADD0023236010BD00BFFE
:10052000E4D5FF1F08B50C21064806F087F90648F8
:1005300006F0F0FD0549064801F0DAFF054B0222FE
:100540001A6008BD68A1000024CAFF1FC8D5FF1F9C
:1005500008D6FF1F34D3FF1F10B50B2109480A4CE2
:1005600006F06CF9094806F0D5FD2368022B02D08D
:100570000023236010BD064801F09AFF002323608A
:1005800010BD00BF78A1000034D3FF1F24CAFF1F95
:1005900008D6FF1F08B50F2004F004FE08F0CAF8C3
:1005A000074908F0CFF9074908F018F9064B186019
:1005B00008F0DAFABDE808400146044801F068BADC
:1005C00000C09E4400007C4208C8FF1FC4D3FF1F28
:1005D00008B50549054806F073FF00B908BD034892
:1005E000BDE8084006F09EBF84A1000024CAFF1F9A
:1005F00010B50221002005F003F90221084605F09C
:10060000FFF80221042005F0FBF8414804F010FC3B
:10061000642005F0FBF804F003FC022814BF3D48F9
:100620003D481B2106F00AF93C4806F073FD06F030
:10063000DBF8002861D13A4C3A483C2106F002FA36
:10064000204601F05BFA204640F273122A2101F0A5
:10065000F3F9002842D1344B3449186808F0BEF849
:10066000334907F0B3FF08F07FFA01462C4801F048
:10067000E3FA304B186808F077FA0146284801F091
:1006800007FA2D4B2D484FF48032072100249C613E
:10069000DA6102F063F90E21284802F0A7F9172168
:1006A000274806F0CBF80A21264802F071FB60B11A
:1006B0001421254806F0C2F8184806F02BFD4FF427
:1006C0007A70BDE8104005F0A1B816211F4806F069
:1006D000B5F81248BDE8104006F01CBD8822202164
:1006E000204601F0A9F90028B5D0E288204622F082
:1006F0000402242101F0A0F9ADE7FFF769FF0446E9
:10070000002898D004F058FF204604F067FB92E7D9
:100710008504000088A10000A4A1000024CAFF1FD6
:10072000C4D3FF1F0082FF1F18C8FF1F0000014332
:10073000EE7CFF3E08C8FF1F3CD3FF1F1CC8FF1FF5
:10074000C0A1000078F2FF1FF0A10000D8A10000B6
:1007500030B58DB00D4604460A22684606F058FFB3
:10076000092D0DDD6946124806F084FF1049204628
:1007700006F030FF684606F0D9FE20460DB030BDC9
:1007800004A80C4906F012FF694604A806F0BAFF57
:10079000014608A806F01EFF08A9054806F072FFEA
:1007A00008A806F0C3FE04A806F0C0FEDEE700BFFE
:1007B00030D5FF1F08A2000000B59DB004F0ACFAD0
:1007C00001466846FFF7C4FF04F0B6FA014604A8E4
:1007D000FFF7BEFF04F0C0FA014608A8FFF7B8FF14
:1007E00004F0DAFA01460CA8FFF7B2FF04F0C4FAED
:1007F000014610A8FFF7ACFF04F0DEFA0A2201461A
:1008000014A806F005FF10A918A806F0E3FE0CA92D
:1008100018A806F077FF14A906F074FF01462948CE
:1008200006F028FF18A806F081FE2749254806F0A3
:1008300095FF68B903460C222449224806F09CFF24
:100840002249234802F0C2FB1E491F4806F012FF4E
:10085000204918A806F0AAFE1A4918A806F052FF67
:100860001C4906F057FF694606F04CFF04A906F044
:1008700049FF08A906F046FF174906F04BFF01465D
:10088000164806F0F7FE18A806F050FE1349144863
:1008900006F01AFC124806F03DFC14A806F046FECD
:1008A00010A806F043FE0CA806F040FE08A806F0CB
:1008B0003DFE04A806F03AFE684606F037FE1DB07D
:1008C0005DF804FB54D6FF1F68D6FF1F80D5FF1FBD
:1008D00078F2FF1F0CA2000010A2000070D5FF1FCD
:1008E00024CAFF1FFFFFFFFF10B50E218AB0364854
:1008F00005F0A4FF354806F00DFC0D21344805F045
:100900009DFF0223009331482DA3D3E9002306F075
:100910005BFC2E4806F0FEFBFFF74EFF2D492E48EC
:1009200000231A2206F028FF2A492C4802F042FB35
:10093000002840D102A81323264A284902F0C6FA0B
:100940000AAA2748049B12F8144D9DF80C108360E6
:100950000473017100F10D031A3012F8011F03F83E
:10096000011B83421E4CF8D1099BE36102A802F0EF
:1009700029F9204602F04AF948B91A4B1968134878
:1009800006F018FC114806F0C5FB0AB010BD09219D
:10099000154C164805F052FF0C4806F0BBFB2046EC
:1009A00001F078FE0F48124B0121002284F8F61066
:1009B00001601A60E3E70749084802F013FBB9E752
:1009C000000000C0B48AE54018A2000024CAFF1F3E
:1009D00028A20000C8D5FF1F70D5FF1F78F2FF1FA7
:1009E00084D3FF1F34D3FF1FDCD3FF1F38A20000C6
:1009F000D8D3FF1F2DE9F04F002183B0B748DFF8AF
:100A000004A3B74FDFF854B306F0D0FDB54AB6499A
:100A1000B24808F0C9F80021B44806F0C7FDB14A51
:100A2000B149B24808F0C0F8B149B24806F0BEFD7D
:100A3000AC4AAD49AF4808F0B7F80021AE4806F01F
:100A4000B5FDA84AA849AC4808F0AEF8DAF800208D
:100A5000C7F800B000237B723B613B72FB600AB9B0
:100A600035E11A465369002BFBD157610024A34B93
:100A70009B487C61BC80FC80BC72A14E3B6001F055
:100A8000E9F9DAF800207472C6F800B03461347203
:100A9000F4609C4B0AB91DE11A465369002BFBD147
:100AA00056610025984B33609848994B7561B58025
:100AB000F580B572DFF8A892019302F075F89048BE
:100AC000DFF8A082934C01F0EDFC864A92498C48F5
:100AD00008F06AF809F1180201214846FFF7DAFC2C
:100AE0008E49C9F8001008F128020421404689F80F
:100AF000F450C9F8F05089F8F55089F8F650FFF72E
:100B0000C9FC019B8649C8F800104FF48031854A22
:100B1000C8F818101846C8F81C10C8F82010C8F8F3
:100B200024100121FFF7B6FC019BC4F800B041F688
:100B30008C0141F68F024FF0020E5D549D5404F17A
:100B40001801794A1A6084F809E02A462846257275
:100B5000E5602161A64601E0DEF8101041F82200B0
:100B6000617A6C4D01329142F6DCDAF80010654A88
:100B700009B9B1E011464A69002AFBD14C61002550
:100B8000DFF8E4B1694A6561A580E580A572614836
:100B90000193DFF8D8A1226001F0D0FB58468BE822
:100BA00080028BF808508BF80950CBF80C508BF86A
:100BB000105006F03DF84B4A5D49584607F0F4FFE7
:100BC000DFF8ACB18AF808504FF0010950468AE8C6
:100BD0008001CAF80C508AF810508AF8099006F083
:100BE00027F8404A5249534F504607F0DDFFDFF8DF
:100BF00084A18BF8085058468BE840018BF80950C7
:100C0000CBF80C508BF8105006F012F8354A4849D2
:100C1000584607F0C9FF019BCAF804305046CAF88D
:100C200000608AF808508AF80950CAF80C508AF80F
:100C3000105005F0FDFF2B4A3D493F4E504607F04E
:100C4000B3FF38467C603D72C7F800807D72FD605E
:100C50003D7405F0EDFF234A3549384607F0A4FFFF
:100C60003046746086F80990C6F800803572F560E9
:100C7000357405F0DDFF30461A4A2D4907F094FF20
:100C80002E4B2F4A1A6029460A2408222D481C722E
:100C900000F0E8FB082202212B4800F0E3FB0822C9
:100CA00004212A4800F0DEFB294801F07DFF0D4AAF
:100CB0002849274807F078FF274801F075FF094ABF
:100CC0002449254803B0BDE8F04F07F06DBFCAF8CE
:100CD0000070CBE61E60E4E6156050E770D5FF1F9C
:100CE0008CD5FF1FFCC7FF1F2D75000054D6FF1FBA
:100CF00008A2000068D6FF1F30D5FF1FBCA300006C
:100D000008D6FF1F0CF6FF1FE0A3000020D6FF1F30
:100D100078D6FF1FA4D5FF1F6D040000ECA30000D0
:100D2000C8A30000CCEFFF1F94A30000D4A30000D1
:100D30008904000014D5FF1F5CD5FF1FC4D3FF1F1B
:100D4000A0A30000F8D5FF1F74D3FF1FE8D5FF1F35
:100D500084D3FF1FC52B0000A4D3FF1F64A1000094
:100D6000DCD3FF1F3CD3FF1FD4D4FF1F44D5FF1F8C
:100D7000ECD4FF1F00D5FF1F30B5154CADF5017D3C
:100D8000204601F0ADFC4FF4807501462A466846C6
:100D900004F05CF8204601F0C1FC204601F0A0FC04
:100DA0002A4601460DEB050004F050F8204601F0FC
:100DB000B5FC69464FF40072064801F07BFE064A16
:100DC000136803F5007313600DF5017D30BD00BF9E
:100DD000DCD3FF1F84D3FF1FD8D3FF1F08B50548FE
:100DE00001F04CFC012803DDBDE80840FFF7C4BF5B
:100DF00008BD00BFDCD3FF1F2DE9F04F704BDFF8BB
:100E0000F0B1DFF8F0A1DFF8F0916E4CD9F80010E6
:100E1000DBF80020DFF8E481DAF800501B686A4E46
:100E2000C8F8003083B04FEAD10E243305FB02F539
:100E3000204601FB02F200210EFB05F53360019212
:100E400001F0C8FE042220466049614F01F032FEE5
:100E500036682046F1B201F015FEC6F307212046A0
:100E600001F010FEC6F30741204601F00BFE310EE3
:100E7000204601F007FE20460422564901F01AFEE2
:100E800004222046544901F015FE544B1E682046AA
:100E9000F1B201F0F7FDC6F30721204601F0F2FDA3
:100EA000C6F30741204601F0EDFD310E204601F06A
:100EB000E9FD4B4B1E682046F1B201F0E3FDC6F39D
:100EC0000721204601F0DEFDDBF800602046F1B28C
:100ED00001F0D8FDC6F30721204601F0D3FDDAF872
:100EE00000602046F1B201F0CDFDC6F30721204697
:100EF00001F0C8FDC6F30741204601F0C3FD310EE5
:100F0000204601F0BFFDE9B2204601F0BBFDC5F36C
:100F10000721204601F0B6FDC5F30741204601F048
:100F2000B1FD019A290ED608204601F0ABFDF1B2C1
:100F3000204601F0A7FD019A2046C2F3C72101F027
:100F4000A1FDD9F800502046E9B201F09BFDC5F3A0
:100F50000721204601F096FD04222046214901F098
:100F6000A9FDD8F800502046E9B201F08BFDC5F389
:100F70000721204601F086FDC5F30741204601F018
:100F800081FD290E204601F07DFD204601F030FE56
:100F90000E21154805F052FC384606F0BBF80B212F
:100FA000124805F04BFCD8F80010384600230A22FE
:100FB00006F0C0F8384603B0BDE8F04F06F0AAB816
:100FC000D8D3FF1F84D3FF1F4CD6FF1F48A20000B9
:100FD00024CAFF1F50A2000058A2000000C8FF1F33
:100FE0000CC8FF1F60A2000068A2000078A20000E9
:100FF00004C8FF1F10C8FF1F14C8FF1FD0D3FF1F56
:1010000038B50D211748184D05F018FC174806F0A3
:1010100081F82B68164A0021012B82F8F61002D0C5
:1010200000232B6038BD134C0EE001F059FB4FF448
:1010300080720146104801F03DFD0D4801F06EFB45
:10104000236803F580732360094801F017FB00282B
:101050000748EADCFFF7D0FE074801F0C9FD00238E
:101060002B6038BD84A2000034D3FF1F24CAFF1FA9
:10107000DCD3FF1FD8D3FF1F84D3FF1F2DE9F0411E
:10108000A348A44C88B000F023FAA34800F020FA4B
:10109000A24800F01DFA2568002D37D1FFF77AFA33
:1010A00006219F4805F0CAFB9E4B186806F064FFB6
:1010B000022602460B4600969B4806F085F89A48A1
:1010C00006F028F80821994805F0B8FB984B1868F5
:1010D00006F052FF009602460B46934806F074F85D
:1010E000914806F017F81921924805F0A7FB8E48A1
:1010F00006F010F8864800F011FA002840F0BA8097
:10110000C82004F083FB08B0BDE8F081804800F0FF
:1011100005FA00284DD0884C884D23682A68029231
:101120000133874A02991160042B2360854E00F237
:10113000D280794800F0F2F9074600285CD07F4B56
:10114000814D1A682B68059201337D4A059911601B
:10115000042B2B6000F2B1803268012A61D0022A90
:1011600063D06B4800F0DAF9002840F09280774EA7
:10117000694800F0D3F928B13368744F013B012B63
:1011800040F21881654800F0C9F9002840F0FE805F
:101190003368012B00F02081022BB4D16C4890F809
:1011A000403003F0FF04002BADD101F081F9346031
:1011B000A9E7614C674D22682B68624E9A42B8D00D
:1011C0003768002FB5D15D4B5D4A1B680493049BC3
:1011D00012689B1A642BACD907215F4805F02EFBDF
:1011E0003B460A222168504805F0A4FF4E4805F00E
:1011F00091FF23682B609CE7534DDFF858812A68E4
:10120000D8F800309A42A7D03268012AA7D14B4BB8
:101210004B4A1B680693069B12689B1A642B00F2CC
:10122000E480FFF75FF9022333604C4B4C491868A8
:101230000022884222605FD8444E3368002BA8D138
:101240003E4A48481268079207990268464C8A1A33
:10125000B2F57A7F2160454C80F0C28022682D2A49
:1012600000F0DB80424A116895297FF64CAF0021DF
:1012700011608EE73F4B4048DD6101224FF480351D
:1012800011219D61226005F0D9FA274805F042FF3F
:1012900036E70023132139482C4E2B6005F0CEFA97
:1012A000214805F037FF3368022B00F0AF80002B98
:1012B0007FF45EAFFFF718FB5AE700232421304884
:1012C000336005F0BBFA184805F024FFFFF798FEDD
:1012D000FFF708F940E7012321212A48336005F090
:1012E000ADFA114805F016FF2B6803931D4B039AC6
:1012F0001A60FFF7F9FA1CE71A60FFF781FE212157
:10130000214805F09BFA084805F004FF94E700BF68
:10131000F8D5FF1F64D6FF1F74D3FF1FE8D5FF1F4A
:1013200094A2000008C8FF1F24CAFF1F9CA200004F
:1013300018C8FF1FA8A2000040D5FF1F0CF5FF1F13
:10134000E8D4FF1F58D5FF1F50D6FF1F34D3FF1F0F
:1013500008D6FF1F2CD5FF1FFCA20000D8D3FF1F0B
:10136000BD220C0028D5FF1FC4D5FF1F38D3FF1F97
:10137000D4D3FF1F3CD3FF1FC4A2000050A3000022
:1013800004A30000D8A200002CA300000023112118
:101390002E4823602B6005F051FA2D482D4C05F0A6
:1013A000B9FE3368012B4AD0002B7FF4F5AEFFF76E
:1013B000B9F8EDE6002311212748236005F03EFA35
:1013C000234805F0A7FE3B68012B34D0022B7FF4A5
:1013D000D9AEFFF7C1F8D5E6FFF700FD3368DBE6CD
:1013E000226801600132226039E707211B4805F0BD
:1013F00025FA3B460A222968154805F09BFE144849
:1014000005F088FE2B68C8F80030A5E6FFF7A4F8C1
:101410003368002B7FF4ACAE4CE7FFF765FA104A57
:101420002368106803440021952B13602160336802
:101430007FF6AFAE1BE7FFF7E3FD3B68C6E7FFF7BC
:10144000DFFD2368002B7FF4A4AEB0E764A30000A7
:1014500024CAFF1F34D3FF1F78A30000FCA20000A2
:10146000D4D3FF1F30B5094B426083B01B68019392
:101470000D46019B0360002104468160284604F06C
:10148000B1F920732046657303B030BD0CF5FF1F22
:1014900030B5044683B0407B04F0A4F9237B83423B
:1014A00010D00A4A256813680093009B61685B1B93
:1014B0008B4207D313680193019B207301202360A3
:1014C00003B030BD002003B030BD00BF0CF5FF1FDE
:1014D00030B583B00446FFF7DBFFB0B9A3681BB992
:1014E0000023A37303B030BD0B4925680A6800923E
:1014F000009A521B9342F3D80B680193019BA060A2
:1015000001202360A07303B030BD01200023A3603D
:10151000A07303B030BD00BF0CF5FF1F837B23B168
:10152000007BB0FA80F0400970471846704700BF52
:101530002DE9F04F00F5807EB1E8A00AB2E8401531
:10154000C5EA0643C6EA2544C7EA0845C8EA27466D
:10155000C9EA0A47CAEA2948CBEA0C49CCEA2B4A2D
:10156000A0E8F8078645E7D1BDE8F04F70474FF097
:1015700000022DE9F00F00F5807C00BFB1E8A00A61
:10158000C5EA0203C2EA2544C7EA0205C2EA2746C1
:10159000C9EA0207C2EA2948CBEA0209C2EA2B4A91
:1015A000A0E8F8078445E9D1BDE8F00F70474FF097
:1015B00000022DE9F00F00F5807C00BFB1E8A00A21
:1015C000C2EA0543C2EA0504C2EA0745C2EA0706C1
:1015D000C2EA0947C2EA0908C2EA0B49C2EA0B0A91
:1015E000A0E8F8078445E9D1BDE8F00F70472DE980
:1015F000F00F089C00F5007B51F8045B53F8046B76
:10160000C5EA0647C6EA254952F8045B54F8046B5C
:10161000C5EA0648C6EA254AA0E880078345EBD11B
:10162000BDE8F00F704700BF2DE9F84FBDF8284026
:10163000042C2BD95D1CADB2042D94BFED00002508
:1016400003F102081FFA88F89A464B19B8F1040F03
:1016500081460E46D3E9000194BF4FEAC8084FF017
:101660000008174607F074F83D448346D5E90001A9
:1016700007F06EF80146584607F064F909F5C453BF
:1016800005460146186807F065FA20B90134A4B28E
:101690002046BDE8F88F06EB0803D3E9000107F008
:1016A00057F8B8448346D8E9000107F051F80146DD
:1016B000584607F047F980460146284607F02CFABD
:1016C0000028E3D04FEACA0A5644D6E9000107F0E1
:1016D0003FF8BA440646DAE9000107F039F8014656
:1016E000304607F02FF9294606464FF07E5006F0A7
:1016F0006BFF41F67C03414649F80300304606F093
:1017000063FF4FF07C5107F069F8294607462846E9
:1017100006F05CFF0146304606F056FF414606F0F3
:1017200055FF0146384607F00DF90546E01E80B228
:1017300007F000F80146284606F048FF41F6880306
:10174000002449F80300A3E72DE9F04F00F5C35347
:1017500089B08246183303930AF1780304930AF19F
:10176000280305930AF150030693008C0AF18003C5
:1017700007930AF548644FF0400B049B0799051D39
:1017800003EB4505002600270B8831F8102031F8BF
:1017900008EC35F8088CB1F808C0B5F808909A1A2A
:1017A00012FB02F2C8EB0E08D317B1F810E0C8FB29
:1017B0008823B5F81080C9EB0C0CCCFB8C23C8EB4C
:1017C0000E0ECEFB8E23B61801F120015F418C4234
:1017D00005F12005D8D182B2039BA2FB06891978B6
:1017E00002FB0799DAE906234D1C9219EDB27B4101
:1017F0000AEBC101042DC1E91423C1E90A89CAE930
:10180000062388BF0023039A059988BF1D461570DB
:1018100098BFABB20090069A5046FFF705FF70B133
:101820000BF1FF3B1FFA8BFBBBF1000FA5D1B0F50D
:10183000C06F18D2AAF8200009B0BDE8F08F41F6B9
:10184000900141F68F0201230AF801000AF80230E4
:10185000039A002400251370AAF82030CAE906452F
:1018600009B0BDE8F08F41F6900441F68F020AF806
:1018700004B00AF802B0039A01230020002113707B
:10188000AAF82030CAE9060109B0BDE8F08F00BF10
:101890002DE9F0410021044605F09CF9002852D0C2
:1018A00041F68C03E35C002B00F0AB8041F68D0326
:1018B0000146E35C41F6790041F68E02002B44D0EC
:1018C000235CA55C03F2246204EB82020133DBB2E9
:1018D00023545160002D40F0988041F69002A25CA4
:1018E000002A7CD1172B40F2978041F69003E35CED
:1018F00013B12046FFF728FF04F5C455103504F551
:10190000C7582F4608F1100804F1760657F8040F5F
:101910003246031D00F5827033F8021B22F8021FC5
:101920009842F9D1B84506F58076EFD155F8040F05
:1019300005F00CF94545F9D141F68D030022E2543A
:1019400040E0172B1AD8BDE8F081235CA55C03F2B8
:101950003C6204EB82020133DBB223545160002D60
:10196000EFD141F69002A25CCABB172B56D941F6C3
:101970009003E35C13B12046FFF7E6FE04F5C7557C
:10198000103504F5CA582F4608F1100804F1760600
:1019900057F8040F3246031D00F5827033F8021B1E
:1019A00022F8021F8342F9D1B84506F58076EFD1BF
:1019B00055F8040F05F0CAF8A845F9D141F68D0392
:1019C0000122E25441F6900041F68E0141F679027F
:1019D0000023012525546354A354BDE8F08120461B
:1019E000FFF7B2FE41F67903E35C172B12D941F6FB
:1019F0008D03E35CA3B941F68E03E35C002BB6D004
:101A0000BCE7BDE8F04105F0A1B8172B3FF674AF75
:101A1000BDE8F081BDE8F081BDE8F081BDE8F0816E
:101A200041F68E03E35C002B3FF45FAF64E700BF39
:101A30000020704700207047F8B5144C037A242921
:101A400008BFC2805B0001250E462046C1F3072176
:101A5000174684F83B3084F85E5084F85D5002F0FD
:101A6000EDFDF1B2204602F0E9FDC7F30721204663
:101A700002F0E4FDF9B2204602F0E0FD29462046DE
:101A800002F080FFB0FA80F04009F8BD58C8FF1F8F
:101A9000272938B50C46054609D9A1F1280440F29A
:101AA00073122A212846FFF7C7FF60B938BD1D29E8
:101AB00019D9A1F11E044FF4B9722A212846FFF763
:101AC000BBFF0028F2D00C4A6400A2FB043252088B
:101AD0000F2A28BF0F22284642EA02122021BDE821
:101AE0003840FFF7A9BF132986BFA1F1140440F2C3
:101AF00071124FF4B872D4E7ABAAAAAA70B5012646
:101B000004460671344802F0ADFD052003F07EFE68
:101B1000204644F260023021FFF78EFF0546002880
:101B200058D06C2226212046FFF786FF4FF4F97229
:101B300028212046FFF780FF40F622722C21204604
:101B4000FFF77AFF44F246423C212046FFF774FF3C
:101B500040F2371224212046FFF76EFF44F2FF02C5
:101B600030212046FFF768FF732202212046FFF74D
:101B700063FF4FF4C87003F049FE41F61D522E2159
:101B80002046FFF759FF042211462046FFF754FF75
:101B90004FF4987206212046FFF74EFF10220A21CB
:101BA0002046FFF749FF00220E212046FFF744FFA1
:101BB00043F63C4210212046FFF73EFF47F67F7276
:101BC00022212046FFF738FF362224212046FFF746
:101BD00033FF6672284670BD58C8FF1F10B5044613
:101BE00019B1012911D0002010BD55222021FFF785
:101BF00023FF0028F7D0E28842F00402204692B288
:101C00002421BDE81040FFF717BF40F273122A21CC
:101C1000FFF712FF0028E6D0882220212046FFF798
:101C20000BFF0028DFD0E288204622F004022421A6
:101C3000BDE81040FFF700BF38B50546F1B1802977
:101C400003799ABFC1F1800444EA0424002433B923
:101C5000224628462221BDE83840FFF7EDBEC28863
:101C6000002322F0100203712421FFF7E5FE224633
:101C700028462221BDE83840FFF7DEBE012303716C
:101C800047F67F722221FFF7D7FEEA8842F0100262
:101C9000284692B22421BDE83840FFF7CDBE00BFF0
:101CA0000B4610B507490446184606F097FD06494D
:101CB00006F08CFC06F058FF01462046BDE81040B7
:101CC000FFF7BABF00000143EE7CFF3E10B50446AB
:101CD00005F0DEF8204610BD024A0349034806F02D
:101CE00063BF00BFFCC7FF1FCD1C0000D0EFFF1F6C
:101CF00038B5074D074C08482A46214606F054FFE0
:101D00002A4621460548BDE8384006F04DBF00BFD1
:101D1000FCC7FF1FCD1C0000D8EFFF1FE0EFFF1F27
:101D20001B4A1C4B11681C48096970B4994212790E
:101D3000027009D2194A127832B3194A4FF0804121
:101D4000116003F5807402E01C46A3F58073154A08
:101D5000154912680D68AAB1A5B1144E3088402803
:101D600010D841000A444030294402320231308008
:101D700033F9040B22F8020F9C4233F9020C21F8CC
:101D8000020FF5D870BC704703F58074DFE700BF21
:101D9000F4F1FF1FECF0FF1F1F800040ECF1FF1F6C
:101DA00008E200E0FCF1FF1FF0F1FF1FE8EFFF1F6A
:101DB000F8B5064604F076FE0446E8B104F072FE7B
:101DC000054600283AD072B61F4B1A887F2A19D8C8
:101DD000002C31D01D490A6842B162B6204604F099
:101DE000B5FE2846BDE8F84004F0B0BE18480C60C7
:101DF0001A80056062B6F8BD054672B6124B1A88A5
:101E00007F2AE5D9114A12491768146000220C682C
:101E10001A800D6062B63946304604F0C1FE38467D
:101E200004F094FE30462146012204F0B9FE20461B
:101E3000BDE8F84004F08ABE62B6F8BD204604F062
:101E400085FE2C46BFE700BFE8EFFF1FFCF1FF1F38
:101E5000F0F1FF1FF8B5284C284E294F294D204698
:101E6000012104F0B1FF00F0EDF9274B274A284883
:101E70004FF480611960236800211A6099802279EB
:101E80001E6102F1804240F20116DE809F6102F580
:101E900004324FF480760627DE82DE839F8302269B
:101EA0008E27D9609E609E82117017702B68194E24
:101EB00043F0124343F001032B600368164D43F0D7
:101EC0001043036004F026FF2279144B144C187061
:101ED00053119B0003F16043174602F1100003F514
:101EE000614302F01F020121377001FA02F245F846
:101EF00020401A60F8BD00BFF4F1FF1FECEFFF1F98
:101F000000FEFFFF80F0024014B00440A2F0024047
:101F100000F002401B80004000C2FF1FECF1FF1FD9
:101F2000211D0000024A0349034806F03DBE00BFE0
:101F3000FCC7FF1FCD1C0000F4F1FF1F024A03493C
:101F4000034806F031BE00BFFCC7FF1FCD1C0000D8
:101F500000F2FF1F024A0349034806F025BE00BFF6
:101F6000FCC7FF1FCD1C000008F2FF1F024A0349F7
:101F7000034806F019BE00BFFCC7FF1FCD1C0000C0
:101F800010F2FF1F2DE9F8434FF00008064600F15C
:101F90001805474641463046002F4FD004F01AFE40
:101FA000F0B12C68B4F5803F07F1040100F1040E94
:101FB00007F5827C27D05EF8042B34FB02F334FB58
:101FC00012F903F30F0209F30F03C2EA03430A688D
:101FD00093FA12F341F8043B8C45ECD804F0B6FDBB
:101FE00008F10108B8F1040F05F10405D2D1002F62
:101FF00040D030463946002204F0D2FD3846BDE8D4
:10200000F84304F0A3BD07F10C0100F10C0451F8F2
:10201000083C54F8082C93FA12F341F8083C54F8A1
:10202000042C51F8043C93FA12F38C4541F8043C1B
:1020300004F1080401F10801E9D8CFE704F0D6FD66
:1020400007460028CCD02868B0F5803FC8D0391D9D
:1020500007F582740B6830FB03F230FB13F302F3D5
:102060000F0203F30F03C2EA034341F8043B8C421F
:10207000F0D8B5E7BDE8F883024A0349034806F003
:1020800093BD00BFFCC7FF1FCD1C000018F2FF1F4F
:10209000024A0349034806F087BD00BFFCC7FF1F83
:1020A000CD1C000020F2FF1F2DE9F84F344B3548BE
:1020B0001A68354912681B790B70824229D2334B5A
:1020C0001B784BBBDFF8D4A0DFF8D490DFF8D480C6
:1020D000DFF8D4B0DAF80060D9F80070B8F8004042
:1020E000BBF80050002E3CD0A7B33A1D311D02EBC7
:1020F000450201EB4401FFF71BFA403540347F2CC9
:102100001CD8A8F800407F2D0BD8ABF80050BDE8D4
:10211000F88FA0F58070D5E71D4B4FF080421A6014
:10212000D0E700243846ABF8004004F00FFD194B0F
:102130001A68C9F800201C60BDE8F88F00243046FA
:10214000A8F8004004F002FD134B1A68CAF80020FA
:102150001C60D8E7311D01EB4401FFF708FA403459
:10216000CDE737B1391D01EB4501FFF720FA4035C6
:10217000C5E74FF48072394607F0C8F8BFE700BFE3
:102180002CF2FF1F00C0FF1F1F80004044F2FF1F02
:1021900008E200E040F2FF1F48F2FF1F3CF2FF1F81
:1021A00034F2FF1F28F2FF1F38F2FF1F70B5002125
:1021B000044604F00FFD80B172B61C4A1368002B70
:1021C00029D01B490D6805B31A4E1560002208601E
:1021D000328062B6184604F0B9FC2046012104F0B2
:1021E000F9FC88B172B6144A1368CBB113490C6874
:1021F00074B1134D1460002208602A8062B618463C
:10220000BDE8704004F0A2BC70BD086062B6E4E7AF
:10221000086062B670BD074910600B8062B6DCE7EB
:10222000074910600B8062B670BD00BF3CF2FF1F13
:1022300048F2FF1F28F2FF1F34F2FF1F40F2FF1F7A
:1022400038F2FF1F284B29491A68294842F40042F6
:102250001A600A6842F002020A601A6842F002023A
:102260001A600368002B3EDB224B1B68002B3ADB15
:10227000214A4FF0864313601368002BFCDBF0B556
:102280001E4C1F48DFF8A8E01E491F4B1F4A204F75
:10229000204E214D41F2100CC4F800C0002404600F
:1022A0000120CEF80000DFF88CE0C1F800E04FF428
:1022B00080311960194B1360DFF87CE0184A3A60EE
:1022C0003460286000F18E40CEF80000154CB967EC
:1022D0001548164946F8503C4FF4C0632A61236004
:1022E00003600B60F0BD70473C80044040800440B8
:1022F00000F0024080F0024000F1024004F1024090
:1023000060F0024008F002400CF0024010F0024081
:1023100014F00240E0F0024084F002401B1F010074
:10232000001F1F1F08B004400CB0044018B0044048
:1023300004F002400100000788F00240F8B5284C84
:10234000284F2046012104F03FFD274A274B002556
:1023500015601D60FFF776FF254B264A2648DFF8FB
:10236000B0E04FF4C0611960236824491A60022666
:102370009E802279D86002F1804202F504324FF447
:102380008070C3F810E09E60D88240F2011ED883AE
:1023900006268F209D829D61A3F806E09E8315701E
:1023A000107022793A70164B164D4FF080720A6009
:1023B0000B6004F0AFFC2279134B144C18705311CE
:1023C0009B0003F1604302F1100003F5614302F04A
:1023D0001F02012101FA02F244F820501A60F8BDF0
:1023E0002CF2FF1F1B8000403CF2FF1F34F2FF1F46
:1023F00004B0044000BFFF1F00FEFFFF00F00240DA
:1024000001000090A920000044F2FF1F00C2FF1F3E
:1024100022F00240024A0349034806F0C5BB00BF50
:10242000FCC7FF1FCD1C00002CF2FF1F024A03490E
:10243000034806F0B9BB00BFFCC7FF1FCD1C00005E
:102440004CF2FF1F024A0349034806F0ADBB00BF30
:10245000FCC7FF1FCD1C000054F2FF1F024A0349B6
:10246000034806F0A1BB00BFFCC7FF1FCD1C000046
:102470005CF2FF1F024A0349034806F095BB00BF08
:10248000FCC7FF1FCD1C000064F2FF1F024A034976
:10249000034806F089BB00BFFCC7FF1FCD1C00002E
:1024A0006CF2FF1F002380F840308363C3637047E2
:1024B00008B572B690F840300BB962B608BD00237B
:1024C00080F8403062B6183000F092FB064A13885C
:1024D00023B1013B9BB2138003B108BD5E210348C9
:1024E000BDE8084000F022BA74F2FF1F1CC8FF1FAD
:1024F000F0B5294D89B00E460446FFF7D9FF5E219D
:10250000264800F0FDF92B8801332B8072B6012399
:1025100032466846224900F0D9FC08AA9DF804001A
:1025200012F8143D0299207784F82430216204F1D6
:10253000250304F1320012F8011F03F8011B834246
:10254000F9D1079B6363684600F03CFB62B604F177
:102550001807384600F05AFB064688B92B880E4A01
:1025600033B95E210D4800F0E1F9304609B0F0BD05
:10257000013B9BB21380002BF3D0304609B0F0BD75
:10258000384600F031FB00220123A0633046E263AD
:1025900084F8403009B0F0BD74F2FF1F1CC8FF1F63
:1025A00078F2FF1F90F8403003B9704770B50446C9
:1025B00004F078FA054600283BD004F118063046AE
:1025C00000F06CFAF8B14FF480723046291D00F02B
:1025D000FBFAE26B430802447F2BE26309D805EB68
:1025E0004303023305F58171002223F8022F8B4249
:1025F000FBD120462946002204F0D2FA2846BDE845
:10260000704004F0A3BA304600F0F2FA094A138889
:102610001BB1013B9BB213801BB95E21064800F041
:1026200085F9002384F840302846BDE8704004F066
:102630008DBA70BD74F2FF1F1CC8FF1F10B50021BA
:10264000044604F0C7FA98B194F8F6308BB194F8C8
:10265000F43094F8F5200133342BC8BF00239342A3
:1026600007D09A1D04EB8202DBB2506084F8F4308C
:1026700010BDBDE8104004F069BA00BF90F8F42026
:1026800090F8F530D0B2DBB2984238BF3530C01A7E
:10269000704700BF38B50546D0F8F00020B104F00F
:1026A00055FA0023C5F8F03095F8F54095F8F43068
:1026B000E4B2DBB29C420ED00134352C28BF00249A
:1026C000A31D05EB8303586804F040FA95F8F43035
:1026D000DBB29C42F0D1DBB285F8F53038BD00BFEB
:1026E0000246D0F8F000B0B992F8F53092F8F41044
:1026F000DBB28B4210D00133342B86BF01460B4630
:10270000D9B2063302EB83035868C2F8F00082F8AE
:10271000F510043070470020704700BFD0F8F0304B
:1027200043B110B50446184604F010FA0023C4F86B
:10273000F03010BD704700BF10B4047F4160022C20
:10274000C26002D010BC04F0BDBB836810BC184747
:10275000F0B4464B464A186BDC6A01791170454962
:1027600022790A709A6A00790870002A46D059685E
:10277000C9688A423ED82168CC8B240402F1FF301C
:1027800065D4C0F30E00C883C88B80B2C882196BB1
:102790000968C88B000452D4C2F30E00C883C88BEA
:1027A000002480B212F1FF32C88218BF01229C625D
:1027B000D96A2E4809680D6800F12404A54236D074
:1027C0000068C46814F0804F0C680D6815BF248839
:1027D00024780235013544F000440D604463196BE0
:1027E000254B09791970214912B1CA6A12791A70F8
:1027F000F0BC7047521A9A620122D9E7586B1968E7
:1028000005681E4C0A63CC62CC682D681C4E24F00F
:1028100080440327B542CC6083F825701FD1037F25
:102820004260022BC2601ED0F0BC04F04BBB0168BA
:1028300090F82400CC6840F000404863CFE7CC8B90
:10284000C2F3080004F47E442043C883A7E7CC8B7E
:10285000C0F3080004F47E442043C88394E72B4669
:102860001146F0BC18478368F0BC18471CC8FF1F0E
:102870001F8000401C8000401B80004000000FFFB4
:102880003927000090E80C00F0B41C6859682568EE
:10289000164F174E29432160164D17491760D66011
:1028A00015611160417A154A5C180A3194F8244088
:1028B00053F8215002EBC40149680D60017A5C189D
:1028C00003EB8101247ECD6902EBC40149680D60F0
:1028D000817A581803EB810390F83000596B02EBB2
:1028E000C002F0BC53681960704700BF01401F0070
:1028F000011000380110007800001F8050A5000072
:102900005E2911D830B44A09C57A012303FA02F4CA
:102910002C4300EB8202C472D06801F01F0103FA5D
:1029200001F10143D16030BC704700BF5E2913D86C
:1029300030B44D0900EB850401F01F01E36801226A
:1029400002FA01F123EA0101E16021B9C37AAA4048
:1029500023EA0202C27230BC704700BF204A4368BB
:102960009A42F0B40FD0427A1A4492F8242091424D
:1029700007D093F824408C4215D093F825408C4220
:102980002AD0F0BC70470B2907D00729EBD1154C92
:10299000227842F001022270E5E7124C227822F000
:1029A00001022270DFE7002421461E685D68366858
:1029B0002E420FD00C4D05EBC202002756685A1864
:1029C000376092F8242005EBC2050A316A6853F893
:1029D000213013604472D4E701242146E5E700BFAB
:1029E000F0A300005CF6FF1F50A50000204A4368DA
:1029F0009A42F0B40FD0827A1A4492F83020914271
:102A000007D093F830408C4215D093F831408C4277
:102A10002BD0F0BC70470D2907D00E29EBD1154CF7
:102A2000227842F004022270E5E7124C227822F06C
:102A300004022270DFE7002421461E685D683668C4
:102A40002E4210D00C4D05EBC202002756685A18D2
:102A5000376092F830200C3105EBC20503EB81039F
:102A60006A685B6813608472D3E701242146E4E757
:102A7000F0A300005CF6FF1F50A500000020704787
:102A8000704700BF10B582B002AB026803F8011DA9
:102A9000546819460122A04702B010BDC06938B180
:102AA0008369C06847F6FF72181A904228BF104623
:102AB000704700BFC36910B504463BB100201871D0
:102AC000E06901F035FAE3691B791BB10123237139
:102AD000002010BD10BD00BFC06978B100B583B043
:102AE00001220DF1070100F047FF01280CBF9DF8FE
:102AF00007004FF0FF3003B05DF804FB4FF0FF30EC
:102B0000704700BFC369C3B110B582B0044601224B
:102B100018460DF1070100F02FFF012803D04FF0F8
:102B2000FF3002B010BDE0699DF80740C16801396F
:102B300000F0D4FF204602B010BD1846704700BF19
:102B4000C06908B100F0FCBF704700BF2DE9F0413B
:102B500005464FF47A731348AB60002328602B714D
:102B60002B7324200C46904606F072F8E861B0B151
:102B7000064604F1200E20686168A268E3683746C3
:102B80000FC7103474453E46F5D120683860414681
:102B90000C2205F10D0007F0C1F800236B762846E2
:102BA000BDE8F08170A400004FF47A72044982609D
:102BB0000022016002710273C2614273704700BF5C
:102BC00070A40000704700BFC06908B100F0D4BE17
:102BD000704700BFC06930B108B500F07FFF00301A
:102BE00018BF012008BD7047C06900B180697047F7
:102BF000C36953B110B50446184600F045FEE069BC
:102C000006F02EF80023E36110BD7047C06918B1CB
:102C10008079003018BF0120704700BF30B58BB0FD
:102C200000240A460A4D8DF808400146012301A8F8
:102C30008DF80A40019501F03BF9A04218BF01242C
:102C400002D001A800F020FE20460BB030BD00BF2E
:102C500094A4000030B58BB000240A4D8DF80840D4
:102C60008DF80A40019504460D46FFF7D7FF38B9A5
:102C70002A46214601A801F097F8003018BF01202C
:102C80000BB030BD94A400000AB90120704708B50C
:102C900001F036F9003018BF012008BDF0B50E680C
:102CA000835D2F2B08BF0136841902F1FF3E0025FA
:102CB00023782F2B274604F1010408D03BB10135BE
:102CC0000C2D06F101060EF8013FF1D18719002302
:102CD00053553B782F2B04BF013687190E60387887
:102CE000003018BF0120F0BD2DE9F04F99B08846A3
:102CF000264D069500218DF81C1083469246994674
:102D000044468DF81E108DF840108DF84210019148
:102D10000F9506AE05E000F0B7FDFDB12346344641
:102D20001E4602AA01A95846FFF7B8FF80F001022B
:102D3000D2B24B4602A905462046D0472146074657
:102D4000012302AA70B13046ADB101F0B1F844459B
:102D500005462046DFD10DB10FACDFE7002019B0EA
:102D6000BDE8F08F4445F9D0204600F08DFD38468F
:102D700019B0BDE8F08F444506D0204600F084FD30
:102D8000012019B0BDE8F08F0120E8E794A400000D
:102D900038B50A460121044600F07CFA08B9002043
:102DA00038BD251D28460122214601F083FB40B194
:102DB000294604F12C0000F0B7FD003018BF0120B7
:102DC00038BD02462146284601F074FB0028EFD1A9
:102DD000002038BD2DE9F04F99B04FF00008DFF822
:102DE000E8A08DF81C808146043106A89346019323
:102DF0008DF81E808DF840808DF84280CDF818A0A7
:102E0000CDF83CA000F090FD06AE5D460FAF2F213F
:102E1000284606F0D7FC441BE4B2294608B32B78B9
:102E20002F2B02A81BD00C2C28BF0C24224606F006
:102E300075FF18AB2344384603F8588C00F024FD86
:102E4000012302AA3146384601F032F888B33046F1
:102E500000F01AFD334625443E461F46D7E70135AC
:102E6000D5E7019831797279B379B468377DCBEBC6
:102E700005050560F068356989F8041089F80520B2
:102E8000B16989F80630F269336AC9F80C0048461E
:102E9000C9F800A0C9F80840C9F8105089F81470A2
:102EA000C9F81810C9F81C20C9F8203019B0BDE8BD
:102EB000F08F89F8040089F806004846C9F800A098
:102EC00019B0BDE8F08F00BF94A40000F0B59DB02C
:102ED00005461F4601A86B461446FFF77BFF009A84
:102EE000A35C1444002B42D09DF80A202F4E0A9672
:102EF00000238DF82C308DF82E30002A31D00AA80E
:102F00003B46224601A900F0D3FF50B301A800F0D0
:102F1000BBFC17F0060F43D19DF82C700C9B9DF85D
:102F20002DE0139622469DF82E408DF850708DF8B6
:102F3000524015930D990E989DF83C70109E119C6F
:102F4000129B8DF851E01691179013A928468DF821
:102F5000607019961A941B93FFF7F8FD28461DB070
:102F6000F0BD2846FFF720FE28461DB0F0BD9DF8B5
:102F700008700E4E9DF809409DF80A30039A8DF8AE
:102F8000507013968DF851408DF852301592049977
:102F900005989DF81870079E089C099B044AD2E783
:102FA0000AA8109900F09AFDB6E700BF94A40000AB
:102FB0000CA2000010B40C46002300F12C01024AC0
:102FC000204610BCFFF790BE1D2C000010B40C462C
:102FD000002300F12C01024A204610BCFFF784BEFA
:102FE000552C000010B40C46002300F12C01024ABD
:102FF000204610BCFFF778BE892C0000064B074A1C
:10300000DA620221002259609A7083F8242083F842
:10301000302083F83220704778F2FF1F94A400001C
:10302000052823D8DFE800F0030310161C0A124B12
:1030300012484FF038421A60FFF724BC0E4B104A7A
:103040001A600E48FFF71EBC0B4B0E4A1A600B4865
:10305000FFF718BC084B0C4A1A600848FFF712BC6F
:10306000054B0A4A1A600548FFF70CBC024B084A98
:103070001A600248FFF706BCCCF2FF1F1CC8FF1FF6
:103080000320013800000138011001380320003806
:103090000650003810B50121007802F09DFB0E4A61
:1030A000137893B10D49CB7A00241846147063B19C
:1030B000DC0703D50A4A8869106018469A0705D4C8
:1030C000430702D5074B0A6A1A6010BD064BCA694E
:1030D000C87A1A60F4E700BFD0F2FF1F1CC8FF1FB8
:1030E00000E100E008E100E004E100E01E4B1A7896
:1030F0001AB10078002102F06FBB70B41B4A1C4962
:10310000D47A096801251D70ECB172B6D37ADE0756
:103110001C4606D5174DD4682E68344094612C6047
:103120001C469D0706D5144D13692E68D47A33408A
:10313000D3612B60630705D5104C536925682B407C
:103140001362236062B61368DA688A4207D00C4CB7
:103150001C600C4AD96041F080441C611A60007800
:10316000002170BC02F038BBD0F2FF1F1CC8FF1F4B
:10317000CCF2FF1F80E100E084E100E088E100E0A4
:1031800001403F0000003F80F0B41248124A03683B
:1031900082B016460093009F4FF00045FF2413684D
:1031A00043F480631360D5625463D36A002BFCDA66
:1031B000B36BDBB2FF2B09D003680193019BDB1BD0
:1031C0008B42ECD3002002B0F0BC7047012002B06B
:1031D000F0BC70470CF5FF1F00C00240F8B50D466B
:1031E0004FF4967116460446FFF7CEFF284B1A6837
:1031F0004FF0004042F4806245F040011A60D8620E
:103200001A465963D36A002BFCDA214918204FF083
:1032100000470A6826FA00F342F48062DBB20A60D3
:10322000CF624B63CB6A002BFCDA083810F1080F31
:10323000EFD155B3082D0CBF8721FF21144B1A681D
:103240004FF0004042F480621A60D8621A46596317
:10325000D36A002BFCDA0E4A002716464FF00045D1
:10326000FF21136843F480631360D5625163D36A0E
:10327000002BFCDAB36BD8B21B06607000D4F8BD2B
:103280000137B7F5807FECD1F8BD9521D6E700BFB7
:1032900000C002402DE9F0430023934E027085B038
:1032A0008370336801930546884610460121019FCB
:1032B00002F092FA2878012102F0A2FA287801217E
:1032C00002F08AFA894A136843F480531360062097
:1032D000FFF7A6FEDFF840E2854B9EF80BC01A68A8
:1032E000BCF1000F20D072B69EF80B30DC071946F7
:1032F00008D58048DEF80C1004682140CEF818107C
:1033000001601946980709D57B48DEF8103004683B
:103310009EF80B102340CEF81C300360490700F1E3
:10332000A28062B69EF80BC0DEF80030D9689142E8
:1033300007D0724818607249DA6042F08040186124
:103340001960704A0A244FF00040FF21136843F4CB
:1033500080631360D0625163D36A002BFCDA013CB6
:1033600014F0FF04F2D1BCF1000F18D01CF0010FD3
:1033700005D0654BDEF818209EF80BC01A601CF0D3
:10338000020F05D0614BDEF81C209EF80BC01A60BE
:103390001CF0040F03D05E4BDEF820201A60284694
:1033A000FFF7A4FE06E033680293029BDB1BB3F534
:1033B000FA6F51D8002211462846FFF70FFF012867
:1033C00081466870EFD14FF4D57208212846FFF787
:1033D00005FF430726D585F802904FF0000906E067
:1033E00033680393039BDB1BB3F5FA6F34D80022D9
:1033F00037212846FFF7F2FE4A4629212846FFF7E3
:10340000EDFE68700028EBD1AB78022B39D028464E
:10341000FFF740FE4046FFF703FE0124204605B0BB
:10342000BDE8F083374A042194464FF0004EFF2058
:10343000136843F480631360C2F82CE05063D36ACE
:10344000002BFCDADCF838300139DBB211F0FF0177
:103450006B70EDD1AA2B0FD02846FFF71BFE20463C
:1034600005B0BDE8F0832B49DEF81430086803404E
:10347000CEF820300B6054E70223AB704FF0804948
:10348000B5E702463A212846FFF7A8FE0028E3D117
:103490001C4B1A684FF0004442F48062FF201A600F
:1034A0001946DC625863CB6A164A002BFBDA936B31
:1034B000144A03F0C003C02B04BF0323AB700321E5
:1034C00016464FF00044FF20136843F480631360F6
:1034D000D4625063D36A002BFCDA013911F0FF018A
:1034E000B36BF1D193E700BF0CF5FF1F3C800440A4
:1034F000CCF2FF1F80E100E084E100E001403F00EA
:1035000000003F8000C0024000E100E004E100E074
:1035100008E100E088E100E01CC8FF1FF0B4154995
:10352000154A0B6882B016460093009F4FF0004585
:10353000FF24136843F480631360D5625463D36A35
:10354000002BFCDAB36BDBB2FF2B43700AD10B68A4
:103550000193019BDB1BB3F5967FEAD9002002B0F3
:10356000F0BC7047A3F1FE00B0FA80F0400902B051
:10357000F0BC70470CF5FF1F00C00240F8B583781F
:10358000032B0E46044618BF4E021546FFF7AEFD4C
:10359000324611212046FFF721FE18B92046FFF7D9
:1035A000BDFF20B92046FFF775FD0020F8BD204B78
:1035B0002049214A1A608E4659631A4659631E46AD
:1035C000596305F5FD70A91C05F5FE77D36A13F064
:1035D000F00FFBD0C6F834E0B36B01F8013C1B12CE
:1035E00001F8023C02318F42F0D105F50075A84286
:1035F0000DD20F4A1646D36A13F0F00FFBD0B36B0F
:10360000191200F8021BA84200F8013CF3D3084B42
:103610000949084A196019465A63CB6A044A13F0EB
:10362000F00FFAD02046936BFFF734FD0120F8BD70
:1036300000C00240FFFF009000041F80F0B4314E34
:1036400033684FF0004743F4806333603D46F762D0
:10365000344671633346511C02F20127E26A002AA4
:10366000FCDA1A6811F8016C42F480621A60DD62BB
:103670005E63E26A002AFCDA1A6811F8026B42F40F
:1036800080628F421A60DD625E63E7D11D49CA6ABB
:103690001C4B002AFBDA1A684FF0004542F48062A6
:1036A000FF241A601946DD625C63CB6A154A002B61
:1036B000FBDA13684FF0004543F48063FF24136086
:1036C0001146D5625463CB6A0E4A002BFBDA1368AD
:1036D0004FF0004543F48063FF2413601146D56228
:1036E0005463CB6A074A002BFBDA936BDBB203F01F
:1036F0001F024370A2F10500B0FA80F04009F0BC4F
:10370000704700BF00C0024070B5044671B18378B5
:10371000032B0D4618BF4D021646FFF7E7FC2A465D
:1037200018212046FFF75AFD054620B12046FFF735
:10373000B1FC002070BD3246FE212046FFF77EFF1F
:103740000028F3D04FF416712046FFF71DFD002826
:10375000ECD02A460D212046FFF740FD0028E5D198
:103760000B4B1A684FF0004542F48062FF201A604C
:103770001946DD625863CB6A054A002BFBDA936B6E
:1037800013F0FF0FD2D12046FFF784FC012070BD5B
:1037900000C00240014B024A1A607047CCF2FF1F82
:1037A0000110013838B590F90530002B03DBBDE876
:1037B000384000F0B5BC04460121006900F0DAFC95
:1037C000F8B1257D104B13EB45151AD0A3790F4A9C
:1037D000012B9CBFA369EB61E36912686B831B0C2F
:1037E000AB8232B105F1160105F1180090472B8B21
:1037F0006B82637903F07F036371BDE8384000F0AA
:103800008FBC002038BD00BFE0F2FF1FD4F2FF1FC5
:1038100010B500F1080204460121006A00F094FD91
:1038200050B1E3693BB96379A268E26163F07F0359
:103830006371012010BD012010BD00BF70B50646A8
:10384000FFF7E6FF98B1326AB568117C53691479C5
:10385000023D8D40013B74B11D4402E014F0FF04B1
:1038600007D0601900F0ECFC013C0028F6D10020E4
:1038700070BD336A197CB0694FF4007202FA01F32B
:103880000344B361012070BD82790AB900207047FA
:1038900010B50446FFF786FF18B10023A37101207D
:1038A00010BD002010BD00BF70B44B1E01F10A0412
:1038B000202203F8012FA342FBD10138002507265F
:1038C00010F8014F2CB32E2C1ED0164A01E09C425A
:1038D00017D012F8013B002BF9D1AE421FD3A4F14F
:1038E00021025D2A1BD8A4F16102192A05F1010306
:1038F00098BF203C0D44DBB298BFE4B22C701D464B
:10390000DEE7002070BC70470A2EFAD008250A2690
:10391000D6E70B78B3F1200018BF0120F2E7184674
:10392000F0E700BFA4A4000038B583793BB991F853
:103930002020102A0D46044603D0202A10D0002053
:1039400038BD022282714A8CC36153018361002316
:103950000120607123752562A360E360236138BD97
:1039600003238371496AC16100F11802284600F0FF
:10397000BBFC0028EBD1E2E7837913B94FF0FF30AD
:1039800070472DE9F04F8B464179C90783B0054652
:1039900058D5C1688469641A944228BF14462646E3
:1039A0000194002C64D01A46022ADFF8E890384FC0
:1039B000DFF8E4802A6AC1F3080A3FD01479013C99
:1039C00004EA5124E4B2BAF1000F5ED1002C5CD1BC
:1039D000002951D1E969A960107C526902398140FE
:1039E00014440819CAF500746A79B442A8BF344671
:1039F00053062CD4B4F5007F29D0002100F0BAFB87
:103A000000B30AEB090E0EEB040086450BD00BF158
:103A1000FF32734613F8011B02F8011F9842F9D1D7
:103A2000CEEB00008344E968361B2144E9601FD0D7
:103A3000AA79022AC1F3080A2A6ABFD1506A00EBA8
:103A40005120CFE74FF0FF3003B0BDE8F08F3A6868
:103A50009042D2D001465A46D8F80000FFF78EFDBA
:103A60000028EFD0E968361B2144A344E960DFD188
:103A7000019803B0BDE8F08F1046A96805F108026F
:103A800000F0FAFB0028DDD02A6AA968A4E700BF8D
:103A900054C8FF1FE0F2FF1FDCF2FF1F8379012BE8
:103AA00017D930B5C36883B001220DF10701044670
:103AB000C3F34315FFF760FF012802D0002003B0D5
:103AC00030BDE36804481F3300EB4510E36003B0EA
:103AD00030BD0020704700BFE0F2FF1FF8B58379CA
:103AE00013B182698A4201D20020F8BD022B0F4631
:103AF00005461AD007B32B6AE9681C7C4A1E04F1FC
:103B000009037C1EDA40DC40A24211D9EB69AB60AC
:103B100005F1080606E0A968286A00F0ADFB013C43
:103B20000028E1D03246002CF5D1EF600120F8BD2D
:103B30000029EBD0A41AEBE7AF60EF600120F8BDDD
:103B400083790BB1FFF72EBE184670478379012B9E
:103B500001D000207047F0B54579AC0783B002462C
:103B60001CD585698D420C4618D3D5B12546D6683B
:103B70001446FFF7B3FF88B1B5B9E169206A00F0D8
:103B80006BFC58B1E56122E000F066FC30B16FF0EB
:103B90007042A168206A00F04FFCC0B9002003B059
:103BA000F0BD184603B0F0BD01AAA168206A00F07C
:103BB00063FB0028F2D0206A0F4B90F82070019927
:103BC0004FF6F872102F08BF13469942DCD3637981
:103BD000A279A56163F07F036371002ADED02046DD
:103BE000FFF7E0FD0028D9D0B5422946204628BF7E
:103BF0003146FFF773FFD2E7F8FFFF0F70B51D4B9B
:103C000003EB4116F37A13F0110F02D012F0420FBA
:103C10001ED1194B01751B680361738BB18A43EA8E
:103C20000141C161F37A13F01803154604460DD122
:103C3000F36983610123837105F00F030021637130
:103C40006B06A160E1600FD4012070BD102B01D084
:103C5000002070BD00F11802006A00F045FB00284A
:103C6000F6D00423A371E7E72046BDE87040FFF7D4
:103C70006DBF00BFE0F2FF1F54C8FF1F2DE9F047E2
:103C800084B001AF06460C46104639469946FFF708
:103C90000BFE78B30022216A316213461546A260FA
:103CA000E260DFF8008108E0E52B1CD001460B2222
:103CB000384605F095FA88B3E368A2699A421DD99F
:103CC0002046C3F3431AFFF7E9FE98B10378002BAF
:103CD000EAD15DB9D8F8003086F814A033610378D2
:103CE00023B10125E8E7002DFBD1F3E709F012032A
:103CF000122B1DD0002004B0BDE8F08709F012039C
:103D0000122BF7D1A5B9A379022BF3D02046FFF7E8
:103D100095FD0028EED0214C357514E009F03003F4
:103D2000302BE7D04A4651463046FFF767FFE2E7BF
:103D30000121306900F01EFA0028DBD0347D174BDA
:103D400013EB4414D6D020220021204605F0DEFAE1
:103D500097E80700234603C3114923F8022B0D6897
:103D6000120C1A709DB104F10E0104F11000A84765
:103D7000238AE28963822383E28200F0D1F900285A
:103D8000B8D04A46317D3046FFF738FFB3E742F6F8
:103D900021034FF400622382E281EBE7E0F2FF1F90
:103DA000D4F2FF1F54C8FF1F2DE9F041847988B079
:103DB0001CB1002008B0BDE8F08133230D46044655
:103DC000FFF75CFF0028F4D0012604236671A3717D
:103DD0002046FFF733FD0028EBD0A379002BE8D075
:103DE0002046FFF7DFFC0028E3D03146206900F0D1
:103DF000C1F90028DDD094F814E02B4B13EB4E1ED4
:103E0000D7D010238EF80B3077460FCF6E460FC6F3
:103E100097E80F00BEF81A7086E80F00BEF814602D
:103E20006B460DF10A01202203F8012F8B42FBD1D2
:103E3000226AE369117C5069023B8B404FF02E08E7
:103E4000184401218DF8008000F094F90028B0D0CA
:103E5000ADF81460ADF81A706F460FCF124E8DF8A2
:103E600001800FC697E80F0086E80F00AB79023B90
:103E7000012B15D9EB699AB21B0CADF81430ADF8D3
:103E80001A206D460FCD094E0FC695E80F0040254C
:103E900086E80F00E56008B0BDE8F04100F040B9E9
:103EA00000221346E9E700BFE0F2FF1F00F3FF1F07
:103EB00010B4847914B1002010BC704710BCFFF717
:103EC000DDBE00BF10B500210446FFF73FFE08B974
:103ED000002010BD0121206900F04CF90028F7D026
:103EE000237D064A5B01DA42F2D0E5209854002196
:103EF000A171BDE8104000F013B900BFE0F2FF1F50
:103F000030B58BB000240A46084D8DF808400146B4
:103F1000022301A88DF80A400195FFF7AFFE10B10A
:103F200001A8FFF7CFFF0BB030BD00BF94A4000085
:103F30002DE9F04F8B46817985B001290746019222
:103F400005D001233B71002005B0BDE8F08F427918
:103F50009107F6D5530708D5FC68B9698C4200F083
:103F6000A880FFF7BBFD0028EBD0019BFC68002B6D
:103F700049D0DFF88C91DFF88CA1DDF80480386A35
:103F80000679013E06EA542616F0FF06C4F308043B
:103F900042D1002C40D1B96800296FD1FA69002ABA
:103FA0007ED0BA60C4F50075ADB245453AD9057CFE
:103FB0004169023AAA400E4416441FFA88F51CB91A
:103FC000F868BA6990424CD23046012100F0D2F82C
:103FD0000028B6D04C4404EB050E74450DD00BF10F
:103FE000FF31621E0EF1FF3611F8010F02F8010FCA
:103FF0009642F9D1C4EB0E04A344FC68B8EB050863
:104000002C44FC60BBD1BB69A34257D27A79BC6116
:1040100042F080027A715AE0C4F50075ADB24545B0
:10402000BA68C4D8017C4069023A8A400644B5F5B2
:10403000007F1644C3D1DAF80020964204BF4FF047
:10404000FF32CAF800202A4A314610685A46FFF764
:104050005BFB00283FF475AF0BF5007B4FF4007558
:10406000CBE700F05DF800283FF46BAF2149CAF8B8
:1040700000600A7842F001020A70ABE703AA00F080
:10408000FBF800283FF460AF386A1B4B90F82050D3
:10409000039A4FF6F871102D18BF19468A4280D343
:1040A0003846FFF7B5FB00283FF44BAF386ABA68D3
:1040B00078E7019B002B7FF45CAF08E00F4B7A7927
:1040C0001B6823B1019B13B142F080027A71120781
:1040D00009D5BB79002B3FF434AF3846FFF762FBBC
:1040E00000283FF42EAF019805B0BDE8F08F00BF67
:1040F000DCF2FF1FE0F4FF1FF8FFFF0FD4F2FF1FF9
:10410000E0F2FF1F54C8FF1F00B583B002AB0122CD
:1041100003F8011D1946FFF70BFF03B05DF804FB20
:1041200070B50F4C23780BB9012070BD0D4B0E4DAF
:10413000196828680D4AFFF7E7FA70B10C4E31682C
:1041400019B900232370012070BD2868074AFFF7C2
:10415000DBFA10B100233360F3E7002070BD00BF2D
:10416000E0F4FF1F54C8FF1FDCF2FF1FE0F2FF1F47
:10417000D8F2FF1F70B50D4D2B6883420E460ED04E
:104180000446FFF7CDFF08B9002070BD084B094A6F
:1041900018682146FFF7F2F90028F5D02C60064B8D
:1041A000197831431970012070BD00BF54C8FF1F3A
:1041B000DCF2FF1FE0F2FF1FE0F4FF1FF8B590F8FC
:1041C0002030C469102B1A4B05460E4617461B6853
:1041D00016D004EBD1149C4216D106F07F06154A86
:1041E00042F826701449287E0A78012842F001021C
:1041F0000A7018D9A968114A0B4413600120F8BD50
:1042000004EB11249C4208D000212046FFF7B2FFA6
:1042100050B195F82030102B07D1F6B2054A23464D
:1042200022F81670DEE70120F8BD2346D5E700BF6F
:1042300054C8FF1FE0F2FF1FE0F4FF1FD8F2FF1F7A
:1042400010B50446FFF76CFF78B1084B002103F569
:10425000007203F8011F9342FBD1054A0549137808
:104260000C6043F001031370012010BDDFF2FF1F4B
:10427000E0F4FF1F54C8FF1FC36801338B4218D3FB
:1042800070B590F82030102B154B044616460D469D
:10429000C0691B680FD000EBD11098420FD105F018
:1042A0007F01104B53F8213023F07043336001201D
:1042B00070BD0020704700EB1120984207D000210C
:1042C000FFF758FF50B194F82030102BE7D1E9B236
:1042D000044B33F811303360012070BD002070BDF5
:1042E00054C8FF1FE0F2FF1F2DE9F04782B002AD76
:1042F000DFF8508045F8041D044691464FF0000A4F
:104300004FF400774FF6F8760CE094F82030227CDA
:104310000199102B14BF4346334607FA02F2994223
:10432000924408D22A462046FFF7A6FF0028ECD187
:1043300002B0BDE8F0870120C9F800A002B0BDE8D6
:10434000F08700BFF8FFFF0F2DE9F04F176883B02B
:104350006FB301374FF0000AC36803F1010813B3CC
:104360008B46064691463C46002505E01C461F4606
:10437000F3680135AB4216D9A04538BF0224214667
:1043800001AA304638BF2746FFF776FF631CD91BCA
:1043900048B1019A002AE9D18B4510D01C46F36838
:1043A0000135AB42E8D8002003B0BDE8F08FA1F1A1
:1043B000010ABAFA8AFA07684FEA5A1ACCE7012CBE
:1043C000F1D9F36801339C42EDD86FF07042214679
:1043D0003046FFF7F3FE0028E5D0A74214D2013C97
:1043E000012CE0D9F36801339C42DCD8621C2146E1
:1043F0003046FFF7E3FE0028D5D0A74204F1FF3492
:1044000002D0012CEED1CEE7D9F8001059B1012924
:10441000C9D9F36801339942C5D83A463046FFF707
:10442000CDFE0028BFD0C9F80070BAF1000F01D04E
:10443000013737600120B7E701290AD9C368013382
:10444000994210B402D810BCFFF7B8BE002010BCCF
:1044500070470020704700BFF0B5022383B00546C7
:10446000134F03600C464FF6F8760FE0EB6801330C
:104470009C4216D8FFF7A2FE98B195F82030019C17
:10448000102B0CBF33463B469C420DD201AA21465D
:104490002846FFF7F1FE2146002210B1012C2846E4
:1044A000E4D8002003B0F0BD012003B0F0BD00BF90
:1044B000F8FFFF0FF8B53E4B054619601446DAB118
:1044C000042A01D90020F8BD00210846FFF752FE5A
:1044D0000028F7D0374B03EB041292F8AE215206B6
:1044E000F0D11B3403EB0414D4F80A30632BE9D960
:1044F000D4F80640002CE5D000212046FFF73AFE14
:104500000028DFD02B4AB2F80B30B3F5007FD9D1A9
:10451000117C0029D6D0D389002BD3D0567B002E16
:10452000D0D0002329762E712B74012703E00929AE
:104530000B462974C6D007FA03F0B04203F101011B
:10454000F5D1D68A1B4906B94E6AB2F80EE0AE60C4
:10455000A644C5F81CE0B2F81110177C6984480124
:1045600006FB07E600F2FF1006EB60206E62686152
:10457000B2F813100F4E01B9316A241A0C4424FA10
:1045800003F340F6F4718B42EB600BD94FF6F471F4
:104590008B4285BFD36A6B621023202385F82030BD
:1045A0000120F8BD0C2385F820300120F8BD00BFA4
:1045B000DCF2FF1FE0F2FF1F90F8392090F838007E
:1045C000101A704790F8383090F839209A4205D97F
:1045D0005A1C034480F83820187E70474FF0FF3093
:1045E000704700BF90F8383090F839209A4286BF63
:1045F0001B18187E4FF0FF30704700BF704700BF98
:1046000038B50546B0F85E0090B195F85D301446B7
:10461000C3F1210294420CD805F13B001844224614
:1046200000F014FC95F85D30234485F85D30204699
:1046300038BD012014462871EEE700BFB0F85E30A7
:104640006BB190F85D30202B07D8C218013380F889
:104650005D30012082F83B10704701230371002078
:10466000704700BF0023426980F8383080F8393045
:1046700080F85C3080F85D3080F85E3080F85F3024
:1046800006CA30B40D68046943662A4383660A602B
:10469000A370426990F861301649146813441D7A7A
:1046A0005B7B01EBC5051B026D6803F4E06343F01F
:1046B00064032B6090F8623013449D7CDB7D01EB3A
:1046C000C5011B02496803F4E06343F064030B6017
:1046D00021685368194205D0036927225A7003697B
:1046E00004229A71036920225A71036980229A7008
:1046F00030BC704750A5000010B50269D378DBB21A
:10470000D90604463DD510215806D17038D503F09E
:10471000040303F0FF02002B51D03D49626E0023D9
:104720000B7084F85D30002A5BD0904794F85D30C0
:10473000002B56D02369D0229A70236994F83B202D
:104740001A712369012284F85C200222DA7010BDFC
:10475000304B84F860009C424AD02F4B9C4252D090
:1047600094F8391013791F29DBB207D8284800784C
:1047700020B16018013184F8391003760223D37018
:1047800010BD5906C3D4917801F0100101F0FF006B
:104790000029DDD013F001031ED194F85C1094F8C9
:1047A0005D00884281BF4B1C091984F85C3091F888
:1047B0003B3013712369D0229A702269DEE72369A6
:1047C00084F83920C0229A702369114A197901218D
:1047D00011700222DA7010BDC02393702269137920
:1047E000CCE70122002384F85D2084F83B30A1E768
:1047F000626994F86130094913440322187A00F081
:1048000015FE2269ACE7626994F861300449F3E768
:10481000E1F4FF1F58C8FF1FC4C8FF1F81480000F4
:104820008D4800000369DB7803F0200373B190F832
:1048300060300133DBB2012B80F860301AD9426955
:1048400090F861301344187A00F06CBE70B542697C
:1048500003F0FF0590F8613013440446187A00F025
:1048600061FEA36E5BB184F8385094F83900BDE85E
:104870007040184790F85F30002BE0D0704770BD53
:104880000148FFF7CFBF00BF58C8FF1F0148FFF71F
:10489000C9BF00BFC4C8FF1F2DE9F047374FDFF87D
:1048A000E0903B68026982B006460093DDF8008024
:1048B0000021A025D3789B065BD53B680193019B23
:1048C000C8EB03030F2BF5D949B1102BF2D0002010
:1048D0009070336980229A7002B0BDE8F0877269E7
:1048E00096F8613013440521187A00F089FF726947
:1048F00096F861301344012193F812A0504600F05D
:104900007FFF09240021504600F066FF2B46013B43
:10491000FDD10121504600F05FFF2B46013BFDD148
:10492000013CEFD1706996F8611001444FF4A07218
:104930000C7A4B7B09EBC4011B02496803F4E0636A
:1049400043F064030B6096F862300344997CDB7D8E
:1049500009EBC1011B02496803F4E06343F06403FF
:104960000B60013AFDD13269D3789B064FF001010B
:10497000A3D4012002B0BDE8F08700BF0CF5FF1FF3
:1049800050A50000F0B503691222DA70026993782D
:1049900003F0200385B004460D46002B5ED0B423FF
:1049A00093703C4922690B680093009E05E00B68F8
:1049B0000193019B9B1B042B42D8D37803F0200367
:1049C00003F0FF00002BF2D094F85D30002B31D0C3
:1049D0004FF0000E4FF0020C04EB0E0393F83B3047
:1049E00013710B680393039F206907E09B060DD5A5
:1049F0000B680293029BDB1B052B28D8C378DBB224
:104A000003F0020202F0FF06002AEFD080F803C094
:104A10002669F378DBB2DF0632462DD49F062BD50C
:104A2000DB0731D40EF1010E94F85D305FFA8EFE93
:104A30007345D1D800201DBB002384F85E3004E00C
:104A40009070236980229A70042005B0F0BD8670B2
:104A50002369802204209A7005B0F0BD03F0FF06A0
:104A6000FFF71AFF10B9042005B0F0BD236984F8E0
:104A70005F60B0229A7094E78023B3700420DAE775
:104A800026698023B370D7E7BEF1000F0CBF022068
:104A90000320F6E70CF5FF1F0148FFF72DBE00BF0E
:104AA00058C8FF1F0148FFF727BE00BFC4C8FF1F3B
:104AB000644A654B2DE9F04F644EDFF8A0A1644CC9
:104AC000DFF89091A2FB00524FEA124C0CF1040760
:104AD000A3FB0025A6FB0062A7FB0AAB6D09D20A67
:104AE000A3FB0563A4FB0264CBEB07060BEB5606A6
:104AF0005B09B6082409C6EBC606C3EB031304EB37
:104B00004404A5EB8303BE1BC5EB0515A2EBC40251
:104B1000A0EB8500013600248A7008704B70CE70BF
:104B2000224640F26D1B4FF064084FF4C87A0EE045
:104B3000C6EBE5150AFB153570BB002D14BF5846B2
:104B40004FF4B7700244944504F1010413D3E7B263
:104B500007F2B27389FB0305DE17C6EB651013F08D
:104B6000030E08FB1030E3D040F26D100244944570
:104B700004F10104EBD28F71BEF1000F0FD1354863
:104B8000DE1780FB0340C6EB6014642505FB14347C
:104B9000BCB34FF4B77405E04FF4B770D2E740F2FE
:104BA0006D14DE172B482C4D80FB0370C6EB60188C
:104BB000121BC6EBE01664244FF4C87000FB1636D7
:104BC00004FB1838C2EB0C020120002302E0013084
:104BD000C0B20133012BDFB220D05C5D944209D812
:104BE0000C28A2EB0402F2D10D2701320A714F7199
:104BF000BDE8F08F0137FFB201320A714F71BDE895
:104C0000F08F4FF4C874C6EBE01004FB103000289E
:104C100040F26D1408BF4FF4B774C3E7BEF1000F44
:104C20000AD1B8F1000F0BD1002E14BF1C241D2493
:104C3000A24203D3121BCAE71C24F9E70227D4E7D8
:104C40001D24F5E707452EC289888888C5B3A2913F
:104C5000ABAAAAAA1F85EB5118A5000025499224EA
:104C600010B503490446FFF723FF024B1C6010BD3B
:104C7000E8F4FF1FE4F4FF1FF0B5204C204E23683A
:104C80003268204D83B028680093009B9B1AB3F5CF
:104C90007A7F0FD3013000E0084623680093009B21
:104CA00002F57A729B1AB3F57A7F00F10101F3D213
:104CB00028603260144F3B6898420FD3134B1B6837
:104CC00063B19847124B58B912491A680B78286893
:104CD0000033024418BF01233A600B7003B0F0BDEB
:104CE000226801921B680B4A019C28600344022140
:104CF00034603B60117003B0F0BD00BF0CF5FF1FC6
:104D0000FCF4FF1FF0F4FF1F00F5FF1FF8F4FF1F76
:104D100030C9FF1FF4F4FF1F08B5FFF7ADFF044BC8
:104D20001B68984201D0FFF79BFF024B987808BDA3
:104D3000E4F4FF1FE8F4FF1F08B5FFF79DFF044BE5
:104D40001B68984201D0FFF78BFF024B587808BDD3
:104D5000E4F4FF1FE8F4FF1F08B5FFF78DFF044BD5
:104D60001B68984201D0FFF77BFF024B187808BD03
:104D7000E4F4FF1FE8F4FF1F08B5FFF77DFF044BC5
:104D80001B68984201D0FFF76BFF024B187908BDF2
:104D9000E4F4FF1FE8F4FF1F08B5FFF76DFF044BB5
:104DA0001B68984201D0FFF75BFF024B587908BDA2
:104DB000E4F4FF1FE8F4FF1F08B5FFF75DFF054BA4
:104DC0001B68984201D0FFF74BFF034B987900F224
:104DD000B27008BDE4F4FF1FE8F4FF1F70B40A4B83
:104DE0000A4A1B6812680A4E0A4D0B49306083B0AC
:104DF00010440193019C094B286002220C601A7038
:104E000003B070BC704700BF0CF5FF1F30C9FF1F17
:104E1000F0F4FF1F00F5FF1FFCF4FF1FF4F4FF1F69
:104E200008B5FFF729FF014B187808BDF4F4FF1F00
:104E30000349044A044B096811601860FFF71CBF5E
:104E4000F0F4FF1F00F5FF1FF8F4FF1F844641EA4E
:104E5000000313F003036DD1403A41D351F8043BF2
:104E600040F8043B51F8043B40F8043B51F8043B44
:104E700040F8043B51F8043B40F8043B51F8043B34
:104E800040F8043B51F8043B40F8043B51F8043B24
:104E900040F8043B51F8043B40F8043B51F8043B14
:104EA00040F8043B51F8043B40F8043B51F8043B04
:104EB00040F8043B51F8043B40F8043B51F8043BF4
:104EC00040F8043B51F8043B40F8043B51F8043BE4
:104ED00040F8043B51F8043B40F8043B403ABDD253
:104EE000303211D351F8043B40F8043B51F8043BF5
:104EF00040F8043B51F8043B40F8043B51F8043BB4
:104F000040F8043B103AEDD20C3205D351F8043B83
:104F100040F8043B043AF9D2043208D0D2071CBF4F
:104F200011F8013B00F8013B01D30B880380604678
:104F3000704700BF082A13D38B078DD010F00303EE
:104F40008AD0C3F10403D21ADB071CBF11F8013B5E
:104F500000F8013B80D331F8023B20F8023B7BE7AD
:104F6000043AD9D3013A11F8013B00F8013BF9D2D8
:104F70000B7803704B7843708B7883706046704772
:104F8000374A384913681B06FCD40B6813F08003BA
:104F9000F8D172B634490A78002A5FD0334A3448CF
:104FA000F0B4344C176806682568D4680C303E4469
:104FB000143200681268304F35442C4420440244B7
:104FC000C2F34E022D4E2E482E4D2F4C42F400427D
:104FD0003A60376806682D682C4A24680C303E44D5
:104FE000006812682A4F35442C4420440244C2F31E
:104FF0004E02284E2848294D294C42F400423A607E
:10500000376806682D68274A24680C303E440068DB
:105010001268254F35442C4420440244C2F34E020A
:10502000224E2348234D244C42F400423A60376814
:1050300006682D68214A24680C303E4400681268D6
:1050400035442C4420440244C2F34E021C4842F42E
:10505000004202600B7062B6F0BC704762B67047E7
:1050600024B0034024B00B4005F5FF1F38B00340C7
:105070003CB0034040B003402CB0034058B0034064
:105080005CB0034060B0034064B003406CB00340C8
:1050900030B0034038B00B403CB00B4040B00B4048
:1050A00044B00B404CB00B402CB00B4058B00B4000
:1050B0005CB00B4060B00B4064B00B406CB00B4078
:1050C00030B00B4030B42948294A2A4B2A4D60247D
:1050D000E121047011701B78284C082B30D00A2B6A
:1050E0002748284937D00C2B0CBF35223D221223EC
:1050F0002A60236002600B60234B24491B78244AFA
:10510000BBB101230B601360224B23491B78234A58
:10511000012B26D9042B0FD9082B1ED9102B94BF95
:10512000862387230B6013601D4B01221A7030BC4D
:1051300070470B601360E7E784230B601360F3E7AD
:1051400000F58E200F490830012213232A602360C6
:1051500002600B60D0E73922F7E785230B6013600C
:10516000E2E780230B601360DEE700BF00400740EA
:105170000140074034C9FF1F08B003400CB0034092
:1051800008B00B400CB00B4008F5FF1F20B00340E7
:1051900020B00B4035C9FF1F24B0034024B00B40A2
:1051A00005F5FF1F28282FD8334B2DE9F0411E5C51
:1051B000FF2E2BD0314B1B78002B2AD132062CD45A
:1051C00072B62F4D2F4C2F46012326602B7062B6EE
:1051D00072B623681B060CD43B781BB9F4E72B7816
:1051E000002BF1D062B602F0FFFA72B623681806FF
:1051F000F5D5254B1B6800222A7062B6234A107829
:1052000043FA00F0BDE8F081002070470020BDE8BF
:10521000F081FFF7B5FE3206D2D572B61C4DDFF82D
:105220007C801C4C06F04007FFB206F03F06D8F821
:105230000030DFB123F01003C8F8003001232660EE
:10524000134A2B7062B672B6236819060CD4137811
:105250001BB9ECE72B78002BE9D062B602F0C4FA58
:1052600072B623681B06F5D50B4BC3E743F010035A
:10527000C8F80030E2E700BF24A5000005F5FF1FD5
:1052800007F5FF1F00B0034010B0034004F5FF1FF7
:1052900006F5FF1F00B00B4010B00B400CB00B40E8
:1052A0000A4A0B49136843F4805313600B7843B9DF
:1052B000084BC0221A70084B80F30C0000B2188013
:1052C0007047044B80221A70F5E700BF2C80044021
:1052D00008F5FF1F21C00C4000C00C4008B5104C61
:1052E00008E0236859050DD423681A050FD42368F4
:1052F000DB0411D423685803F3D500F01FFC2368A6
:105300005905F1D502F0F4FA23681A05EFD502F039
:1053100085FB2368DB04EDD502F016FCEAE700BF4D
:105320003480044008B5FFF7D9FF00BF014B1022BD
:105330001A80704700200540704700BF094908B532
:105340000B6830B16A461844A2F58052904202D2EE
:105350000860184608BD03F033FC0C2303604FF0CF
:10536000FF3008BD38C9FF1FFEE700BF704700BF10
:1053700010B40F4B53F8302092F880422CB1012327
:1053800069B182F8803010BC704703EBC0035B68E2
:105390001A6841B922F002021A6010BC704782F804
:1053A000003110BC704742F003021A6010BC704715
:1053B00050A500001C4A02EBC00301295B6811D014
:1053C00004291BD052F83000002280F8802229B135
:1053D000022920D0032922D01A6070474FF480722E
:1053E0001A60704752F830004FF4A27280F88012B1
:1053F0001A601A6822F020021A60704752F83010C2
:105400004FF4A272012081F880021A601A6842F0FB
:1054100020021A60704740F203121A6070474FF47E
:1054200081721A60704700BF50A50000212848D83B
:10543000F8B5042A44D8DFE802F0484B4E03450093
:105440004FF410262B4B03EBC0030D465C6821681C
:1054500011F4E06148D0284B284A2949C3F89C211F
:1054600004F140422748C3F8A411A2F59221264F27
:10547000C3F8A0017C292548C3F8A871C3F8AC0182
:105480002CD9A2F594237C2B2AD9A2F596237C2B28
:1054900028D9A2F598237C2B29D9A2F59A227C2A17
:1054A00027D81B4872B6236823F4702343F0807218
:1054B000C4F384011643236040F82150266062B68D
:1054C000F8BD70474FF43026BCE74FF40026B9E72B
:1054D0004FF44026B6E74FF42026B3E70D48E1E746
:1054E0000D48DFE70D48DDE7FFF764FFB3E70C4841
:1054F000D8E7F8BD50A5000000C2FF1FD1C7FF1FAD
:1055000079C7FF1FA5C7FF1F4DC7FF1F21C7FF1F7B
:1055100014CAFF1F3CC9FF1F74C9FF1FC4C9FF1F66
:10552000F4C9FF1F1A4B03EBC00010B4426802F12C
:105530004043A3F592217C2923D9A3F594217C290A
:105540000DD9A3F596217C291FD9A3F598217C2993
:1055500019D9A3F59A237C2B11D80E4C00E00E4CE0
:1055600072B613680D4823F08773C2F3840123F4E5
:10557000803343F08073136044F8210062B610BC9E
:105580007047074CECE7074CEAE7074CE8E700BF39
:1055900050A5000014CAFF1F74C9FF1F6D530000FF
:1055A0003CC9FF1FF4C9FF1FC4C9FF1F014B186886
:1055B000704700BF00D0034030B4054B054D064C8A
:1055C000002210211A602A602060196030BC7047E8
:1055D00014D0034004D0034000D00340282838B53D
:1055E0002ED0002904464FDD5F4B1B78012505FABC
:1055F00003F28A4202D8212837D938BD0338C2B213
:10560000012A3AD9202C4AD0192C48D0574A12687E
:1056100002FB011222FA03F31D2800F29B80DFE84F
:1056200000F0928B847D9999766F999999999999BF
:1056300099999968615A53994C9999999999994569
:10564000494B1B780B2B08D90C2B1CBF0C3B194169
:105650000846BDE83840FFF723BEC3F10C0399406C
:105660000846BDE83840FFF71BBE2946FFF780FE1D
:105670002946BDE83840FFF79DBE3D4A126802FB4F
:10568000011222FA03F3C7E72128B6D80021FFF759
:105690006FFE20460121BDE83840FFF78BBE354A3A
:1056A000126802FB011222FA03F3B5E73249334ACA
:1056B0000B604FF45173136038BD3149314A0B60B0
:1056C0004FF45173136038BD2F49304A0B6040F2DC
:1056D0004443136038BD2E492E4A0B6040F24443C8
:1056E000136038BD2C492D4A0B6040F244431360CF
:1056F00038BD2B492B4A0B6040F24443136038BD40
:1057000029492A4A0B6040F24443136038BD2849B6
:10571000284A0B6040F24443136038BD2649274AAB
:105720000B6040F24443136038BD2549254A0B60A5
:1057300040F24443136038BD2349244A0B604FF4C0
:105740005173136038BD2249224A0B604FF45173E4
:10575000136038BD212C3FF650AF7F29D4BF002104
:105760000121204693E700BF1CCAFF1F08800340A9
:105770000890034008800B4010800B4048A0044074
:1057800018800B404CA004401880034008B004402F
:105790001080034004B004404080034018C004401F
:1057A0003880034014C004402880034010B00440F7
:1057B000208003400CB004403080034010C00440FF
:1057C000488003401CC004401890034034900440BB
:1057D0001090034030900440212801D8FFF7C8BD45
:1057E000704700BF212806D8044B53F8303093F897
:1057F0000002C0B270470020704700BF50A50000F3
:10580000212801D8FFF7D6BD704700BF2DE9F84326
:10581000054672B6204F214B214A1B683C6812682E
:1058200062B6520102D5322B88BF013495B3C3F55D
:10583000BB331C4EDFF86490DFF86480FF334FF415
:105840007A72A6FB031302FB04F404EB931472B602
:10585000D9F800103A68D8F800E062B6C1F5BB3359
:10586000FF33A6FB03031EF0806FC4EB93134FF4CA
:105870007A7002D0322988BF013200FB0233B3F5BF
:105880007A7F04D3013D05D004F57A74DFE701F097
:10589000ABFFDCE7BDE8F8830CF5FF1F18E000E084
:1058A00004ED00E0ABAAAAAAF8B52D4B2D49DFF80C
:1058B000D0E0DFF8D0C02C4E2C4D2D4C2D4A2E4F71
:1058C0004FF4000018604FF0807018604FF00070C7
:1058D00018604FF0806018604FF000601860002082
:1058E000086028234BF6FF71CCF80010CEF800308A
:1058F000336013602B6023603B60B36293620922C4
:1059000045F8242CC4F8D80F05F57F65C7F8D41FD7
:1059100007F5FF2707F5FA67C6F8F83F2B6006F58D
:10592000FF26C4F8D42F05F5FD2504F5FF243860C3
:1059300006F2F4761148316005F5FF6504F5FD6463
:105940002B6023600260FFF7BDFB1920FFF75EFFAD
:1059500000F05CFE40F21310BDE8F840FFF756BFC0
:1059600008E100E0048003401480034024800340E9
:105970002C8003401C8003403480034000800B4097
:105980000C80034008800340431E032B14D872B6DA
:105990000A4951F8230068B170B4094C058834F8FD
:1059A0001320466841F82360521B24F8132062B686
:1059B00070BC704762B670470020704768F5FF1FE3
:1059C00020F8FF1F013803280BD872B6074B53F895
:1059D000203043B100205B680130002BFBD162B660
:1059E0007047002070471846F9E700BFBCF5FF1F5D
:1059F00030B472B62B4A13781D0706D52A4B196AA4
:105A0000002936D0996A002941D053781C0706D561
:105A1000254B196C00293ED0996C002939D0937818
:105A2000190705D5204B196E002936D0996E89B11A
:105A3000D3781B0707D51C4BD3F880207AB3D3F853
:105A4000882011213AB162B6184B00221A7030BC7E
:105A500000F068BE0D21154C154D227843F83150E9
:105A600003EBC1030830013A5860227062B630BCC3
:105A7000704704220D4C0F4D217843F8325003EB50
:105A8000C20308304A1E5860227062B6EFE7052153
:105A9000E1E70921DFE70822ECE70C22EAE7102220
:105AA000E8E700BF98A600000080FF1FE5F5FF1F94
:105AB000C800400088004000431E032B1DD81B4A2D
:105AC000400140F0100030B4104472B6184CE25C53
:105AD000032A1BD8DFE802F00212151703220D88F3
